:020000040800F2
:10000000D80700205102000881340008CB300008D6
:100010007D340008811500088D3F000800000000B5
:100020000000000000000000000000000936000889
:1000300085150008000000008534000845380008D8
:100040006B0200086B0200086B0200086B020008DC
:100050006B0200086B0200086B0200086B020008CC
:100060006B0200086B0200086B0200086B020008BC
:100070006B0200086B0200086B0200086B020008AC
:100080006B0200086B0200086B0200080000000011
:100090000000000000000000000000006B020008EB
:1000A000113900086B0200086B0200086B0200089F
:1000B0006B0200086B0200086B0200086B0200086C
:1000C0006B0200086B0200086B0200086B0200085C
:1000D0006B020008153F00086B02000800000000DA
:1000E0006B0200086B0200086B02000800000000B1
:1000F0000000000000000000000000006B0200088B
:10010000000000006B0200086B0200086B02000890
:1001100000000000000000000000000000000000DF
:100120006B0200086B0200086B0200086B020008FB
:100130006B0200080000000000000000000000004A
:100140000000000000000000000000006B0200083A
:100150006B0200086B0200086B0200086B020008CB
:100160006B0200086B0200080000000000000000A5
:10017000000000000000000000000000000000007F
:10018000000000006B0200080000000000000000FA
:100190006B0200086B02000800F002F800F049F85A
:1001A0000AA090E8000C82448344AAF10107DA45D2
:1001B00001D100F03EF8AFF2090EBAE80F0013F0DB
:1001C000010F18BFFB1A43F001031847B0410000AC
:1001D000D0410000103A24BF78C878C1FAD852073D
:1001E00024BF30C830C144BF04680C6070470000B1
:1001F0000023002400250026103A28BF78C1FBD830
:10020000520728BF30C148BF0B607047662904F011
:100210005D80002070471FB504F053F800F0AEFB7E
:1002200004000020002103F0BFFFE0601FBD10B5F7
:1002300010BD00F0BFFC1146FFF7EDFF03F04AFFD1
:1002400000F0DDFC03B4FFF7F2FF03BC03F0DBFEBC
:100250000948804709480047FEE7FEE7FEE7FEE75A
:10026000FEE7FEE7FEE7FEE7FEE7FEE70448054996
:10027000054A064B70470000FD3800089901000848
:10028000D8010020D8070020D8030020D803002080
:10029000704753EA020C00F069802DE9F04B4FF0F3
:1002A0000006002B1FBFB3FA83F503FA05F424FA06
:1002B00005F65E4012BF1643B2FA82F502FA05F463
:1002C000C5F120051EBF22FA05FC44EA0C042035C6
:1002D00056EA044C4FEA144418BF641C4FF000085F
:1002E0004FF00009904271EB030C39D3002919BF7C
:1002F000B1FA81F701FA07F6B0FA80F700FA07F6CB
:10030000C7F120071EBF20FA07FC46EA0C0620377B
:10031000B6FBF4FCA7EB0507103F07F01F0BCBF172
:1003200020060CFA0BFB2CFA06F644BFB346002657
:10033000202FA4BF5E464FF0000B5BEA060C08BFFF
:100340004FF0010B19EB0B09ABFB027C48EB0608E5
:10035000C01B06FB02CC0BFB03CC71EB0C01C1E70D
:100360000B46024641464846BDE8F08B13B54FF0B8
:1003700000004FF00001AFF30080BDE81C40704763
:100380000FB4044910B503AA029800F0E5FA10BCB6
:100390005DF814FB180000202DE9F0474FF0000A2B
:1003A00089460446C0F820A02046E1688847002816
:1003B00076D0252806D0D4E901219047206A401C38
:1003C0002062F1E7E168204600258847C4F81CA0B8
:1003D00006460027C4F818A02A2E09D0304603F09C
:1003E0000BFE38B304EB8708303EC8F8186019E0FC
:1003F00059F8041B204604EB87029161E1688847A5
:10040000012F064618D1E069002820DA25F02005E2
:100410001DE0D8F8180000EB800006EB40003038F3
:10042000C8F818002046E1688847064603F0E4FD56
:100430000028EED1012F0AD02E2E08D12046E168E7
:1004400088477F1C0646022F45F02005C4DBA069C3
:10045000002803DA404245F00105A061E80701D019
:1004600025F01005B6B1A6F14100192802D82036B2
:1004700045F400654A463146204625604D46FFF763
:10048000C5FE58B1012806D0ED1D25F0070000F18A
:10049000080989E704E005F1040985E730468AE7A1
:1004A000206ABDE8F08710B5431C02E010F8011B7C
:1004B00071B18107FAD14FF0013202C88C1A8C4316
:1004C00014EAC211F9D0C01A0A0603D0C01E10BD2A
:1004D000C01A10BD0A0401D0801E10BD0902FCD054
:1004E000401E10BD4FF0000200B5134694469646DC
:1004F000203922BFA0E80C50A0E80C50B1F1200137
:10050000BFF4F7AF090728BFA0E80C5048BF0CC0E4
:100510005DF804EB890028BF40F8042B08BF704742
:1005200048BF20F8022B11F0804F18BF00F8012BB4
:100530007047704770477047704770472DE9FF4F0D
:100540000C461E464FF0FF378BB0D2E90001DDF8B4
:1005500060800A908A46C1F30A5505B93D460021DC
:1005600008464FF00000BAF1000F00F4400005DA31
:1005700000EB80004FF4400101EA50004FEA90592F
:10058000B9F1010F00DDB9460A9850EA4A000ED0D1
:1005900044F61050A5F2FF3545432F14B8F1000F73
:1005A0001ED07542291E1EDDC9F100021CE0B8F103
:1005B000010F4FF0000001D0302103E0F24305E0CD
:1005C0002154401CB042FBDB304600220021215464
:1005D0000B99C1F80880C1E900200FB0BDE8F08F89
:1005E000BD1B6D1CDEE74A4600DA694206A800F032
:1005F00067FA06AB93E8070003AB83E807005046B1
:100600000A9900F045FB8DE80700A0F500501F385F
:1006100000900398002D0ADD42F21F014A4608446B
:10062000002303A90390684600F0AEFD09E0A0F5A1
:1006300000504A461F38002303A90390684600F083
:10064000B8FD8DE807000004000C03D04FF0FF3028
:10065000410800E01046B8F1000F03D000220092DC
:1006600015461EE0751E05D400F08CF93032625537
:100670006D1EF9D5B3460122084302D000227F1C2B
:1006800004E02078302801D100227F1E002A09973B
:1006900084D01DE0112D07DA00F074F93032625574
:1006A0006D1C50EA0102F5D1084302D00098C8B190
:1006B0000EE00021681E05E0235C625C6354225456
:1006C000401E491C8142F7DBAB46A81B401E099027
:1006D000002004F80B000B98099AC0F80880C0E9C4
:1006E000002B7AE711264FF0000857E72DE9F04F6D
:1006F00088460446D21D22F0070191B0D1E90001DD
:10070000CDE90A0103F044FC02460B98C00F01D06A
:100710002D2007E02068810701D52B2002E0202151
:1007200001EAC000032A099001D0072A05DB03462D
:100730004146204600F084F90BE12078800601D57F
:10074000E06900E00620B8F1650F814606D0B8F1F7
:10075000660F18D0B8F1670F70D131E00020B9F101
:10076000110F009001DB112301E009F101030AAA36
:1007700001A90CA8FFF7E2FEDDE90C70002609F1E3
:100780000105834647E001204B4600904FF00047AB
:100790000AAA01A90CA8FFF7D1FEDDE90DB00C995A
:1007A0005D46002610B909F101000D18B9EB0500EE
:1007B00003D4C0F1FF3609F10105A5EB09002BE0D8
:1007C000B9F1010F01DA4FF001090020B9F1110F61
:1007D0000090484601DD112300E003460AAA01A962
:1007E0000CA8FFF7ABFEDDE90C704D4600268346F2
:1007F000207800070AD4AB4500DA5D4601A8012D38
:1008000004DD411911F8011C302907D04F4502DAE7
:1008100017F1040F04DA012082460FE06D1EEEE7A7
:10082000002F02DCED1B3E4403E0781CA84200DDF3
:100830007D1CB81B00F1010A4FF00047207800072B
:1008400003D4AA4501DB4FF0FF3A0021B7F1004F76
:100850000DF143088DF8431024D002202B23002FE4
:1008600001DA7F422D230A21021EA0F1010000DCE3
:100870005FB197FBF1FC97FBF1F201FB1C7C174683
:100880000CF1300C08F801CDEEE7A8F1010003707F
:100890002188090501D5452100E06521A0F1010865
:1008A00000F8011C09980FA9A1EB0807FF1D00B172
:1008B0000120411901EBEA70A1693844081A401E71
:1008C000A0612078C00602D42046AFF300800998CA
:1008D00028B1D4E901219047206A401C2062207889
:1008E000C00622D52046AFF300801EE0002E04DBB8
:1008F000B34502DD01A8805D00E03020D4E901218C
:100900009047206A401C2062761CAAF101005FEA31
:10091000000A0AD100F032F8C0680168405CD4E9EE
:1009200001219047206A401C2062281EA5F1010584
:10093000DCDC07E0D4E9012118F8010B9047206ABC
:10094000401C2062381EA7F10107F3DC2046AFF3FC
:100950000080032011B041E6074B70B50D467B4483
:1009600000F05BF80446284600F01CF910B14FF087
:10097000FF3070BD204670BD5337000000487047FF
:100980009801002030B5B0F10A024FEA900E71F1E3
:1009900000034EEA817EB0EB0E0061EB91014FEA5D
:1009A000101E4EEA017E10EB0E0041EB11114FEAD2
:1009B000102E4EEA016E10EB0E0041EB11214FEAB2
:1009C000104E4EEA014E10EB0E0041EB1141401863
:1009D00041F100014FEAD00040EA41704FEAD101F5
:1009E00010EB80054FEA810444EA907444EB010463
:1009F0006D1944EB0404521BA3414FF0000348BFA0
:100A00000A3200D530BD401C41F1000130BD00006C
:100A100001694A1C02610878704700B58FB0CDE9C2
:100A200001310021059105497944CDE903101146B2
:100A30006846FFF7B1FC0FB000BD0000E5FFFFFF07
:100A40002DE9F0411F46044603260168072A01F4F8
:100A5000006004DB08B116A505E016A503E008B1A7
:100A600015A500E015A521F010002060A069C01EAA
:100A7000A0610FB1401EA0612046AFF300804FB1CE
:100A8000D4E9012138469047206A401C2062C01CEE
:100A9000206206E0206AFAE7D4E9012115F8010B8B
:100AA0009047761EF8D22046AFF30080BDE8F08173
:100AB0004E414E006E616E00494E4600696E660002
:100AC0002DE9F047814616468AB0354878440DC86E
:100AD0008DE80D0032487844801C03AC0DC884E8D2
:100AE0000D0041F69B300844372190FBF1F290FB5A
:100AF000F1F5A5F1800501FB12041B3C02D564420F
:100B0000012000E00020DFF898A080460027FA448A
:100B1000AAF1BE0A0EE0E0070AD03246684607EBAB
:100B2000470101230AEB810100F043FB8DE8070038
:100B300064107F1C002CEED1194F7F44AE3F19E0AA
:100B4000E80715D007EB04100DF1180A90E80E0025
:100B50008AE80E00C068F04201D198190890324628
:100B6000012306A903A800F024FB03AB83E80700D8
:100B70006D10641C002DE3D14FF00103324669462D
:100B8000B8F1000F03A802D000F0FEFA01E000F077
:100B900010FBC9E90001C9F808200AB0BDE8F087D8
:100BA00094380000007B00F08000704700487047D8
:100BB000780100207546FFF7F9FFAE46050069464B
:100BC000534620F00700854618B020B5FFF74EFBCE
:100BD000BDE820404FF000064FF000074FF000083E
:100BE0004FF0000B21F00701AC46ACE8C009ACE8BF
:100BF000C009ACE8C009ACE8C0098D46704710B523
:100C00000446AFF300802046BDE81040FFF71ABB52
:100C10004FF0013C50F8042B51F8043B9A4221D18B
:100C2000A2EB0C03934313EACC1317D150F8042B17
:100C300051F8043B9A4215D1A2EB0C03934313EAFB
:100C4000CC130BD150F8042B51F8043B9A4209D134
:100C5000A2EB0C03934313EACC13DBD04FF000005C
:100C6000704700BFD01A01BAB1FA81F101F0180142
:100C700022FA01F0CB40C1F12001DBB2C0B2C01AB0
:100C80002CFA01F3D11A914311EAC311E6D170474E
:100C90005FEA400C08BF91F0000F4FEA8C234FEA47
:100CA000C12243EA51514FEA1C5018BF00F5F040F1
:100CB0004FEA300018BF41F000415FEA6C5C00F081
:100CC0002980BCF1FF3F08BF40F080407047130C03
:100CD00006BF12044FF0100C4FF0000C130E04BFAF
:100CE00012020CF1080C130F04BF12010CF1040CDA
:100CF000930F04BF92000CF1020CD30F04BF5200FB
:100D00000CF1010C11464FF00002A0F11F00A0EB06
:100D10000C00704711F0004F08BF704731F00041E0
:100D20003FF4D5AF0B0C06BF09044FF0100C4FF089
:100D3000000C0B0E04BF09020CF1080C0B0F04BFD2
:100D400009010CF1040C8B0F04BF89000CF1020C9B
:100D5000CB0F04BF49000CF1010CCCF12003A0EB38
:100D60000C0022FA03F302FA0CF241EA030100F14B
:100D70000100704720F07F4C80EA030023F07F479A
:100D8000ACEB070303F57C5300F0004003F1FF03D5
:100D90002DE980494FEA154B09B44FEA144325EA7F
:100DA0000B4E24EA03480FF2042606EB13274908EA
:100DB0003E785FEA320203FB0667C7F5000707FBD0
:100DC00006F64FEA54374FEAD64606F1020607FB0D
:100DD000066CCCF1005C4FEA1C472CEA074C07FB81
:100DE00006F40CFB06F504EB15464FEA961634BFE5
:100DF00000204FF000404FEAD13706FB07FC4FEAD6
:100E00001C4C0CFB0BF7D21B03FB0CF761EB07012F
:100E10000CFB0EF7B0EB074072EB17420CFB08F728
:100E200034BFA2EB0742B2EB074261EB17414FEA36
:100E30000C444FEA910706FB07FC4FEA1C4C0CFBE5
:100E40000BF7B0EBC74072EB573203FB0CF734BF24
:100E5000A2EBC742B2EBC74261EB57310CFB0EF776
:100E6000B0EBC70072EB57720CFB08F734BFA2EB74
:100E7000C702B2EBC70261EB5771039F4FEA816172
:100E800041EA921104EBCC044FEAD1374FEA826277
:100E900006FB07FC42EA90124FEA80604FEA1C4CC6
:100EA0000CFB0BF7D21B03FB0CF761EB07010CFBF0
:100EB0000EF7B0EB074072EB17420CFB08F734BF9C
:100EC000A2EB0742B2EB074261EB17414FEA8C55A8
:100ED0004FEA910704EB9C2406FB07FC4FEA1C4CED
:100EE0000CFB0BF7B0EBC74072EB573203FB0CF770
:100EF00034BFA2EBC742B2EBC74261EB57310CFBE8
:100F00000EF7B0EBC70072EB57720CFB08F734BF5B
:100F1000A2EBC702B2EBC70261EB577115EB4C2590
:100F20004FEA816141EA92114FEA82624FEAD1377A
:100F300042EA901206FB07FC44F100044FEA80608D
:100F40004FEA1C4C0CFB0BF7D21B03FB0CF761EBBD
:100F500007010CFB0EF7B0EB074072EB17420CFBDE
:100F600008F734BFA2EB0742B2EB074261EB17412F
:100F700015EB1C154FEA813141EA92414FEA82326A
:100F800042EA90424FEA80304FEA0C7644F1000486
:100F900048EA03434EEA0B484FF0000EB2EB080C50
:100FA00071EB030724BF624639464EEB0E0E4FF03D
:100FB000000B0018524149414BEB0B0BB2EB080CF4
:100FC00071EB03077BF1000B24BF624639464EEB01
:100FD0000E0E4FF0000B0018524149414BEB0B0B2A
:100FE000B2EB080C71EB03077BF1000B24BF6246E8
:100FF00039464EEB0E0E51EA020718BF46F00106C5
:1010000016EB0E7655F1000254F1000103D5BDE850
:101010008901BDE80088BDE88901BDE80048B6192E
:10102000524141EB0101A3F10103704780807F7EB3
:101030007D7C7B7A7978777676757473727171704E
:101040006F6E6E6D6C6C6B6A6A6968686766666500
:101050006464636362616160605F5F5E5E5D5D5C8E
:101060005C5B5B5A5A5959585857575656555555FF
:101070005454535352525251515050504F4F4F4E5F
:101080004E4D4D4D4C4C4C4B4B4B4A4A4A494949AD
:1010900048484847474747464646454545444444EF
:1010A000444343434342424242414141002B9C4618
:1010B00030D477002BD01CB54FEA370703B44FF07C
:1010C00010004FF01001BAF1000F06D0BCF1000F74
:1010D000DCBF40F0080040F008014FF000000FBCFA
:1010E000BDE810400BF1010BBBF1010F08BF5FEA37
:1010F000170722BF12F1010211F101014FF0004167
:1011000043F1000300F0004043EA00007047F9D3C8
:101110005708D0E746EA064613F1400F4FEA164655
:101120001FDD13F1200FDFBF16430A4600212033D5
:101130005B42BED0C3F1200746EA064602FA07F733
:101140004FEA164646EA0706C3F1200722FA03F2E1
:1011500001FA07F721FA03F14FF0000342EA070210
:10116000A7E746EA020646EA06464FEA164646EA78
:101170000106BCBF46EA0646360C4FF000034FF0AE
:1011800000024FF0000194E72DE9804C9A46934607
:1011900070B491E8380007C831EA400C48BF34EA1F
:1011A000430C03D5FFF7E6FDFFF780FFF0BCBDE879
:1011B000008C2DE9804C9A46934670B491E8380033
:1011C00007C810F0804F08BF13F0804F03D100F024
:1011D00005F8FFF76BFFF0BCBDE8008C20F07F47FF
:1011E00080EA030023F07F4C07EB0C03A3F57C534C
:1011F00000F00040A3F1FE0392F0000F00F0B38076
:1012000095F0000F00F077802DE901494FEA114079
:101210004FEA144621EA004800FB06FC24EA064790
:1012200008FB06F607FB08F800FB07F718EB064873
:101230004CEB164C4FEA124B18EB07484FEA154699
:101240004CEB174022EA0B4E0BFB06FC25EA064747
:101250000EFB06F607FB0EFE0BFB07F71EEB064E1A
:101260004CEB164C4FF000061EEB074E4CEB174BA9
:1012700018EB0B0840F1000018EB0E0B58EB0008C0
:1012800040F100008F1A4FF000013CBFC943661BBC
:1012900014BFB5EB040C00213CBFC943F61B4FEA59
:1012A00017444EEA8E0E27EA04454FEA1C4704FB1A
:1012B00007622CEA074C05FB07F70CFB05F604FB5D
:1012C0000CFC16EB074642EB174216EB0C4642EBC2
:1012D0001C421BEB060658EB0202414146EA9E0601
:1012E00001D5BDE80189B619524141EB0101A3F1D5
:1012F0000103BDE801894FEA14454FEA114724EA8A
:10130000054621EA074C05FB07F406FB07F70CFB33
:1013100006F105FB0CFC11EB074144EB17444FEAC7
:10132000124711EB0C4144EB1C4422EA074C05FB2D
:1013300007F206FB07F70CFB06F605FB0CFC16EBA9
:10134000074642EB174216EB0C4642EB1C456A1867
:1013500054F1000148BF7047B619524141EB0101F9
:10136000A3F10103704795F0000F37D04FEA114207
:101370004FEA144721EA024624EA074C02FB07F130
:1013800006FB07F70CFB06F402FB0CFC14EB07440E
:1013900041EB17414FEA154714EB0C4441EB1C415C
:1013A00025EA074C02FB07F506FB07F70CFB06F6E0
:1013B00002FB0CFC16EB074645EB174516EB0C46FB
:1013C00045EB1C42121951F1000148BF7047B61994
:1013D000524141EB0101A3F1010370474FEA14456B
:1013E0004FEA114724EA054621EA074C05FB07F1BD
:1013F00006FB07F70CFB06F24FF0000605FB0CFCA2
:1014000012EB074241EB174112EB0C4251EB1C412E
:1014100048BF7047921841EB0101A3F101037047E7
:1014200055494A6822F440324A604A6843681A4380
:101430004A600268526822F4807203685A60026847
:101440005368026943EA022203685A6002685268DC
:1014500022F0407203685A600268526883681A4337
:1014600003685A600268926822F4006203689A6016
:1014700002689268C3681A4303689A603F4B826AA5
:101480009A4218D00268926822F0706203689A60EB
:1014900002689268836A1A4303689A6002689268D5
:1014A00022F0405203689A6002689268C36A1A4345
:1014B00003689A600BE00268926822F07062036829
:1014C0009A600268926822F0405203689A6002684B
:1014D000926822F0020203689A6002689368027EB2
:1014E00043EA420203689A602022125CA2B10268B9
:1014F000526842F4006203685A600268526822F43B
:10150000604203685A6002685368426A521E43EAA6
:10151000423203685A6005E00268526822F40062B1
:1015200003685A600268D26A22F470020368DA62C1
:101530000268D36A828B521E43EA02520368DA625F
:101540000268926822F4007203689A6002689368E5
:1015500090F8302043EA422203689A600268926859
:1015600022F4806203689A6002689368426943EAE1
:10157000822203689A607047002301400100000F37
:1015800000BFFEE7704772B600BFFEE710B500F07F
:1015900025F80446B4F57A6F01DD032010BD40F252
:1015A0006C70844205DD40F69800844201DA042024
:1015B000F4E7B4F5617F04DDB4F5966F01DA01203C
:1015C000ECE740F2E240844205DD40F20E608442E6
:1015D00001DA0220E2E70020E0E7000010B5002475
:1015E000084800F0CDF90A21064800F061F918B961
:1015F000044800F0E5F884B2024800F04BFA2046B7
:1016000010BD0000240000200349087810B100211B
:10161000014A1170704700001C00002038B50246D6
:101620000020009000BF92F83C00012801D1022068
:1016300038BD012082F83C0000BF0868092816D98F
:101640001068C0680C780A3C04EB44050724AC40E1
:10165000A0431468E0600C780A3C04EB44048868FA
:10166000A0401468E46820431468E06013E0106848
:1016700000690C7804EB44050724AC40A0431468CF
:1016800020610C7804EB44048868A0401468246945
:101690002043146820614868072817D21068406BFF
:1016A0000C79641E04EB84051F24AC40A04314682D
:1016B0006063088880B20C79641E04EB8404A04047
:1016C0001468646B20431468606331E048680D2837
:1016D00017D21068006B0C79E41F04EB84051F24FB
:1016E000AC40A04314682063088880B20C79E41FE2
:1016F00004EB8404A0401468246B20431468206326
:1017000016E01068C06A0C790D3C04EB84051F24B8
:10171000AC40A0431468E062088880B20C790D3CAC
:1017200004EB8404A0401468E46A20431468E06277
:101730001E4B1F4C1068A0420AD10868122807D11E
:10174000586820F400005860586840F480005860E1
:10175000174C1068A04222D1164C0868A04202D053
:10176000086811281BD1586820F480005860586818
:1017700040F4000058600F4C0868A0420FD10E489A
:1017800000680E4CB0FBF4F000EB800040000090CD
:1017900002E00098401E009000980028F9D100BF98
:1017A000002082F83C0000BF00BF41E70023014059
:1017B00000200140120000101400002040420F00E1
:1017C00001460868C06C704770B5044600250CB926
:1017D000012070BD1549A06A884200D000BF206C6E
:1017E00030B9204600F024F80020606484F83C0002
:1017F000206C00F0100088B9206C20F4885040F074
:10180000020020642046FFF70BFE00206064206C7D
:1018100020F0020040F00100206400E0012500BF3C
:10182000002084F83C0000BF2846D2E70100000FEA
:1018300010B586B00446142101A8FEF753FE1949DD
:10184000206888422BD100BF002000901648006815
:1018500040F48070144908600846006800F4807005
:10186000009000BF00BF00BF002000900E48143859
:10187000006840F001000C4914390860084600680F
:1018800000F00100009000BF00BF0820019003207D
:1018900002900020039001A9044800F089F906B0E5
:1018A00010BD00000020014044380240000002400A
:1018B00070B504460D4600262068806800F48060FC
:1018C000B0F5806F11D12068806800F48070B0F5A9
:1018D000807F0AD1206C40F02000206400BF0020EF
:1018E00084F83C0000BF012070BD00F053FA0646AA
:1018F00018E0681CB0B125B100F04CFA801BA8427A
:1019000010D92068006800F0020002280AD0206C7C
:1019100040F00400206400BF002084F83C0000BFB9
:101920000320E1E72068006800F002000228E0D10F
:101930006FF0120021680860206C40F40070206491
:101940002068806800F04050B8B9207EA8B92068AF
:10195000C06A00F4700020B12068806800F48060E4
:1019600058B9206C20F480702064206C00F4805002
:1019700018B9206C40F0010020640020B4E700009A
:1019800008B501460020009000BF91F83C000128F6
:1019900001D1022008BD012081F83C0000BF086889
:1019A000806800F00100A0B90868806840F001007C
:1019B0000B68986033480068334BB0FBF3F000EBE2
:1019C0004000009002E00098401E0090009800281F
:1019D000F9D10868806800F00100002848D0086C40
:1019E00040F20163984340F48070086408684068DE
:1019F00000F4806028B1086C20F4005040F480505E
:101A00000864086C00F48050B0F5805F04D1486C25
:101A100020F00600486401E00020486400BF002078
:101A200081F83C0000BF194A6FF022000B68186073
:101A3000506800F01F0058B90868806800F04050F6
:101A4000F0B90868806840F080400B68986017E043
:101A50000F4B0868984213D10868806800F0405026
:101A600070B90868806840F080400B68986007E0B3
:101A7000086C40F010000864486C40F001004864B5
:101A8000002087E71400002040420F00002301409F
:101A900000200140014600BF91F83C00012801D11F
:101AA00002207047012081F83C0000BF0868806870
:101AB00020F001000A6890600868806800F001006A
:101AC00028B9086C20F4885040F00100086400BF79
:101AD000002081F83C0000BF00BFE2E770B504467B
:101AE000A56D00F057F9064694F83500022808D095
:101AF0008020606500BF002084F8340000BF012012
:101B000070BD2068006820F0160021680860206819
:101B1000406920F0800021684861206C08B9A06C01
:101B200028B12068006820F008002168086020685B
:101B3000006820F001002168086010E000F02AF938
:101B4000801B05280BD920206065032084F8350010
:101B500000BF002084F8340000BF0320D0E72068D5
:101B6000006800F001000028E8D194F85C103F20E4
:101B70008840A860012084F8350000BF002084F868
:101B8000340000BF00BFBBE7014691F835000228D2
:101B900003D08020486501207047052081F835007A
:101BA0000868006820F001000A6810600020F3E770
:101BB000F8B502460B460025002400200021C7E0AE
:101BC000012606FA01F51E6806EA0504AC4274D146
:101BD0001E7906F00306012E04D01E7906F00306D6
:101BE000022E13D190684F000326BE40B0434F0031
:101BF000DE68BE4030439060506801268E40B0439E
:101C00001E79C6F300168E40304350601E7906F0F0
:101C10000306032E09D0D0684F000326BE40B04310
:101C20004F009E68BE403043D0601E7906F0030628
:101C3000022E13D1CF0802F1200656F827004E07D6
:101C4000F70E0F26BE40B0434F07FF0E1E69BE4081
:101C50003043CF0802F1200646F8270010684F00F5
:101C60000326BE40B0431E7906F003064F00BE4077
:101C7000304310605E6806F44036002E67D000BF27
:101C800000260096344E366846F48046324F3E6059
:101C90003E46366806F48046009600BF00BF2F4ED1
:101CA0008F0856F827008E07370F0F26BE40B04327
:101CB0002B4EB24202D1002615E048E0294EB24236
:101CC00001D101260FE0284EB24201D102260AE0DE
:101CD000264EB24201D1032605E0254EB24201D183
:101CE000042600E007268F073F0FBE4030431B4EFF
:101CF0008F0846F827001F4E3068A0435E6806F440
:101D0000801606B120431B4E3060361D3068A0435C
:101D10005E6806F4001606B12043164E361D30608C
:101D2000144E361F3068A0435E6806F4003606B1D4
:101D30002043104E361F3060361F3068A0435E6867
:101D400006F4803606B120430A4E083E3060491C36
:101D50001029FFF435AFF8BD44380240083801407F
:101D6000000002400004024000080240000C024053
:101D700000100240083C0140024613690B400BB1C1
:101D8000012000E0002070470AB1816101E00B04EE
:101D90008361704701480068704700000800002018
:101DA00003480068034909780844014908607047FE
:101DB000080000201000002010B50D48006840F415
:101DC00000700B4908600846006840F480600860B5
:101DD0000846006840F480700860032000F0AAF80C
:101DE000032000F007F800F02BF8002010BD0000E1
:101DF000003C024070B504460E4800784FF47A71FA
:101E0000B1FBF0F00C490968B1FBF0F5284600F091
:101E100033FC08B1012070BD102C07D200222146EE
:101E2000501E00F049F80548046001E00120F2E787
:101E30000020F0E710000020140000200C0000201B
:101E400008B500BF002000901048006840F48040B2
:101E50000E4908600846006800F48040009000BF0A
:101E600000BF00BF00200090081F006840F08050B5
:101E7000091F08600846006800F08050009000BF0D
:101E800000BF052000F056F808BD000044380240AD
:101E90000146084600280DDB00BF00BF00F01F030D
:101EA00001229A4043099B0003F1E023C3F800217B
:101EB00000BF00BF00BF70472DE9F05F80460D46B0
:101EC0001646002702F07CF8074639462A46334674
:101ED00001F00700C0F1070ABAF1040F02D94FF070
:101EE000040A01E0C0F1070AD14600F1040ABAF180
:101EF000070F02D24FF0000A01E0A0F1030AD44616
:101F00004FF0010A0AFA09FAAAF1010A0AEA020ADA
:101F10000AFA0CFA4FF0010B0BFA0CFBABF1010BB8
:101F20000BEA030B4AEA0B042146404602F050F844
:101F3000BDE8F09F00BF00F00702064B19684FF69E
:101F4000FF031940044B0B4343EA0221014B196084
:101F500000BF70470CED00E00000FA0570B50446C4
:101F60000D460CB9012070BD5848006800F007000C
:101F7000A84209D255490D700846006800F00700D4
:101F8000A84201D00120EEE7207800F002000228EC
:101F90001DD1207800F00400042805D14C480068C9
:101FA00040F4E0504A490860207800F00800082812
:101FB00005D14748006840F46040454908604448FE
:101FC000006820F0F000A1680843414908602078CB
:101FD00000F00100A8B36068012807D13C48083828
:101FE0000068C0F34040B8B90120BCE7606802282F
:101FF00002D06068032807D1354808380068C0F36C
:10200000406048B90120AEE7314808380068C0F3A5
:10201000400008B90120A6E72D48006820F0030021
:10202000616808432A490860FFF7B4FE064609E0E4
:10203000FFF7B0FE801B41F28831884202D90320AD
:1020400091E707E02248006800F00C006168B0EBFF
:10205000810FEDD11D48006800F00700A84209D9A2
:102060001A490D700846006800F00700A84201D028
:10207000012078E7207800F00400042807D11448F4
:10208000006820F4E050E1680843114908602078B6
:1020900000F00800082808D10D48006820F46040CE
:1020A000216940EAC1000A49086000F03FF8084988
:1020B0000968C1F30311074A515CC840064908602A
:1020C00006480068FFF796FE00204CE7003C0240FF
:1020D00008380240D0420008140000200C00002004
:1020E00001480068704700001400002000B5FFF7A9
:1020F000F7FF04490968C1F38221034A515CC840D3
:1021000000BD000008380240E042000800B5FFF7BB
:10211000E7FF04490968C1F34231034A515CC840F2
:1021200000BD000008380240E04200082DE9F047F9
:10213000002400250026A1462548006800F00C0078
:1021400020B1042805D008283AD105E0DFF88490B2
:1021500039E0DFF8849036E01D48001F006800F089
:102160003F041B48001F006800F4800078B11A4843
:102170001749091F0968C1F38811A0FB01700146C6
:10218000224600233846FEF784F805460EE0114843
:102190000F49091F0968C1F38811A0FB01700146AE
:1021A000224600233846FEF774F805460848001F0B
:1021B0000068C0F30140401C4600B5FBF6F902E0A0
:1021C000DFF8109000BF00BF4846BDE8F087000070
:1021D000083802400024F40040787D01F8B5044638
:1021E0000CB90120F8BD207800F00100002874D05F
:1021F000F948006800F00C0004280DD0F64800688B
:1022000000F00C00082813D1F348001F006800F408
:102210008000B0F5800F0BD1EF4808380068C0F39C
:102220004040002859D06068002856D10120D9E7E5
:1022300000BF6068B0F5803F08D1E7480838006803
:1022400040F48030E449083908601EE06068B0F569
:10225000A02F0DD1E0480838006840F48020DE4906
:10226000083908600846006840F4803008600CE0D7
:10227000D9480838006820F48030D7490839086008
:102280000846006820F48020086000BF606890B1B4
:10229000FFF780FD054606E0FFF77CFD401B642844
:1022A00001D903209EE7CC4808380068C0F34040BD
:1022B0000028F1D011E0FFF76DFD054606E0FFF7BD
:1022C00069FD401B642801D903208BE7C248083808
:1022D0000068C0F340400028F1D1207800F00200EF
:1022E00002285FD1BC48006800F00C0058B1BA4821
:1022F000006800F00C0008281CD1B748001F0068D7
:1023000000F48000B0B9B44808380068C0F3400059
:1023100020B1E068012801D0012063E7AE48083809
:10232000006820F0F800216940EAC100AA49083994
:10233000086037E0E06800B30120A8490860FFF7B3
:1023400029FD054606E0FFF725FD401B022801D9BF
:10235000032047E7A04808380068C0F34000002881
:10236000F1D09D480838006820F0F800216940EA63
:10237000C10099490839086014E0002097490860B5
:10238000FFF708FD054606E0FFF704FD401B0228A5
:1023900001D9032026E7904808380068C0F34000C0
:1023A0000028F1D1207800F0080008282CD16069BD
:1023B000A8B101208A490860FFF7ECFC054606E059
:1023C000FFF7E8FC401B022801D903200AE78248F6
:1023D0006C300068C0F340000028F1D014E0002009
:1023E0007F490860FFF7D6FC054606E0FFF7D2FC00
:1023F000401B022801D90320F4E677486C300068BE
:10240000C0F340000028F1D1207800F00400042837
:1024100070D1002770483830006800F0805090B9C3
:1024200000BF002000906C483830006840F08050B9
:102430006949383108600846006800F08050009013
:1024400000BF00BF01276748006800F48070B0B982
:102450006448006840F4807062490860FFF79AFCA5
:10246000054606E0FFF796FC401B022801D9032031
:10247000B8E65C48006800F480700028F2D000BF25
:10248000A068012808D154486830006840F0010075
:102490005149683108601DE0A06805280DD14E48FB
:1024A0006830006840F004004B4968310860084615
:1024B000006840F0010008600CE0474868300068A0
:1024C00020F001004449683108600846006820F0A7
:1024D0000400086000BFA068A8B1FFF75BFC0546D8
:1024E00009E0FFF757FC401B41F28831884202D9CE
:1024F000032077E626E0384868300068C0F34000E3
:102500000028EED013E0FFF745FC054608E0FFF792
:1025100041FC401B41F28831884201D9032061E629
:102520002D4868300068C0F340000028EFD1012F2B
:1025300007D129483830006820F0805026493831CA
:10254000086000BFA069002845D02348006800F05B
:102550000C0008285DD0A069022845D100201F4941
:102560000866FFF717FC054606E0FFF713FC401B63
:10257000022801D9032035E6174808380068C0F35F
:1025800040600028F1D1D4E907010843616A40EABC
:1025900081110122A06AC2EB500041EA00412C20C7
:1025A000005D41EA00600C49091F086001200B49E9
:1025B0000866FFF7EFFB054606E0FFF7EBFB401B65
:1025C000022801D903200DE6034808380068C0F34B
:1025D00040600028F1D049E008380240000047423E
:1025E000800E474200700040002021490866FFF736
:1025F000D1FB054606E0FFF7CDFB401B022801D9C1
:102600000320EFE51B480068C0F340600028F2D1CA
:102610002CE0A069012800D1E4E51648001D0668F9
:10262000A069012820D006F48001E06981421BD115
:1026300006F03F01206A814216D147F6C070304053
:10264000616AB0EB811F0FD106F440310122A06A0C
:10265000C2EB5000B1EB004F06D106F070612C20A8
:10266000005DB1EB006F01D00120BBE50020B9E5B2
:10267000000047420038024070B504462546681EF7
:10268000B0F1807F01D301200FE0681E4FF0E02100
:1026900048610F214FF0FF3001F09AFC00204FF00D
:1026A000E021886107200861002070BD70477047F5
:1026B00010B504460CB9012010BD94F83D0028B9AE
:1026C000002084F83C00204600F026F8022084F820
:1026D0003D00211D206801F023F9012084F8460007
:1026E00000BF84F83E0001213F20015540200155E4
:1026F0004120015500BF00BF012084F84200432063
:102700000155442001554520015500BF012084F8A2
:102710003D000020D0E7000038B504461849206885
:10272000884218D100BF002000901648006840F48D
:102730008030144908600846006800F4803000903A
:1027400000BF00BF002202211820FFF7B5FB1820B0
:10275000FFF79EFB13E00C49206888420FD100BFB1
:10276000002000900748006840F480200549086078
:102770000846006800F48020009000BF00BF38BD0C
:10278000004001404438024000480140014691F8B1
:102790003D00012801D001207047022081F83D0052
:1027A000164B0868984213D00868B0F1804F0FD0DC
:1027B000134B086898420BD0124B0868984207D018
:1027C000114B0868984203D0104B086898420CD10E
:1027D0000868806800F00702062A0CD008680068C4
:1027E00040F001000B68186005E00868006840F0E0
:1027F00001000B6818600020CEE7000000000140D7
:102800000004004000080040000C0040004001406F
:10281000014600BF0868006A41F21112104050B929
:102820000868006A9210104028B90868006820F013
:1028300001000A68106000BF012081F83D000020FF
:1028400070472DE9F04104460D46002700BF94F87B
:102850003C00012802D10220BDE8F081012084F86B
:102860003C0000BF022084F83D002068866826F006
:10287000770626F47F46206886602868502833D083
:102880000CDC202850D004DC00284BD0102851D17B
:1028900049E0302849D040284CD139E060282DD07B
:1028A000702807D0B0F5805F03D0B0F5005F41D14C
:1028B0000DE041E0D5E902136A68206801F086F86E
:1028C0002068866846F077062068866034E0D5E99F
:1028D00002136A68206801F079F82068806840F483
:1028E00080402168886027E0EA686968206801F014
:1028F00081F85021206801F074F81DE0EA686968E9
:10290000206801F08AF86021206801F06AF813E07D
:10291000EA686968206801F06DF84021206801F0DC
:1029200060F809E000BF00BF00BF2968206801F01F
:1029300058F801E0012700BF00BF012084F83D00E6
:1029400000BF002084F83C0000BF384684E7704791
:1029500070B504462068C5682068066906F0020064
:10296000022819D105F00200022815D1401F216864
:102970000861012020772068806900F0030018B109
:102980002046FFF7E4FF05E0204600F097F82046D8
:1029900000F0C9F80020207706F00400042819D1BF
:1029A00005F00400042815D1C04321680861022005
:1029B00020772068806900F4407018B12046FFF746
:1029C000C6FF05E0204600F079F8204600F0ABF89D
:1029D0000020207706F00800082819D105F008002B
:1029E000082815D1C0432168086104202077206899
:1029F000C06900F0030018B12046FFF7A8FF05E00A
:102A0000204600F05BF8204600F08DF8002020778B
:102A100006F01000102819D105F01000102815D16B
:102A2000C04321680861082020772068C06900F44D
:102A3000407018B12046FFF78AFF05E0204600F0FD
:102A40003DF8204600F06FF80020207706F00100E6
:102A500048B105F0010030B16FF001002168086154
:102A6000204600F061F806F08000802809D105F0CA
:102A70008000802805D1C043216808612046FFF707
:102A800015FE06F04000402809D105F0400040281E
:102A900005D1C04321680861204600F0A5F806F082
:102AA0002000202809D105F02000202805D1C043AE
:102AB000216808612046FFF7FAFD70BD704770B5C8
:102AC00004460D460CB9012070BD94F83D0028B9AC
:102AD000002084F83C00204600F024F8022084F80E
:102AE0003D00211D206800F01BFF2068006820F0D9
:102AF0000800216808602068006828432168086091
:102B0000012084F8460084F83E0001213F20015551
:102B1000012084F8420043200155012084F83D0043
:102B20000020D1E77047704710B52DED028B0446A9
:102B300020492068884239D16FF001001E49096898
:102B400008611E484068401C1C494860084680686F
:102B5000401C8860084640680A2803D3002048606B
:102B600000F0B6FA15488068B0F5FA6F1ED3002061
:102B700012498860124800F0ABFC124800F018FDC2
:102B80001048006801F02CFB41EC180B53EC182B9B
:102B90000DA0FDF7F5FB0A48006801F021FB41ECB0
:102BA000180B53EC182B0CA0FDF7EAFBBDEC028BC5
:102BB00010BD0000004001406C00002044010020D6
:102BC0000400002000000020E6B8A9E5BAA63A25D6
:102BD0002E32660D0A000000E6B9BFE5BAA63A2516
:102BE0002E32660D0A0000007047704770470000E3
:102BF0002DE9F84F0446206805682068C6682068FB
:102C000047694FF00009CA4605F00F09B9F1000FF6
:102C10000AD105F0200038B106F0200020B120468E
:102C200000F05EFFBDE8F88FB9F1000F7CD007F02F
:102C3000010018B906F49070002875D005F0010065
:102C400030B106F4807018B1606C40F0010060642F
:102C500005F0040030B107F0010018B1606C40F0DD
:102C60000200606405F0020030B107F0010018B105
:102C7000606C40F00400606405F0080048B106F0A4
:102C8000200010B907F0010018B1606C40F0080096
:102C90006064606C002846D005F0200028B106F082
:102CA000200010B1204600F01BFF20684069C0F3EF
:102CB000801A606C00F0080010B9BAF1000F2DD036
:102CC000204600F0C7FE2068406900F04000402820
:102CD00020D100BF00BF2168143151E8001F21F04E
:102CE00040002168143141E80002002AF3D100BFFE
:102CF000E06B50B17F48E16B0865E06BFEF744FF85
:102D000088B1E06B016D88470DE02046FFF76EFF4C
:102D100009E009E02046FFF769FF04E02046FFF7DD
:102D200065FF002060647DE7206B012878D105F005
:102D30001000002874D006F010000028FAD000BF60
:102D40000020009020680068009020684068009093
:102D500000BF00BF2068406900F04000402870D1EB
:102D6000E06B006840681FFA80F8B8F1000F58D097
:102D7000A08D404555DDA4F82E80E06BC069B0F50C
:102D8000807F43D000BF00BF21680C3151E8001F95
:102D900021F4807021680C3141E80002002AF3D14F
:102DA00000BF00BF00BF2168143151E8001F21F0AF
:102DB00001002168143141E80002002AF3D100BF6C
:102DC00000BF00BF2168143151E8001F21F040000E
:102DD0002168143141E80002002AF3D100BF20200D
:102DE00084F842000020206300BF00BF21680C313E
:102DF00051E8001F21F0100021680C3141E8000269
:102E0000002AF3D100BFE06BFEF768FE022060638A
:102E1000A08DE28D801A81B22046FFF7E6FE0EE01B
:102E200052E0A08D40450AD1E06BC069B0F5807FCB
:102E300005D102206063A18D2046FFF7D6FEF1E6A2
:102E4000FFE7A08DE18D401A1FFA80F8E08DD0B326
:102E5000B8F1000F37D000BF00BF21680C3151E836
:102E6000001F21F4907021680C3141E80002002A13
:102E7000F3D100BF00BF00BF2168143151E8001F2B
:102E800021F001002168143141E80002002AF3D149
:102E900000BF202084F842000020206300BF00BF54
:102EA00021680C3151E8001F21F0100021680C311D
:102EB00041E80002002AF3D100BF022060634146CE
:102EC0002046FFF792FEADE605F0800030B106F037
:102ED000800018B1204600F0A7FFA3E605F04000EF
:102EE00030B106F0400018B1204600F0E9FD99E647
:102EF00000BF97E6433A000810B504460CB901201C
:102F000010BDA06900B100E000BF94F8410028B9ED
:102F1000002084F84000204600F02AF8242084F89D
:102F200041002068C06820F400502168C860204635
:102F300000F064FE2068006920F490402168086178
:102F40002068406920F02A00216848612068C06834
:102F500040F400502168C86000206064202084F89C
:102F6000410084F842000020606300BFC8E7000011
:102F700010B586B00446142101A8FDF7B3FA1F4925
:102F80002068884238D100BF002000901C480068AB
:102F900040F010001A4908600846006800F0100070
:102FA000009000BF00BF00BF0020009014481438FC
:102FB000006840F0010012491439086008460068B2
:102FC00000F00100009000BF00BF4FF4C06001900E
:102FD0000220029000200390032004900720059017
:102FE00001A90848FEF7E4FD022211462520FEF75C
:102FF00063FF2520FEF74CFF06B010BD0010014016
:10300000443802400000024070472DE9F84F044662
:103010000E46174699464FF0000A94F841002028C2
:1030200050D106B117B90120BDE8F88F00206064C7
:10303000212084F84100FEF7ADFE8246A784E78494
:10304000A068B0F5805F04D1206910B90025B046B2
:1030500002E035464FF000081EE053460022802172
:103060002046CDF8009000F00FFF20B1202084F81A
:1030700041000320D8E745B9B8F80000C0F30800C4
:103080002168486008F1020803E028782168486058
:103090006D1CE08C401EE084E08C0028DDD153469E
:1030A000002240212046CDF8009000F0EDFE20B136
:1030B000202084F841000320B6E7202084F8410056
:1030C0000020B1E70220AFE7704700BFFEE7000035
:1030D00070B5FEF75BFA05463E480078854220D081
:1030E0003C480078D8B9D5B1012D06D0022D08D0C2
:1030F000032D0AD0042D10D10BE0012036490870B1
:103100000CE002203449087008E0032032490870BE
:1031100004E004203049087000E000BF00BF2D48E3
:10312000057001212D48FEF727FE04462C48008833
:10313000401C2B4908802B480078052847D2DFE83F
:1031400000F0030C1A2D4100012C05D10020244968
:10315000088001202349087039E0012C07D120485C
:103160000088022806DB02201E49087002E00020C9
:103170001C4908702BE034B900201949088003204D
:103180001849087009E016480088462805DB042025
:103190001449087007201049087018E0104800888A
:1031A0001E2806DD05200C49087000200D49087016
:1031B00007E0012C05D106200749087004200949C1
:1031C000087004E014B900200649087000BF00BF71
:1031D00070BD00001D0000201C0000200000024007
:1031E000200000201E0000201FB50020009001904C
:1031F000029003901548164908604FF480304860EB
:103200000021134881600161017680F82010C162BD
:10321000104981620021C1600121C161002180F853
:10322000301001214161FEF7CFFA08B1FEF7ABF98A
:10323000032000900120019000200290694604487C
:10324000FEF7ECF908B1FEF79EF91FBD0020014022
:10325000240000200100000F00B587B0142102A84F
:10326000FDF740F900BF002001903C48006840F0A5
:1032700004003A4908600846006800F00400019024
:1032800000BF00BF00BF002001900846006840F06A
:10329000800008600846006800F08000019000BFD0
:1032A00000BF00BF002001900846006840F0010008
:1032B00008600846006800F00100019000BF00BFF0
:1032C00000BF002001900846006840F0020008603E
:1032D0000846006800F00200019000BF00BF012214
:1032E00080211F48FEF750FD00224FF480611D48E9
:1032F000FEF74AFD01224FF440711A48FEF744FDE3
:103300000120029000200390049002A91448FEF7C7
:103310004FFC802002900120039000200490059033
:1033200002A90F48FEF744FC4FF480600290012090
:10333000039000200490059002A90A48FEF738FC8B
:103340004FF44070029011200390002004900590EB
:1033500002A90448FEF72CFC07B000BD303802403B
:10336000000002400004024010B50E480E490860FB
:103370004FF47A70486000210B4881604FF6FF716E
:10338000C1600021016180218161FFF791F908B1DD
:10339000FEF7F9F808210448FFF791FB08B1FEF7A2
:1033A000F2F810BD00480140B40000201FB5002015
:1033B0000090019002900390144815490860632022
:1033C000486000211248816040F2E731C16000216D
:1033D00001618161FFF76CF908B1FEF7D4F84FF491
:1033E0008050009069460A48FFF72BFA08B1FEF7B3
:1033F000CAF807480068C06840F00100044909683D
:10340000C8600348FFF7C2F91FBD0000004001403B
:103410006C00002010B51748174908604FF4E130E0
:103420004860002114488160C16001610C21416144
:1034300000218161C161FFF75FFD08B1FEF7A3F8CC
:103440000D480068C06840F020000B490968C8605A
:1034500009480068C06840F0100007490968C86062
:1034600005480068C06840F4005003490968C86016
:1034700010BD000000100140FC00002000BFFEE76E
:1034800000BFFEE7704710B500F0C0F8002400F060
:1034900097F9802000F05AF900F0C6F80446012C94
:1034A00003D100F0B1F9012010BDFE2000F04EF96B
:1034B00000F0BAF80446012C03D100F0A5F902206F
:1034C000F2E700F0A1F9142000F0A0FD0020EBE7E6
:1034D00038B504466946F52000F024F808B101200B
:1034E00038BDBDF800004FF6FC7108400090BDF8F3
:1034F000000000EE100AB8EE400ADFED080A60EEA8
:10350000200A9FED071A80EE810AF9EE080A30EED4
:10351000200A84ED000A0020E2E700000000FA42E1
:10352000000080472DE9F04180460D46002400F060
:1035300047F9802000F00AF900F076F80446012CE3
:1035400004D100F061F90120BDE8F081404600F0AF
:10355000FDF800F069F80446012C03D100F054F99D
:103560000220F1E700F050F9642000F04FFD00F078
:1035700027F9812000F0EAF800F056F80446012C03
:1035800003D100F041F90120DEE700F077F80646AC
:10359000002000F0A9F800F071F80746012000F0C3
:1035A000A3F800F031F947EA062028800020CBE795
:1035B00038B504466946F320FFF7B4FF08B101208F
:1035C00038BDBDF800004FF6FC7108400090BDF812
:1035D000000000EE100AB8EE400ADFED080A60EEC7
:1035E000200A9FED071A80EE810ADFED060A30EE11
:1035F000200A84ED000A0020E2E7000052B82F43C1
:103600000000804766663BC27047000010B501228B
:1036100011020448FEF7B8FB012251020148FEF7EF
:10362000B3FB10BD0004024010B500224FF48071BE
:103630001148FEF7A9FB012251020F48FEF7A4FB37
:10364000052000F00FFD012211020B48FEF79CFB44
:10365000052000F007FD4FF400710748FEF78CFBD2
:10366000044600224FF480710348FEF78DFB0520CD
:1036700000F0F8FC204610BD0004024070B50024A4
:10368000012251021748FEF77FFB00251CE060066F
:10369000040E00224FF480711248FEF775FB0520DE
:1036A00000F0E0FC012211020E48FEF76DFB052040
:1036B00000F0D8FC4FF400710A48FEF75DFB08B13A
:1036C00044F00104681CC5B2082DE0DB00224FF471
:1036D00080710448FEF758FB052000F0C3FC20462B
:1036E00070BD00000004024010B5044600224FF4F3
:1036F00080711548FEF748FB052000F0B3FC2CB1A3
:10370000012251021048FEF73FFB05E000224FF472
:1037100000710D48FEF738FB012211020A48FEF73E
:1037200033FB052000F09EFC00224FF48071064818
:10373000FEF72AFB012251020348FEF725FB052074
:1037400000F090FC10BD00000004024070B504467B
:10375000002526E000224FF480711848FEF714FB84
:10376000052000F07FFC04F0800028B10122510206
:103770001248FEF709FB05E000224FF400710F48E4
:10378000FEF702FB6006040E052000F06BFC012230
:1037900011020A48FEF7F8FA052000F063FC681CE5
:1037A000C5B2082DD6DB00224FF480710348FEF726
:1037B000EBFA052000F056FC70BD0000000402404A
:1037C00010B5012251020F48FEF7DEFA0122110264
:1037D0000C48FEF7D9FA052000F044FC00224FF413
:1037E00000710848FEF7D0FA052000F03BFC0022EB
:1037F0004FF480710348FEF7C7FA052000F032FC51
:1038000010BD00000004024010B500224FF400710A
:103810000B48FEF7B9FA052000F024FC0122110242
:103820000748FEF7B1FA052000F01CFC0122510206
:103830000348FEF7A9FA052000F014FC10BD0000B3
:103840000004024010B5FEF7ABFA10BD00B593B00E
:10385000302107A8FCF746FE142102A8FCF742FE1F
:1038600000BF002001902348006840F080502149AB
:1038700008600846006800F08050019000BF00BF5B
:1038800000BF002001901C48006840F440401A49E5
:1038900008600846006800F44040019000BF00BF87
:1038A000012007900004089002200D9041050E9120
:1038B0000C210F916021109102211191042112918C
:1038C00007A8FEF78BFC08B1FDF75DFE0F20029004
:1038D00002200390002004904FF4805005900020B7
:1038E0000690032102A8FEF739FB08B1FDF74BFE55
:1038F00013B000BD4038024000700040034800682B
:1039000040F47000014908607047000088ED00E055
:1039100010B50248FFF71CF810BD00006C00002035
:1039200010B50268224B98420BD0B0F1804F08D0FE
:10393000204B984205D0204B984202D01F4B984212
:1039400003D122F070024B681A43194B984214D0ED
:10395000B0F1804F11D0174B98420ED0164B9842C1
:103960000BD0164B984208D0154B984205D0154BFA
:10397000984202D0144B984203D122F44072CB6893
:103980001A4322F080034C6943EA04028B68C36245
:103990000B688362064B984201D10B69036303688D
:1039A00043F00403036001234361026010BD000083
:1039B000000001400004004000080040000C0040EE
:1039C00000400140004401400048014030B50C4631
:1039D000816821F47F4142EA032525432943816020
:1039E00030BD0A46816821F0700142F00703194397
:1039F0008160704730B50B461446026A056A25F0AF
:103A000001050562816921F0F00141EA041122F00B
:103A10000A021A438161026230BD30B50B4614467A
:103A2000026A056A25F010050562816921F470417A
:103A300041EA043122F0A00242EA031281610262EB
:103A400030BD70B50446A56B0020E8852846FFF719
:103A5000CDF870BD00BF00BF02680C3252E8002FE5
:103A600022F4907102680C3242E80013002BF3D16B
:103A700000BF00BF00BF0268143252E8002F22F0DE
:103A800001010268143242E80013002BF3D100BF99
:103A9000016B01290ED100BF00BF02680C3252E851
:103AA000002F22F0100102680C3242E80013002BB4
:103AB000F3D100BF202180F842100021016370473C
:103AC00010B504462068C06820F040002168C86036
:103AD000202084F841002046FFF7F6FA002010BDB0
:103AE000F8B504460025002694F84200222873D138
:103AF000A068B0F5805F0BD1206948B9A66A20683C
:103B00004068C0F308003080A06A801CA06214E006
:103B1000A56AA068B0F5805F03D0A06828B92069C5
:103B200018B920684068287004E02068406800F0F8
:103B30007F002870A06A401CA062E08D401E80B209
:103B4000E085002846D12068C06820F02000216868
:103B5000C8602068C06820F480702168C860206850
:103B6000406920F0010021684861202084F842006B
:103B700000206063206B012826D10020206300BF55
:103B800000BF21680C3151E8001F21F010002168AE
:103B90000C3141E80002002AF3D100BF2068006820
:103BA00000F0100010280AD100BF0020009020680B
:103BB0000068009020684068009000BF00BFA18DA1
:103BC0002046FFF712F802E02046FFF71DFA00201A
:103BD000F8BD01E00020FBE70220F9E770B50446DC
:103BE0002046FCF760FC85B24FF4FA732A46214662
:103BF0000148FFF70AFA70BDFC0000202DE9F84FDC
:103C000004462068006920F44050E16808432168B8
:103C100008612169A068084361690843E1690843B4
:103C200000902068C06849F20C61884300990843FD
:103C30002168C8602068406920F44070A169084389
:103C40002168486176492068884203D07549206818
:103C5000884203D1FEF75AFA814602E0FEF746FA9F
:103C60008146E069B0F5004F6CD102206168A0FB8D
:103C7000015003461920A9FB007001462A46384628
:103C8000FCF707FB6421B0FBF1F04FEA001A0220B9
:103C90006168A0FB01510B461920A9FB00712A465F
:103CA0003846FCF7F6FA834602206168A0FB015013
:103CB00003461920A9FB00712A463846FCF7E9FAA9
:103CC0006421B0FBF1F000EBC00101EB0010ABEBA5
:103CD0008000322101EBC0006421B0FBF1F000F064
:103CE000F8000AEB400A02206168A0FB015003467D
:103CF0001920A9FB007001462A463846FCF7C9FA8C
:103D0000834602206168A0FB015003461920A9FBED
:103D100000712A463846FCF7BCFA6421B0FBF1F08A
:103D200000EBC00101EB0010ABEB8000322101EB96
:103D3000C0006421B0FBF1F000F00700504421689E
:103D400088606AE004206168A0FB015003461920E6
:103D5000A9FB007001462A463846FCF79AFA8246CB
:103D600004206168A0FB015003461920A9FB0070E4
:103D700001462A463846FCF78CFA6421B0FBF1F084
:103D800000EBC00101EB0010AAEB8000322101EB37
:103D900000106421B0FBF1F000F0F00A042061682B
:103DA000A0FB017003461920A9FB00513A462846A2
:103DB000FCF76FFA6421B0FBF1F00AEB001A042063
:103DC0006168A0FB01510B461920A9FB00712A462E
:103DD0003846FCF75EFA834604206168A0FB015078
:103DE00003461920A9FB007001462A463846FCF715
:103DF00050FA6421B0FBF1F000EBC00101EB0010C0
:103E0000ABEB8000322101EB00106421B0FBF1F03C
:103E100000F00F00504421688860BDE8F88F000072
:103E20000010014000140140014691F84100212892
:103E300028D18868B0F5805F0BD1086948B90A6A53
:103E40001088C0F308000B685860086A801C08627C
:103E500005E00B6A581C086218780B685860C88C1B
:103E6000401E80B2C88458B90868C06820F080003D
:103E70000B68D8600868C06840F040000B68D860E4
:103E8000002070470220FCE72DE9F84304460D4668
:103E900017469846089E31E0701C70B3FDF77AFF14
:103EA000A0EB0800B04200D816B90320BDE8F883A3
:103EB0002068C06800F00400F8B1802D1ED0402DAD
:103EC0001CD020680068C0F3C000B0B100BF002063
:103ED000009020680068009020684068009000BF53
:103EE00000BF2046FFF7B6FD0820606400BF002039
:103EF00084F8400000BF0120D8E7FFE72068006891
:103F00002840A84201D1012000E00020B842C3D0DF
:103F10000020CBE710B51B480068006800F02000C7
:103F200020280BD1174800684068C4B21648417871
:103F30004078401C144A5070901C4454114800684A
:103F4000006800F01000102817D10E4800680068C3
:103F50000C48006840680C48407800280DDD0120BE
:103F600009490870002108484278801C81540020CB
:103F700005494870881CFFF731FE0248FEF738FEFD
:103F800010BD0000FC0000205801002000BFFEE72B
:103F900003B401984100009850EAC12018BF0420E2
:103FA0004A0D18BF40F0010040F2FF72B2EB515FC2
:103FB00008BF40F00200012808BF052002B070478A
:103FC00002480068C0F30220704700000CED00E0DA
:103FD00010B5002804DB0A07130E054A135406E047
:103FE0000A07140E034A00F00F031B1FD45410BD20
:103FF00000E400E018ED00E030380A2801D201208A
:10400000704700207047014600BF704710B5044656
:1040100004EB84004000401E1149C86042F20F705A
:1040200048600020096848620D48FEF741FB6FF0C8
:1040300001000B49096808610948FEF7A7FB00BFAA
:1040400007480068006900F001000028F8D0044823
:10405000FEF7DEFB6FF0010001490968086110BD41
:10406000B400002010B50446601E1149C8606320EA
:1040700048600020096848620D48FEF719FB6FF0A0
:1040800001000B49096808610948FEF77FFB00BF82
:1040900007480068006900F001000028F8D00448D3
:1040A000FEF7B6FB6FF0010001490968086110BD19
:1040B000B400002000BF064A1268126802F04002F5
:1040C000002AF8D0C2B2024B1B685A607047000049
:1040D000FC000020FDF770FEFFF7B8FBFFF7BCF80F
:1040E000FFF798F9FFF762F9FFF73EF9FFF77CF861
:1040F000FFF7C9F918A0FFF771FD2BE0FDF784FA6F
:104100000446002C25D0082C21D2DFE804F020043E
:10411000080C1014181C12A0FCF732F918E010A0BB
:10412000FCF72EF914E00EA0FCF72AF910E00CA021
:10413000FCF726F90CE00FA0FCF722F908E014A028
:10414000FCF71EF904E00BA0FCF71AF900E000BF31
:1041500000BF00BFD2E70000456E7465720D0A0013
:10416000D2A1EFBFBDEFBFBD3A20EFBFBDEFBFBDD6
:104170000D0A00004F4BEFBFBDEFBFBD3A20EFBFB0
:10418000BDEFBFBDEFBFBDEFBFBD0D0A000000001A
:104190004F4BEFBFBDEFBFBD3A20CBABEFBFBDEF85
:1041A000BFBD0D0A0000000010B500290AD0087834
:1041B000002807D005487844FCF72AFD002801D0E4
:1041C000002010BD0248784410BD0000E601000048
:1041D000DE0100000808A0F500114FEA3101704728
:1041E00043004FEAD30C4FEA3C0C43401FBF40074B
:1041F0000CF1605113F0FE4F70471CF0006F03D1BB
:1042000000200CF0004170470CF0004343EA50706E
:1042100010B540EACC0000F00EF800BF000000929C
:104220004FEA0001FFF7D6BF4FF000414FF000000A
:10423000A1F5002170470EF1020E2EF0030E5EF87C
:10424000044B244204D44FEA4102B2F17F4F11D80B
:104250004FEA4003B3F17F4F0CD80ED14FEAD07C28
:10426000B2F17F4F0CEB4C0C0CF1020C08BF4CEB85
:10427000D17C04E04FF0080C01E04FEAD17C0CEB5C
:104280004C0324FA03F404F00704B4F1040C06D23E
:104290000EEB840CBDE810404CF0010C6047DFE8E9
:1042A0000CF0070802024FF00040A0F5800010BD9E
:1042B0000846420018BFD2F1807288BF00F000406B
:1042C00010BD4FF04070E1EE100A7047FCF70EBAD7
:1042D00000000000000000000102030406070809B6
:1042E000000000000102030402400000000000A0E2
:1042F0000000000005400000000000C800000000B1
:104300000C4000000000409C00000000194000002C
:104310000020BCBE0000000034400000BFC91B8E5E
:1043200000000004B5400000504BCFD06607E2CF3C
:10433000010000006C4100003E8251AADFEEA7346C
:1043400001000000D9420000DCB5A0E23A301F971E
:10435000FFFFFFFFB4450000FD25A0C8E9A3C14F42
:10436000FFFFFFFFFF3F0000000000800000000093
:10437000FF3F00000000008000000000B84300087C
:104380000000002024000000D4010008DC430008E5
:1043900024000020B4070000F00100081C00000009
:1043A00043000000F8FFFFFF0C0000000E000000BB
:1043B0000F0000002E0000000000000000000000C0
:1043C0000000000010000000010000000024F400C4
:0C43D000000000000000000000000000E1
:040000050800019955
:00000001FF
