:020000040800F2
:100000003008002039020008E5270008E72300082F
:10001000E1270008C10500088D3400080000000039
:10002000000000000000000000000000D92B0008C4
:10003000C505000800000000192A0008452D000829
:10004000530200085302000853020008530200083C
:10005000530200085302000853020008530200082C
:10006000530200085302000853020008530200081C
:10007000530200085302000853020008530200080C
:100080005302000853020008530200080000000059
:100090000000000000000000000000005302000803
:1000A000112E0008530200085302000853020008F2
:1000B00053020008530200085302000853020008CC
:1000C00053020008530200085302000853020008BC
:1000D0005302000815340008530200080000000015
:1000E00053020008530200085302000800000000F9
:1000F00000000000000000000000000053020008A3
:1001000000000000530200085302000853020008D8
:1001100000000000000000000000000000000000DF
:10012000530200085302000853020008530200085B
:100130005302000800000000000000000000000062
:100140000000000000000000000000005302000852
:10015000530200085302000853020008530200082B
:1001600053020008530200080000000000000000D5
:10017000000000000000000000000000000000007F
:100180000000000053020008000000000000000012
:10019000530200085302000800F002F800F03CF897
:1001A0000AA090E8000C82448344AAF10107DA45D2
:1001B00001D100F031F8AFF2090EBAE80F0013F0E8
:1001C000010F18BFFB1A43F0010318471C6D000014
:1001D0003C6D0000103A24BF78C878C1FAD85207A5
:1001E00024BF30C830C144BF04680C6070470000B1
:1001F0000023002400250026103A28BF78C1FBD830
:10020000520728BF30C148BF0B6070471FB503F0CD
:10021000D1F91FBD10B510BD00F0F0F81146FFF781
:10022000F5FF03F0A9F900F00EF903B4FFF7F2FFB0
:1002300003BC03F049F9000009488047094800471A
:10024000FEE7FEE7FEE7FEE7FEE7FEE7FEE7FEE786
:10025000FEE7FEE704480549054A064B70470000E3
:10026000FD2D000899010008300200203008002010
:100270003004002030040020704753EA020C00F0E4
:1002800069802DE9F04B4FF00006002B1FBFB3FA39
:1002900083F503FA05F424FA05F65E4012BF16430F
:1002A000B2FA82F502FA05F4C5F120051EBF22FA62
:1002B00005FC44EA0C04203556EA044C4FEA144489
:1002C00018BF641C4FF000084FF00009904271EB1A
:1002D000030C39D3002919BFB1FA81F701FA07F6E7
:1002E000B0FA80F700FA07F6C7F120071EBF20FA20
:1002F00007FC46EA0C062037B6FBF4FCA7EB050723
:10030000103F07F01F0BCBF120060CFA0BFB2CFA69
:1003100006F644BFB3460026202FA4BF5E464FF02A
:10032000000B5BEA060C08BF4FF0010B19EB0B0941
:10033000ABFB027C48EB0608C01B06FB02CC0BFBA8
:1003400003CC71EB0C01C1E70B460246414648461F
:10035000BDE8F08B13B54FF000004FF00001AFF394
:100360000080BDE81C40704710B5431C02E010F847
:10037000011B71B18107FAD14FF0013202C88C1A0A
:100380008C4314EAC211F9D0C01A0A0603D0C01E69
:1003900010BDC01A10BD0A0401D0801E10BD090294
:1003A000FCD0401E10BD4FF0000200B5134694462D
:1003B0009646203922BFA0E80C50A0E80C50B1F1BD
:1003C0002001BFF4F7AF090728BFA0E80C5048BFD1
:1003D0000CC05DF804EB890028BF40F8042B08BF6F
:1003E000704748BF20F8022B11F0804F18BF00F86B
:1003F000012B70477047704770477047754600F093
:100400002BF8AE4605006946534620F007008546A6
:1004100018B020B5FFF71EFFBDE820404FF00006E2
:100420004FF000074FF000084FF0000B21F00701DC
:10043000AC46ACE8C009ACE8C009ACE8C009ACE81F
:10044000C0098D46704710B50446AFF300802046C2
:10045000BDE81040FFF7E9BE00487047D00100201A
:1004600055494A6822F440324A604A6843681A4350
:100470004A600268526822F4807203685A60026817
:100480005368026943EA022203685A6002685268AC
:1004900022F0407203685A600268526883681A4307
:1004A00003685A600268926822F4006203689A60E6
:1004B00002689268C3681A4303689A603F4B826A75
:1004C0009A4218D00268926822F0706203689A60BB
:1004D00002689268836A1A4303689A6002689268A5
:1004E00022F0405203689A6002689268C36A1A4315
:1004F00003689A600BE00268926822F070620368F9
:100500009A600268926822F0405203689A6002681A
:10051000926822F0020203689A6002689368027E81
:1005200043EA420203689A602022125CA2B1026888
:10053000526842F4006203685A600268526822F40A
:10054000604203685A6002685368426A521E43EA76
:10055000423203685A6005E00268526822F4006281
:1005600003685A600268D26A22F470020368DA6291
:100570000268D36A828B521E43EA02520368DA622F
:100580000268926822F4007203689A6002689368B5
:1005900090F8302043EA422203689A600268926829
:1005A00022F4806203689A6002689368426943EAB1
:1005B000822203689A607047002301400100000F07
:1005C00000BFFEE7704772B600BFFEE710B500F04F
:1005D00025F80446B4F57A6F01DD032010BD40F222
:1005E0006C70844205DD40F69800844201DA0420F4
:1005F000F4E7B4F5617F04DDB4F5966F01DA01200C
:10060000ECE740F2E240844205DD40F20E608442B5
:1006100001DA0220E2E70020E0E7000010B5002444
:10062000084800F0C3F90A21064800F057F918B944
:10063000044800F0DBF884B2024800F041FA20469A
:1006400010BD00002400002038B5024600200090B4
:1006500000BF92F83C00012801D1022038BD0120E2
:1006600082F83C0000BF0868092816D91068C068E5
:100670000C780A3C04EB44050724AC40A043146802
:10068000E0600C780A3C04EB44048868A0401468DD
:10069000E46820431468E06013E0106800690C7897
:1006A00004EB44050724AC40A043146820610C7897
:1006B00004EB44048868A04014682469204314684B
:1006C00020614868072817D21068406B0C79641EB7
:1006D00004EB84051F24AC40A043146860630888C1
:1006E00080B20C79641E04EB8404A0401468646B2F
:1006F00020431468606331E048680D2817D2106801
:10070000006B0C79E41F04EB84051F24AC40A0436C
:1007100014682063088880B20C79E41F04EB840419
:10072000A0401468246B20431468206316E010680E
:10073000C06A0C790D3C04EB84051F24AC40A04337
:100740001468E062088880B20C790D3C04EB8404E4
:10075000A0401468E46A20431468E0621E4B1F4CFA
:100760001068A0420AD10868122807D1586820F4FE
:1007700000005860586840F480005860174C1068BA
:10078000A04222D1164C0868A04202D00868112865
:100790001BD1586820F480005860586840F400006D
:1007A00058600F4C0868A0420FD10E4800680E4CEC
:1007B000B0FBF4F000EB80004000009002E00098F5
:1007C000401E009000980028F9D100BF002082F858
:1007D0003C0000BF00BF41E7002301400020014072
:1007E000120000101800002040420F000146086867
:1007F000C06C704770B5044600250CB9012070BD6F
:100800001549A06A884200D000BF206C30B920464C
:1008100000F024F80020606484F83C00206C00F0B4
:10082000100088B9206C20F4885040F00200206449
:100830002046FFF715FE00206064206C20F00200C7
:1008400040F00100206400E0012500BF002084F892
:100850003C0000BF2846D2E70100000F10B586B06B
:100860000446142101A8FFF79EFD1949206888421B
:100870002BD100BF002000901648006840F4807023
:10088000144908600846006800F48070009000BFBA
:1008900000BF00BF002000900E481438006840F0F0
:1008A00001000C49143908600846006800F0010096
:1008B000009000BF00BF082001900320029000209C
:1008C000039001A9044800F089F906B010BD0000AA
:1008D00000200140443802400000024070B5044648
:1008E0000D4600262068806800F48060B0F5806FB7
:1008F00011D12068806800F48070B0F5807F0AD143
:10090000206C40F02000206400BF002084F83C00F0
:1009100000BF012070BD00F053FA064618E0681CC5
:10092000B0B125B100F04CFA801BA84210D9206864
:10093000006800F0020002280AD0206C40F0040099
:10094000206400BF002084F83C0000BF0320E1E7E2
:100950002068006800F002000228E0D16FF0120069
:1009600021680860206C40F4007020642068806872
:1009700000F04050B8B9207EA8B92068C06A00F4E1
:10098000700020B12068806800F4806058B9206C45
:1009900020F480702064206C00F4805018B9206C22
:1009A00040F0010020640020B4E7000008B50146D3
:1009B0000020009000BF91F83C00012801D10220E6
:1009C00008BD012081F83C0000BF0868806800F085
:1009D0000100A0B90868806840F001000B689860C9
:1009E00033480068334BB0FBF3F000EB400000905D
:1009F00002E00098401E009000980028F9D1086895
:100A0000806800F00100002848D0086C40F20163C3
:100A1000984340F4807008640868406800F480607F
:100A200028B1086C20F4005040F480500864086C31
:100A300000F48050B0F5805F04D1486C20F00600CF
:100A4000486401E00020486400BF002081F83C00B9
:100A500000BF194A6FF022000B681860506800F060
:100A60001F0058B90868806800F04050F0B9086865
:100A7000806840F080400B68986017E00F4B086872
:100A8000984213D10868806800F0405070B9086837
:100A9000806840F080400B68986007E0086C40F088
:100AA00010000864486C40F001004864002087E7AB
:100AB0001800002040420F000023014000200140A8
:100AC000014600BF91F83C00012801D10220704787
:100AD000012081F83C0000BF0868806820F0010018
:100AE0000A6890600868806800F0010028B9086C06
:100AF00020F4885040F00100086400BF002081F815
:100B00003C0000BF00BFE2E770B50446A56D00F0F1
:100B100057F9064694F83500022808D08020606511
:100B200000BF002084F8340000BF012070BD2068A1
:100B3000006820F01600216808602068406920F0F5
:100B4000800021684861206C08B9A06C28B1206839
:100B5000006820F00800216808602068006820F024
:100B600001002168086010E000F02AF9801B0528C8
:100B70000BD920206065032084F8350000BF0020D9
:100B800084F8340000BF0320D0E72068006800F03C
:100B900001000028E8D194F85C103F208840A8604C
:100BA000012084F8350000BF002084F8340000BF25
:100BB00000BFBBE7014691F83500022803D0802032
:100BC000486501207047052081F8350008680068F5
:100BD00020F001000A6810600020F3E7F8B5024633
:100BE0000B460025002400200021C7E0012606FA5C
:100BF00001F51E6806EA0504AC4274D11E7906F0C0
:100C00000306012E04D01E7906F00306022E13D12E
:100C100090684F000326BE40B0434F00DE68BE40E0
:100C200030439060506801268E40B0431E79C6F371
:100C300000168E40304350601E7906F00306032EE6
:100C400009D0D0684F000326BE40B0434F009E68D5
:100C5000BE403043D0601E7906F00306022E13D149
:100C6000CF0802F1200656F827004E07F70E0F2690
:100C7000BE40B0434F07FF0E1E69BE403043CF0851
:100C800002F1200646F8270010684F000326BE40F8
:100C9000B0431E7906F003064F00BE40304310609B
:100CA0005E6806F44036002E67D000BF002600962E
:100CB000344E366846F48046324F3E603E463668D3
:100CC00006F48046009600BF00BF2F4E8F0856F8EE
:100CD00027008E07370F0F26BE40B0432B4EB2427F
:100CE00002D1002615E048E0294EB24201D101268A
:100CF0000FE0284EB24201D102260AE0264EB2424F
:100D000001D1032605E0254EB24201D1042600E0C0
:100D100007268F073F0FBE4030431B4E8F0846F813
:100D200027001F4E3068A0435E6806F4801606B1A7
:100D300020431B4E3060361D3068A0435E6806F4C9
:100D4000001606B12043164E361D3060144E361F75
:100D50003068A0435E6806F4003606B12043104EAA
:100D6000361F3060361F3068A0435E6806F4803658
:100D700006B120430A4E083E3060491C1029FFF49A
:100D800035AFF8BD44380240083801400000024049
:100D90000004024000080240000C02400010024023
:100DA000083C0140024613690B400BB1012000E0F2
:100DB000002070470AB1816101E00B048361704734
:100DC00001480068704700000C00002003480068DC
:100DD0000349097808440149086070470C00002065
:100DE0001400002010B50D48006840F400700B4955
:100DF00008600846006840F48060086008460068A3
:100E000040F480700860032000F0AAF8032000F08E
:100E100007F800F02BF8002010BD0000003C024055
:100E200070B504460E4800784FF47A71B1FBF0F0CB
:100E30000C490968B1FBF0F5284600F0BAFD08B18D
:100E4000012070BD102C07D200222146501E00F058
:100E500049F80548046001E00120F2E70020F0E7CE
:100E600014000020180000201000002008B500BF6A
:100E7000002000901048006840F480400E4908604F
:100E80000846006800F48040009000BF00BF00BF2B
:100E900000200090081F006840F08050091F086083
:100EA0000846006800F08050009000BF00BF052099
:100EB00000F056F808BD00004438024001460846DC
:100EC00000280DDB00BF00BF00F01F0301229A4085
:100ED00043099B0003F1E023C3F8002100BF00BFDA
:100EE00000BF70472DE9F05F80460D46164600278B
:100EF00002F0CEFA074639462A46334601F007008B
:100F0000C0F1070ABAF1040F02D94FF0040A01E058
:100F1000C0F1070AD14600F1040ABAF1070F02D264
:100F20004FF0000A01E0A0F1030AD4464FF0010A95
:100F30000AFA09FAAAF1010A0AEA020A0AFA0CFAFA
:100F40004FF0010B0BFA0CFBABF1010B0BEA030B9F
:100F50004AEA0B042146404602F0A2FABDE8F09F9F
:100F600000BF00F00702064B19684FF6FF03194057
:100F7000044B0B4343EA0221014B196000BF704749
:100F80000CED00E00000FA0570B504460D460CB902
:100F9000012070BD5848006800F00700A84209D23F
:100FA00055490D700846006800F00700A84201D0BE
:100FB0000120EEE7207800F0020002281DD1207801
:100FC00000F00400042805D14C48006840F4E050CB
:100FD0004A490860207800F00800082805D14748F1
:100FE000006840F46040454908604448006820F0CB
:100FF000F000A168084341490860207800F0010032
:10100000A8B36068012807D13C4808380068C0F3DD
:101010004040B8B90120BCE76068022802D060688F
:10102000032807D1354808380068C0F3406048B944
:101030000120AEE7314808380068C0F3400008B925
:101040000120A6E72D48006820F0030061680843EE
:101050002A490860FFF7B4FE064609E0FFF7B0FE34
:10106000801B41F28831884202D9032091E707E0D2
:101070002248006800F00C006168B0EB810FEDD1F0
:101080001D48006800F00700A84209D91A490D70F0
:101090000846006800F00700A84201D0012078E768
:1010A000207800F00400042807D11448006820F4D8
:1010B000E050E168084311490860207800F008001A
:1010C000082808D10D48006820F46040216940EAF2
:1010D000C1000A49086000F03FF808490968C1F3F7
:1010E0000311074A515CC840064908600648006879
:1010F000FFF796FE00204CE7003C02400838024013
:10110000BE350008180000201000002001480068CB
:10111000704700001800002000B5FFF7F7FF0449F2
:101120000968C1F38221034A515CC84000BD000038
:1011300008380240CE35000800B5FFF7E7FF044944
:101140000968C1F34231034A515CC84000BD000048
:1011500008380240CE3500082DE9F047002400256C
:101160000026A1462548006800F00C0020B10428A4
:1011700005D008283AD105E0DFF8849039E0DFF89F
:10118000849036E01D48001F006800F03F041B48B3
:10119000001F006800F4800078B11A481749091F41
:1011A0000968C1F38811A0FB0170014622460023A3
:1011B0003846FFF762F805460EE011480F49091F4F
:1011C0000968C1F38811A0FB017001462246002383
:1011D0003846FFF752F805460848001F0068C0F37C
:1011E0000140401C4600B5FBF6F902E0DFF8109024
:1011F00000BF00BF4846BDE8F08700000838024045
:101200000024F40040787D01F8B504460CB90120B3
:10121000F8BD207800F00100002874D0F94800687B
:1012200000F00C0004280DD0F648006800F00C0017
:10123000082813D1F348001F006800F48000B0F5BF
:10124000800F0BD1EF4808380068C0F340400028F9
:1012500059D06068002856D10120D9E700BF6068E6
:10126000B0F5803F08D1E7480838006840F4803086
:10127000E449083908601EE06068B0F5A02F0DD180
:10128000E0480838006840F48020DE4908390860EA
:101290000846006840F4803008600CE0D9480838FF
:1012A000006820F48030D749083908600846006893
:1012B00020F48020086000BF606890B1FFF780FDD7
:1012C000054606E0FFF77CFD401B642801D903209A
:1012D0009EE7CC4808380068C0F340400028F1D0B1
:1012E00011E0FFF76DFD054606E0FFF769FD401BC5
:1012F000642801D903208BE7C24808380068C0F38E
:1013000040400028F1D1207800F0020002285FD18F
:10131000BC48006800F00C0058B1BA48006800F002
:101320000C0008281CD1B748001F006800F480009A
:10133000B0B9B44808380068C0F3400020B1E06894
:10134000012801D0012063E7AE480838006820F08A
:10135000F800216940EAC100AA490839086037E06D
:10136000E06800B30120A8490860FFF729FD0546A1
:1013700006E0FFF725FD401B022801D9032047E7BF
:10138000A04808380068C0F340000028F1D09D480C
:101390000838006820F0F800216940EAC100994946
:1013A0000839086014E0002097490860FFF708FD3D
:1013B000054606E0FFF704FD401B022801D9032083
:1013C00026E7904808380068C0F340000028F1D1B3
:1013D000207800F0080008282CD16069A8B101200D
:1013E0008A490860FFF7ECFC054606E0FFF7E8FCD9
:1013F000401B022801D903200AE782486C300068AC
:10140000C0F340000028F1D014E000207F490860BC
:10141000FFF7D6FC054606E0FFF7D2FC401B02288A
:1014200001D90320F4E677486C300068C0F340002F
:101430000028F1D1207800F00400042870D10027A2
:1014400070483830006800F0805090B900BF00202C
:1014500000906C483830006840F08050694938315D
:1014600008600846006800F08050009000BF00BF90
:1014700001276748006800F48070B0B964480068CC
:1014800040F4807062490860FFF79AFC054606E068
:10149000FFF796FC401B022801D90320B8E65C4800
:1014A000006800F480700028F2D000BFA068012816
:1014B00008D154486830006840F001005149683153
:1014C00008601DE0A06805280DD14E48683000680E
:1014D00040F004004B49683108600846006840F05D
:1014E000010008600CE047486830006820F0010007
:1014F0004449683108600846006820F0040008602C
:1015000000BFA068A8B1FFF75BFC054609E0FFF744
:1015100057FC401B41F28831884202D9032077E60C
:1015200026E0384868300068C0F340000028EED05C
:1015300013E0FFF745FC054608E0FFF741FC401BC0
:1015400041F28831884201D9032061E62D48683094
:101550000068C0F340000028EFD1012F07D12948CF
:101560003830006820F0805026493831086000BFCC
:10157000A069002845D02348006800F00C00082826
:101580005DD0A069022845D100201F490866FFF7F9
:1015900017FC054606E0FFF713FC401B022801D9A3
:1015A000032035E6174808380068C0F3406000287B
:1015B000F1D1D4E907010843616A40EA81110122AF
:1015C000A06AC2EB500041EA00412C20005D41EAD4
:1015D00000600C49091F086001200B490866FFF7ED
:1015E000EFFB054606E0FFF7EBFB401B022801D9A5
:1015F00003200DE6034808380068C0F34060002867
:10160000F1D049E00838024000004742800E4742CE
:1016100000700040002021490866FFF7D1FB054615
:1016200006E0FFF7CDFB401B022801D90320EFE5C0
:101630001B480068C0F340600028F2D12CE0A0698C
:10164000012800D1E4E51648001D0668A0690128BC
:1016500020D006F48001E06981421BD106F03F01F1
:10166000206A814216D147F6C0703040616AB0EB03
:10167000811F0FD106F440310122A06AC2EB500055
:10168000B1EB004F06D106F070612C20005DB1EB8C
:10169000006F01D00120BBE50020B9E50000474202
:1016A0000038024010B504460CB9012010BD606A34
:1016B00038B96068B0F5827F00D105E00021E161B2
:1016C00002E00021216161610021A16294F85100D2
:1016D00028B9002084F85000204600F047F8022086
:1016E00084F851002068006820F0400021680860FC
:1016F000A08800F48270218901F404410843A18983
:1017000001F400610843217C01F002010843217DBE
:1017100001F001010843218B01F400710843217F8E
:1017200001F0380108432021095D01F080010843E0
:10173000218D01F400510843216808600421A0694B
:1017400001EA104094F8241001F0100108432168C8
:1017500048602068C06920F400602168C8610020EA
:101760006065012084F8510000209FE710B586B025
:101770000446142101A8FEF716FE1B492068884282
:101780002FD100BF002000901848006840F480501E
:10179000164908600846006800F48050009000BFB9
:1017A00000BF00BF0020009010481438006840F0CF
:1017B00002000E49143908600846006800F0020073
:1017C000009000BF00BF282001900220029000205E
:1017D0000390032004900520059001A90448FFF719
:1017E000FDF906B010BD0000003001404438024051
:1017F000000402402DE9F84304460F4616461D46F4
:10180000FFF7DEFA8046B14694F85100012802D075
:101810000220BDE8F88307B10EB90120F9E700BF47
:1018200094F85000012801D10220F2E7012084F849
:10183000500000BF032084F851000020606527633A
:10184000A686E686A063A087E08760642064A0681F
:10185000B0F5004F0BD12068006820F040002168EF
:1018600008602068006840F48040216808602068B3
:10187000006800F04000402805D02068006840F073
:10188000400021680860E068B0F5006F37D16068FB
:1018900010B1B9F1010F09D1206B00882168C8602F
:1018A000206B801C2063E08E401EE08623E02068D1
:1018B000806800F0020002280AD1206B00882168AD
:1018C000C860206B801C2063E08E401EE08612E022
:1018D000FFF776FAA0EB0800A84201D3681C00B914
:1018E0004DB9012084F8510000BF002084F8500059
:1018F00000BF03208DE7E08E0028D8D136E0606875
:1019000010B1B9F1010F09D1206B0078216808737B
:10191000206B401C2063E08E401EE08623E02068A0
:10192000806800F0020002280AD1206B007821684C
:101930000873206B401C2063E08E401EE08612E09E
:10194000FFF73EFAA0EB0800A84201D3681C00B9DB
:101950004DB9012084F8510000BF002084F85000E8
:1019600000BF032055E7E08E0028D8D14246294623
:10197000204601F081F808B120206065A06850B9C8
:1019800000BF002000902068C06800902068806838
:10199000009000BF00BF012084F8510000BF00206C
:1019A00084F8500000BF606D08B1012031E70020CD
:1019B0002FE770B504462546681EB0F1807F01D33D
:1019C00001200FE0681E4FF0E02148610F214FF029
:1019D000FF3001F065FD00204FF0E0218861072015
:1019E0000861002070BD7047704710B504460CB9FF
:1019F000012010BD94F83D0028B9002084F83C0077
:101A0000204600F025F8022084F83D00211D2068C2
:101A100001F006FA012084F8460000BF84F83E0079
:101A200001213F200155402001554120015500BFB3
:101A300000BF012084F84200432001554420015595
:101A40004520015500BF012084F83D000020D0E76B
:101A500038B5044618492068884218D100BF0020D4
:101A600000901648006840F4803014490860084629
:101A7000006800F48030009000BF00BF0022022107
:101A80001820FFF72FFA1820FFF718FA13E00C4977
:101A9000206888420FD100BF0020009007480068EE
:101AA00040F48020054908600846006800F4802062
:101AB000009000BF00BF38BD0040014044380240E4
:101AC00000480140014691F83D00012801D0012065
:101AD0007047022081F83D00164B0868984213D0E9
:101AE0000868B0F1804F0FD0134B086898420BD0B4
:101AF000124B0868984207D0114B0868984203D0EF
:101B0000104B086898420CD10868806800F0070202
:101B1000062A0CD00868006840F001000B681860C5
:101B200005E00868006840F001000B6818600020BC
:101B3000CEE7000000000140000400400008004023
:101B4000000C004000400140014600BF0868006AE8
:101B500041F21112104050B90868006A921010400A
:101B600028B90868006820F001000A68106000BF0A
:101B7000012081F83D00002070472DE9F041044626
:101B80000D46002700BF94F83C00012802D1022036
:101B9000BDE8F081012084F83C0000BF022084F8F9
:101BA0003D002068866826F0770626F47F46206888
:101BB00086602868502833D00CDC202850D004DC04
:101BC00000284BD0102851D149E0302849D0402876
:101BD0004CD139E060282DD0702807D0B0F5805F57
:101BE00003D0B0F5005F41D10DE041E0D5E902132B
:101BF0006A68206801F06AF92068866846F077060E
:101C00002068866034E0D5E902136A68206801F034
:101C10005DF92068806840F480402168886027E092
:101C2000EA686968206801F065F95021206801F0D0
:101C300058F91DE0EA686968206801F06EF96021D2
:101C4000206801F04EF913E0EA686968206801F045
:101C500051F94021206801F044F909E000BF00BFBC
:101C600000BF2968206801F03CF901E0012700BFAE
:101C700000BF012084F83D0000BF002084F83C0034
:101C800000BF384684E7704770B504462068C568D1
:101C90002068066906F00200022819D105F002004A
:101CA000022815D1401F2168086101202077206893
:101CB000806900F0030018B12046FFF7E4FF05E05B
:101CC000204600F097F8204600F0C9F80020207761
:101CD00006F00400042819D105F00400042815D1E9
:101CE000C04321680861022020772068806900F4E1
:101CF000407018B12046FFF7C6FF05E0204600F00F
:101D000079F8204600F0ABF80020207706F00800B4
:101D1000082819D105F00800082815D1C04321680A
:101D20000861042020772068C06900F0030018B122
:101D30002046FFF7A8FF05E0204600F05BF82046AC
:101D400000F08DF80020207706F01000102819D13F
:101D500005F01000102815D1C04321680861082043
:101D600020772068C06900F4407018B12046FFF762
:101D70008AFF05E0204600F03DF8204600F06FF8AD
:101D80000020207706F0010048B105F0010030B1D5
:101D90006FF0010021680861204600F061F806F04C
:101DA0008000802809D105F08000802805D1C0433B
:101DB000216808612046FFF716FE06F04000402823
:101DC00009D105F04000402805D1C04321680861D1
:101DD000204600F097F806F02000202809D105F0F1
:101DE0002000202805D1C043216808612046FFF764
:101DF000FBFD70BD704770B504460D460CB901205F
:101E000070BD94F83D0028B9002084F83C002046BD
:101E100000F024F8022084F83D00211D206800F025
:101E2000FFFF2068006820F0080021680860206833
:101E30000068284321680860012084F8460084F87F
:101E40003E0001213F200155012084F8420043203B
:101E50000155012084F83D000020D1E7704770470C
:101E600038B504462249206888423FD16FF001000E
:101E700020490968086120484068401C1E494860A4
:101E800008468068401C88600846C068401CC860DE
:101E9000084640680A2803D30020486000F0A6FAEC
:101EA00015488068B0F5FA6F02D3002012498860A7
:101EB0001148C068642819D300200F49C8600F4832
:101EC0000F49097800EB412040231A460021009079
:101ED000084600F056FD0A480078401C0849087082
:101EE00008460078062801DB0020087038BD000095
:101EF00000400140C40000209C010020E760000871
:101F00000800002070477047704700002DE9F84F27
:101F10000446206805682068C668206847694FF055
:101F20000009CA4605F00F09B9F1000F0AD105F002
:101F3000200038B106F0200020B1204601F050F812
:101F4000BDE8F88FB9F1000F7CD007F0010018B997
:101F500006F49070002875D005F0010030B106F449
:101F6000807018B1606C40F00100606405F00400FE
:101F700030B107F0010018B1606C40F002006064FD
:101F800005F0020030B107F0010018B1606C40F0BC
:101F90000400606405F0080048B106F0200010B9A4
:101FA00007F0010018B1606C40F008006064606CDC
:101FB000002846D005F0200028B106F0200010B11E
:101FC000204601F00DF820684069C0F3801A606C6B
:101FD00000F0080010B9BAF1000F2DD0204600F033
:101FE000B9FF2068406900F04000402820D100BFC0
:101FF00000BF2168143151E8001F21F04000216822
:10200000143141E80002002AF3D100BFE06B50B167
:102010007F48E16B0865E06BFEF7CCFD88B1E06BB3
:10202000016D88470DE02046FFF76EFF09E009E0EB
:102030002046FFF769FF04E02046FFF765FF002018
:1020400060647DE7206B012878D105F0100000283E
:1020500074D006F010000028FAD000BF00200090D5
:1020600020680068009020684068009000BF00BFB2
:102070002068406900F04000402870D1E06B0068A3
:1020800040681FFA80F8B8F1000F58D0A08D404585
:1020900055DDA4F82E80E06BC069B0F5807F43D099
:1020A00000BF00BF21680C3151E8001F21F480708F
:1020B00021680C3141E80002002AF3D100BF00BFC3
:1020C00000BF2168143151E8001F21F00100216890
:1020D000143141E80002002AF3D100BF00BF00BF65
:1020E0002168143151E8001F21F0400021681431AB
:1020F00041E80002002AF3D100BF202084F842000A
:102100000020206300BF00BF21680C3151E8001F90
:1021100021F0100021680C3141E80002002AF3D1BF
:1021200000BFE06BFEF7F0FC02206063A08DE28D43
:10213000801A81B22046FFF7E6FE0EE052E0A08D45
:1021400040450AD1E06BC069B0F5807F05D102201F
:102150006063A18D2046FFF7D6FEF1E6FFE7A08D74
:10216000E18D401A1FFA80F8E08DD0B3B8F1000F6E
:1021700037D000BF00BF21680C3151E8001F21F4A7
:10218000907021680C3141E80002002AF3D100BFB1
:1021900000BF00BF2168143151E8001F21F0010089
:1021A0002168143141E80002002AF3D100BF202049
:1021B00084F842000020206300BF00BF21680C317A
:1021C00051E8001F21F0100021680C3141E80002A5
:1021D000002AF3D100BF0220606341462046FFF78A
:1021E00092FEADE605F0800030B106F0800018B137
:1021F000204601F099F8A3E605F0400030B106F062
:10220000400018B1204600F0DBFE99E600BF97E6DB
:10221000432F000810B504460CB9012010BDA06979
:1022200000B100E000BF94F8410028B9002084F814
:102230004000204600F02AF8242084F8410020685D
:10224000C06820F400502168C860204600F056FFA6
:102250002068006920F49040216808612068406986
:1022600020F02A00216848612068C06840F40050CE
:102270002168C86000206064202084F8410084F850
:1022800042000020606300BFC8E7000010B586B0C0
:102290000446142101A8FEF786F81F4920688842E9
:1022A00038D100BF002000901C48006840F01000AA
:1022B0001A4908600846006800F01000009000BF4E
:1022C00000BF00BF0020009014481438006840F0A0
:1022D00001001249143908600846006800F0010046
:1022E000009000BF00BF4FF4C06001900220029038
:1022F00000200390032004900720059001A90848BE
:10230000FEF76CFC022211462520FEF7EBFD25208E
:10231000FEF7D4FD06B010BD001001404438024065
:102320000000024070472DE9F84F04460E4617465C
:1023300099464FF0000A94F84100202850D106B188
:1023400017B90120BDE8F88F00206064212084F8CF
:102350004100FEF735FD8246A784E784A068B0F50A
:10236000805F04D1206910B90025B04602E03546EF
:102370004FF000081EE05346002280212046CDF891
:10238000009001F001F820B1202084F841000320E2
:10239000D8E745B9B8F80000C0F3080021684860E4
:1023A00008F1020803E02878216848606D1CE08C81
:1023B000401EE084E08C0028DDD1534600224021FD
:1023C0002046CDF8009000F0DFFF20B1202084F8F7
:1023D00041000320B6E7202084F841000020B1E747
:1023E0000220AFE7704700BFFEE7000070B5FEF7C0
:1023F000EDF805463E480078854220D03C480078FC
:10240000D8B9D5B1012D06D0022D08D0032D0AD0A0
:10241000042D10D10BE00120364908700CE0022099
:102420003449087008E003203249087004E00420B1
:102430003049087000E000BF00BF2D480570012141
:102440002D48FEF7AFFC04462C480088401C2B4961
:1024500008802B480078052847D2DFE800F0030CFD
:102460001A2D4100012C05D10020244908800120AB
:102470002349087039E0012C07D120480088022840
:1024800006DB02201E49087002E000201C4908708B
:102490002BE034B90020194908800320184908703E
:1024A00009E016480088462805DB04201449087016
:1024B00007201049087018E0104800881E2806DD23
:1024C00005200C49087000200D49087007E0012C18
:1024D00005D106200749087004200949087004E066
:1024E00014B900200649087000BF00BF70BD00008D
:1024F0001D0000201C0000200000024020000020E1
:102500001E0000201FB50020009001900290039053
:102510001548164908604FF4803048600021134880
:1025200081600161017680F82010C16210498162EA
:102530000021C1600121C161002180F8301001211A
:102540004161FEF757F908B1FEF73DF8032000900E
:10255000012001900020029069460448FEF774F8BB
:1025600008B1FEF730F81FBD002001402400002014
:102570000100000F00B587B0142102A8FDF713FF7A
:1025800000BF002001903D48006840F004003B4936
:1025900008600846006800F00400019000BF00BF1A
:1025A00000BF002001900846006840F080000860ED
:1025B0000846006800F08000019000BF00BF00BF27
:1025C000002001900846006840F0010008600846BD
:1025D000006800F00100019000BF00BF00BF0020B4
:1025E00001900846006840F0020008600846006854
:1025F00000F00200019000BF00BF012248F28001FC
:102600001F48FEF7D7FB00224FF480611D48FEF7FC
:10261000D1FB01224FF40E511A48FEF7CBFB0120EB
:10262000029000200390049002A91548FEF7D6FA04
:1026300048F2800002900120039000200490059051
:1026400002A90F48FEF7CAFA4FF412500290012077
:10265000039000200490059002A90A48FEF7BEFAF4
:102660004FF44070029011200390002004900590D8
:1026700002A90448FEF7B2FA07B000BD30380240A4
:10268000000002400004024010B50E480E490860E8
:102690004FF48270486000210B488160C1600221C4
:1026A000016101214161490281610021C161016231
:1026B000416281620A21C162FEF7F4FF08B1FDF7B1
:1026C00082FF10BD003001406C00002010B50E48A4
:1026D0000E4908604FF47A70486000210B48816011
:1026E0004FF6FF71C1600021016180218161FFF718
:1026F0007CF908B1FDF767FF08210448FFF77BFB71
:1027000008B1FDF760FF10BD004801400C0100203A
:102710001FB50020009001900290039014481549C5
:1027200008606320486000211248816040F2E73170
:10273000C160002101618161FFF757F908B1FDF720
:1027400042FF4FF48050009069460A48FFF715FA9F
:1027500008B1FDF738FF07480068C06840F0010085
:1027600004490968C8600348FFF7ACF91FBD0000C1
:1027700000400140C400002010B517481749086008
:102780004FF4E1304860002114488160C16001616C
:102790000C21416100218161C161FFF73BFD08B15E
:1027A000FDF711FF0D480068C06840F020000B499C
:1027B0000968C86009480068C06840F0100007490F
:1027C0000968C86005480068C06840F400500349C3
:1027D0000968C86010BD00000010014054010020CD
:1027E00000BFFEE700BFFEE770B5054600241FE00E
:1027F00004F1B001C8B2002100F0ECF80021084655
:1028000000F0E8F80021102000F0E4F800260BE0CA
:1028100025B90121002000F0DDF803E00121FF20AF
:1028200000F0D8F8701CC6B2842EF1DB601CC4B274
:10283000082CDDDB70BD10B500F078F80021AE206B
:1028400000F0C8F80021022000F0C4F80021102098
:1028500000F0C0F80021402000F0BCF800218120E9
:1028600000F0B8F80021FF2000F0B4F80021A1200A
:1028700000F0B0F80021C82000F0ACF80021A6203C
:1028800000F0A8F80021A82000F0A4F800213F20C3
:1028900000F0A0F80021D32000F09CF800210846A9
:1028A00000F098F80021D52000F094F80021802055
:1028B00000F090F80021D92000F08CF80021F120E0
:1028C00000F088F80021DA2000F084F800211220BE
:1028D00000F080F80021DB2000F07CF8002140208F
:1028E00000F078F80021202000F074F80021022088
:1028F00000F070F800218D2000F06CF80021142009
:1029000000F068F80021A42000F064F80021A6205F
:1029100000F060F80021AF2000F05CF80021AF204B
:1029200000F058F80020FFF75FFF10BD10B500223F
:102930004FF400510748FEF73DFA642000F0C8FD4F
:10294000012251030348FEF735FA642000F0C0FD70
:1029500010BD00000004024070B505460C4605F1AC
:10296000B001C8B2002100F035F8102141EA24106E
:10297000002100F02FF804F00F00002100F02AF8E9
:1029800070BD2DE9F0470746894615469846DDF8A3
:1029900020A0002413E03919C8B24946FFF7DCFF34
:1029A000002608E005FB04611AF80100012100F08F
:1029B00011F8701CC6B2AE42F4DB601CC4B208F160
:1029C0000700C11700EB5171B4EBE10FE3DBBDE889
:1029D000F087000070B505460C46002280210C48A7
:1029E000FEF7E8F92CB10122D1030A48FEF7E2F91B
:1029F00005E000224FF400410648FEF7DBF92846C7
:102A000000F030F8012280210148FEF7D3F970BDB3
:102A10000004024000000240704710B500F0DEF8EC
:102A2000002400F04DF9802000F010F900F0E4F8E7
:102A30000446012C03D100F067F9012010BDFE20EF
:102A400000F004F900F0D8F80446012C03D100F09E
:102A50005BF90220F2E700F057F9142000F038FD8E
:102A60000020EBE701B56423012269460148FEF727
:102A7000C1FE08BD6C0000207CB504460E4615461C
:102A80003346012202212046009500F039F828B192
:102A9000606D40F02000606503207CBD1648006832
:102AA0001821B0FBF1F01549B0FBF1F04FF47A7149
:102AB000484301906068B0F5827F0DD13346002213
:102AC00080212046009500F01BF898B1606D40F021
:102AD000200060650320E0E700BF019800B908E02E
:102AE0000198401E019020688068C0F3C010002843
:102AF000F3D100BF0020D0E71800002040420F00B3
:102B00002DE9F84F04460D4690461E46DDF8289004
:102B1000FEF756F9A0EB0900371AFEF751F9824685
:102B20002C480068C0F3CB307843009046E0701C1E
:102B3000002843D0FEF744F9A0EB0A00B84200D2C7
:102B4000A7BB2068406820F0E0002168486060680A
:102B5000B0F5827F0DD1A068B0F5004F03D0A0681A
:102B6000B0F5806F05D12068006820F04000216832
:102B70000860A06AB0F5005F0DD100BF2068006852
:102B800020F40050216808602068006840F400507C
:102B90002168086000BF012084F8510000BF0020B8
:102BA00084F8500000BF0320BDE8F88FFFE70098CD
:102BB00008B9002702E00098401E00902068806855
:102BC0002840A84201D1012000E000204045AED1BC
:102BD0000020E9E7180000207047000010B501222E
:102BE00011020448FEF7E6F8012251020148FEF7FF
:102BF000E1F810BD0004024010B500224FF48071CE
:102C00001148FEF7D7F8012251020F48FEF7D2F81B
:102C1000052000F089FC012211020B48FEF7CAF8DA
:102C2000052000F081FC4FF400710748FEF7BAF868
:102C3000044600224FF480710348FEF7BBF80520DC
:102C400000F072FC204610BD0004024070B504463E
:102C5000002526E000224FF480711848FEF7AAF8FC
:102C6000052000F061FC04F0800028B1012251022F
:102C70001248FEF79FF805E000224FF400710F485C
:102C8000FEF798F86006040E052000F04DFC0122C6
:102C900011020A48FEF78EF8052000F045FC681C7A
:102CA000C5B2082DD6DB00224FF480710348FEF731
:102CB00081F8052000F038FC70BD000000040240DF
:102CC00010B5012251020F48FEF774F801221102DB
:102CD0000C48FEF76FF8052000F026FC00224FF4A8
:102CE00000710848FEF766F8052000F01DFC002280
:102CF0004FF480710348FEF75DF8052000F014FCE6
:102D000010BD00000004024010B500224FF4007115
:102D10000B48FEF74FF8052000F006FC01221102D7
:102D20000748FEF747F8052000F0FEFB012251029C
:102D30000348FEF73FF8052000F0F6FB10BD000049
:102D40000004024010B5FEF741F810BD00B593B085
:102D5000302107A8FDF727FB142102A8FDF723FB6C
:102D600000BF002001902348006840F080502149B6
:102D700008600846006800F08050019000BF00BF66
:102D800000BF002001901C48006840F440401A49F0
:102D900008600846006800F44040019000BF00BF92
:102DA000012007900004089002200D9041050E912B
:102DB0000C210F9160211091022111910421129197
:102DC00007A8FEF721FA08B1FDF7FDFB0F200290DE
:102DD00002200390002004904FF4805005900020C2
:102DE0000690032102A8FEF7CFF808B1FDF7EBFB30
:102DF00013B000BD40380240007000400348006836
:102E000040F47000014908607047000088ED00E060
:102E100010B50248FEF738FF10BD0000C4000020C6
:102E200010B50268224B98420BD0B0F1804F08D009
:102E3000204B984205D0204B984202D01F4B98421D
:102E400003D122F070024B681A43194B984214D0F8
:102E5000B0F1804F11D0174B98420ED0164B9842CC
:102E60000BD0164B984208D0154B984205D0154B05
:102E7000984202D0144B984203D122F44072CB689E
:102E80001A4322F080034C6943EA04028B68C36250
:102E90000B688362064B984201D10B690363036898
:102EA00043F00403036001234361026010BD00008E
:102EB000000001400004004000080040000C0040F9
:102EC00000400140004401400048014030B50C463C
:102ED000816821F47F4142EA03252543294381602B
:102EE00030BD0A46816821F0700142F007031943A2
:102EF0008160704730B50B461446026A056A25F0BA
:102F000001050562816921F0F00141EA041122F016
:102F10000A021A438161026230BD30B50B46144685
:102F2000026A056A25F010050562816921F4704185
:102F300041EA043122F0A00242EA031281610262F6
:102F400030BD70B50446A56B0020E8852846FEF725
:102F5000DBFF70BD00BF00BF02680C3252E8002FDB
:102F600022F4907102680C3242E80013002BF3D176
:102F700000BF00BF00BF0268143252E8002F22F0E9
:102F800001010268143242E80013002BF3D100BFA4
:102F9000016B01290ED100BF00BF02680C3252E85C
:102FA000002F22F0100102680C3242E80013002BBF
:102FB000F3D100BF202180F8421000210163704747
:102FC00010B504462068C06820F040002168C86041
:102FD000202084F841002046FFF704FA002010BDAD
:102FE000F8B504460025002694F84200222873D143
:102FF000A068B0F5805F0BD1206948B9A66A206847
:103000004068C0F308003080A06A801CA06214E011
:10301000A56AA068B0F5805F03D0A06828B92069D0
:1030200018B920684068287004E02068406800F003
:103030007F002870A06A401CA062E08D401E80B214
:10304000E085002846D12068C06820F02000216873
:10305000C8602068C06820F480702168C86020685B
:10306000406920F0010021684861202084F8420076
:1030700000206063206B012826D10020206300BF60
:1030800000BF21680C3151E8001F21F010002168B9
:103090000C3141E80002002AF3D100BF206800682B
:1030A00000F0100010280AD100BF00200090206816
:1030B0000068009020684068009000BF00BFA18DAC
:1030C0002046FEF720FF02E02046FFF72BF9002004
:1030D000F8BD01E00020FBE70220F9E770B50446E7
:1030E0002046FDF741F985B24FF4FA732A4621468E
:1030F0000148FFF718F970BD540100202DE9F84F81
:1031000004462068006920F44050E16808432168C3
:1031100008612169A068084361690843E1690843BF
:1031200000902068C06849F20C6188430099084308
:103130002168C8602068406920F44070A169084394
:103140002168486176492068884203D07549206823
:10315000884203D1FDF7F0FF814602E0FDF7DCFF76
:103160008146E069B0F5004F6CD102206168A0FB98
:10317000015003461920A9FB007001462A46384633
:10318000FDF77BF86421B0FBF1F04FEA001A022052
:103190006168A0FB01510B461920A9FB00712A466A
:1031A0003846FDF76AF8834602206168A0FB0150AB
:1031B00003461920A9FB00712A463846FDF75DF841
:1031C0006421B0FBF1F000EBC00101EB0010ABEBB0
:1031D0008000322101EBC0006421B0FBF1F000F06F
:1031E000F8000AEB400A02206168A0FB0150034688
:1031F0001920A9FB007001462A463846FDF73DF824
:10320000834602206168A0FB015003461920A9FBF8
:1032100000712A463846FDF730F86421B0FBF1F022
:1032200000EBC00101EB0010ABEB8000322101EBA1
:10323000C0006421B0FBF1F000F0070050442168A9
:1032400088606AE004206168A0FB015003461920F1
:10325000A9FB007001462A463846FDF70EF8824663
:1032600004206168A0FB015003461920A9FB0070EF
:1032700001462A463846FDF700F86421B0FBF1F01C
:1032800000EBC00101EB0010AAEB8000322101EB42
:1032900000106421B0FBF1F000F0F00A0420616836
:1032A000A0FB017003461920A9FB00513A462846AD
:1032B000FCF7E3FF6421B0FBF1F00AEB001A0420F5
:1032C0006168A0FB01510B461920A9FB00712A4639
:1032D0003846FCF7D2FF834604206168A0FB01500A
:1032E00003461920A9FB007001462A463846FCF720
:1032F000C4FF6421B0FBF1F000EBC00101EB001052
:10330000ABEB8000322101EB00106421B0FBF1F047
:1033100000F00F00504421688860BDE8F88F00007D
:103320000010014000140140014691F8410021289D
:1033300028D18868B0F5805F0BD1086948B90A6A5E
:103340001088C0F308000B685860086A801C086287
:1033500005E00B6A581C086218780B685860C88C26
:10336000401E80B2C88458B90868C06820F0800048
:103370000B68D8600868C06840F040000B68D860EF
:10338000002070470220FCE72DE9F84304460D4673
:1033900017469846089E31E0701C70B3FDF710FD8B
:1033A000A0EB0800B04200D816B90320BDE8F883AE
:1033B0002068C06800F00400F8B1802D1ED0402DB8
:1033C0001CD020680068C0F3C000B0B100BF00206E
:1033D000009020680068009020684068009000BF5E
:1033E00000BF2046FFF7B6FD0820606400BF002044
:1033F00084F8400000BF0120D8E7FFE7206800689C
:103400002840A84201D1012000E00020B842C3D0EA
:103410000020CBE710B51B480068006800F02000D2
:1034200020280BD1174800684068C4B2164841787C
:103430004078401C144A5070901C44541148006855
:10344000006800F01000102817D10E4800680068CE
:103450000C48006840680C48407800280DDD0120C9
:1034600009490870002108484278801C81540020D6
:1034700005494870881CFFF731FE0248FEF746FDFB
:1034800010BD000054010020B001002000BFFEE785
:1034900002480068C0F30220704700000CED00E015
:1034A00010B5002804DB0A07130E054A135406E082
:1034B0000A07140E034A00F00F031B1FD45410BD5B
:1034C00000E400E018ED00E0014600BF7047000096
:1034D00010B5044604EB84004000401E1149C8604A
:1034E00042F20F7048600020096848620D48FEF7FC
:1034F0007CFA6FF001000B49096808610948FEF782
:10350000E1FA00BF07480068006900F001000028E8
:10351000F8D00448FEF718FB6FF001000149096874
:10352000086110BD0C01002010B50446601E114951
:10353000C860632048600020096848620D48FEF7B3
:1035400054FA6FF001000B49096808610948FEF759
:10355000B9FA00BF07480068006900F001000028C0
:10356000F8D00448FEF7F0FA6FF00100014909684D
:10357000086110BD0C010020FDF734FCFFF7E6FBED
:10358000FEF7F8FFFFF7F8F8FFF7C2F8FFF79EF82D
:10359000FEF7B8FFFFF778F8FFF73FFAFFF74BF9B0
:1035A00002A0FFF79BFD00BFFEE70000456E7465BB
:1035B000720D0A004FF04070E1EE100A70470000F3
:1035C00000000000000001020304060708090000D3
:1035D000000001020304CCECCEC2B6C8D0C4C2CAFB
:1035E000D1AAD1B9CAAA0040404242424242FE4258
:1035F0004242424240400080804020100C030003C1
:103600000C1020408080001060028C0000FE92921E
:10361000929292FE00000004047E01407E42427EAF
:10362000427E42427E40000000FC242424FC2526E9
:1036300024FC242424040040308F80844C5525250C
:1036400025554C808080000000800000E0020418B6
:1036500000000040800000100C0300003F4040408C
:1036600040407800010E000014A4442434AD6624C8
:10367000940444A414000008090808090909FD0974
:10368000090B08080908000000F80808F80C0B08E6
:10369000F80808F800000040407F40407F4040406C
:1036A0007F40407F4040000000FE0282828282FA1A
:1036B0008282828282020080601F40404040407FC0
:1036C000404044584040001060028C00FE929292AC
:1036D000929292FE00000004047E014448507F4014
:1036E000407F5048444000000000000808080808D7
:1036F0000808F80808080808080C0800000000007E
:103700000004040404040404C47C0F0C34C4040442
:1037100004040606040000000040202010080403F2
:1037200001000000000003060C18307020000000AB
:10373000800004081800C000F84848484848484835
:1037400048FC00000000000000010780780700E04E
:103750002F2424E42424E424242FE020000000006B
:1037600001013F3F2020203F2020203F20203F20FC
:1037700020203F2030200000000000F0101010102A
:1037800030D0121C1C1010F05010109810000000C7
:103790000000C0FF0101414141DF49494949495FFA
:1037A000C1410101010000002018070040404020F5
:1037B0002011120C080C1211302020602020000073
:1037C000000000000000008080081070E000000091
:1037D00000000000000000000080C0F8000000FFB2
:1037E0000000000001000000C00418F0E00000002C
:1037F000000101000000001F181010101010101818
:103800001F08000000000000001010909010101021
:1038100090523C1C10D090101090901000000000AE
:103820000020202011080823322AE6622911700A9C
:103830000910302000000000010101010101010117
:1038400001017F610101010101010101010000008D
:103850000000000080808080E0BC888080808080C4
:10386000808080000000000000000000FF000000D9
:10387000FF000000FFFF000000FF0000000000004C
:10388000101010101F1010101F1010101F1F1010FC
:10389000101F101010000000000000F8F8080808C1
:1038A000080808E8E80808080808080C08000000EC
:1038B000000000FF7F000808080808FFFF0808480C
:1038C000880808000000000040300C17101010108D
:1038D0001010101F1F1010101117121010000000F0
:1038E000800004183800C000F8F8484848484848A4
:1038F0004848FC0800000000800187C2380700C06B
:103900008F0F04FC040404FC04048FE0600000003A
:1039100000113F01002020202722203F2020203FAF
:1039200024232120302000000000000000000000BF
:1039300000000000000000000000F800000000008F
:103940000000333000000000100C06100C060000D0
:103950000000000000000040C07840C07840000433
:103960003F04043F040400007088FC08300000009D
:103970001820FF211E0000F008F000E018000000F1
:10398000211C031E211E0000F00888700000001E8C
:103990002123241927211010160E0000000000001A
:1039A00000000000000000000000E0180402000019
:1039B0000000071820400000020418E0000000008A
:1039C00040201807000000404080F0804040000286
:1039D00002010F01020200000000F00000000001DF
:1039E00001011F0101010000000000000000008033
:1039F000B0700000000000000000000000000000A7
:103A000001010101010101000000000000000000AF
:103A1000303000000000000000000080601804004A
:103A20006018060100000000E010080810E0000027
:103A30000F102020100F00001010F80000000000F0
:103A400020203F2020000000700808088870000037
:103A500030282422213000003008888848300000B7
:103A600018202020110E000000C02010F8000000D7
:103A7000070424243F240000F80888880808000070
:103A800019212020110E0000E01088881800000085
:103A90000F112020110E0000380808C83808000057
:103AA00000003F00000000007088080888700000D7
:103AB0001C222121221C0000E010080810E0000058
:103AC00000312222110F00000000C0C000000000E1
:103AD0000000303000000000000080000000000006
:103AE00000806000000000000080402010080000FE
:103AF00001020408102000404040404040400004C3
:103B000004040404040400000810204080000000A5
:103B100020100804020100007048080808F00000A6
:103B200000003036010000C030C828E810E000076F
:103B300018272423140B000000C038E000000020E8
:103B40003C23020227382008F8888888700000206B
:103B50003F202020110E00C0300808080838000758
:103B60001820202010080008F808080810E000209D
:103B70003F202020100F0008F88888E80810002057
:103B80003F20202320180008F88888E8081000202B
:103B90003F200003000000C030080808380000077C
:103BA000182020221E020008F808000008F808204B
:103BB0003F210101213F20000808F808080000000B
:103BC00020203F2020000000000808F8080800C05E
:103BD0008080807F00000008F888C0281808002036
:103BE0003F20012638200008F808000000000020CF
:103BF0003F20202020300008F8F800F8F8080020C6
:103C00003F003F003F200008F830C00008F80820BF
:103C10003F200007183F00E01008080810E0000FE0
:103C200010202020100F0008F808080808F00020D5
:103C30003F210101010000E01008080810E0000F1A
:103C400018242438504F0008F8888888887000208D
:103C50003F2000030C30200070880808083800005E
:103C600038202121221C00180808F8080818000034
:103C700000203F2000000008F808000008F80800B5
:103C80001F202020201F000878880000C838080066
:103C90000007380E010000F80800F80008F80003DB
:103CA0003C0700073C03000818688080681808205B
:103CB000302C03032C30200838C800C83808000016
:103CC00000203F2000000010080808C83808002025
:103CD00038262120201800000000FE020202000009
:103CE00000007F40404000000C30C0000000000099
:103CF0000000010638C00000020202FE00000000C1
:103D00004040407F00000000000402020204000066
:103D10000000000000000000000000000000008023
:103D2000808080808080800002020400000000000B
:103D30000000000000000000008080808000000083
:103D400019242222223F2008F80080800000000071
:103D50003F112020110E0000000080808000000034
:103D60000E112020201100000000808088F8000043
:103D70000E112020103F2000008080808000000075
:103D80001F222222221300008080F08888881800D9
:103D900020203F20200000000080808080800000E4
:103DA0006B94949493600008F80080808000002059
:103DB0003F210000203F2000809898000000000074
:103DC00020203F2020000000000080989800000084
:103DD000C08080807F000008F80000808080002084
:103DE0003F24022D302000000808F80000000000E9
:103DF00020203F2020000080808080808080002064
:103E00003F20003F20003F80800080808000002015
:103E10003F210000203F20000080808080000000C3
:103E20001F202020201F0080800080800000008054
:103E3000FFA12020110E0000000080808080000083
:103E40000E112020A0FF80808080008080800020D4
:103E5000203F212000010000008080808080000041
:103E600033242424241900008080E0808000000096
:103E700000001F20200000808000000080800000E3
:103E80001F202020103F2080808000008080800044
:103E9000010E300806010080800080008080800FC5
:103EA000300C030C300F0000808000808080000008
:103EB00020312E0E312000808080000080808080A4
:103EC000818E701806010000808080808080000054
:103ED00021302C2221300000000000807C020200F2
:103EE000000000003F404000000000FF0000000014
:103EF000000000FF0000000002027C8000000000C3
:103F000040403F00000000000601010202040400DE
:103F100000000000000000000000000000000000A1
:103F20000000000000000000000000000000000091
:103F30000000000000000000000000000000000081
:103F400000000000000000000000000000F0F0F0A1
:103F500000000000000000000000000000017F01E0
:103F6000000000000000000000000000001C1C1CFD
:103F70001C00000000000000008060303C1C8C60D1
:103F8000303C1C0C0000000000000000000000009D
:103F90000000000000000000000000000000000021
:103FA000000000000000000000000000E000000031
:103FB000000000E000000000868686FE8786868678
:103FC0008686FE878686000001011F01010101012E
:103FD000011F010101010000000080C0402020F805
:103FE000202060C0C0000000000003070C0C18FF78
:103FF0003060E1C18100000000070F0B1010107F3E
:104000001010080F07000080C0602020C080000052
:104010000080C0200000000F1F3020301F8F60D8AC
:10402000E6331030E0C000000000100C0301000770
:104030000F1810180F0700000080C0602020E0C09B
:104040000000000000000080E0271F78E8C407039C
:1040500004C43C04040000070F18101010110B07D3
:104060000F181010100C0000808C4C7C38000000E1
:104070000000000000000000000000000000000040
:104080000000000000000000000000000000000030
:104090000000000000000000000000000000000020
:1040A000C0603018080400000000000000007CFF21
:1040B00001000000000000000000000000000003FC
:1040C000070C1830204000000408183060C00000C1
:1040D0000000000000000000000000000001FF7C64
:1040E0000000000000000000402030180C07030012
:1040F0000000000000000000000000000000C0C040
:10410000C00000000000000000426666242818FF7E
:10411000182424666642000000000000000003032B
:10412000030000000000000000000000000000800C
:10413000000000000000000000101010101010FF20
:10414000101010101010000000000000000000030C
:10415000000000000000000000000000000000005F
:10416000000000000000000000000000000000004F
:104170000000000000000000808C4C7C3800000033
:10418000000000000000000000000000000000002F
:10419000000000000000000010101010101010109F
:1041A00010101010101000000000000000000000AF
:1041B00000000000000000000000000000000000FF
:1041C00000000000000000000000000000000000EF
:1041D0000000000000000000001C1C1C1800000073
:1041E00000000000000000000000000000000000CF
:1041F0000000C030180400000000000080C030182B
:104200000603000000000000403018060100000016
:104210000000000000000000000000C0C06020207E
:10422000202040C00000000000FCFF030000000050
:1042300000000001FFFE0000000003060C18101033
:104240001018080E03000000000080808080C0E08D
:104250000000000000000000000000000000FFFF60
:1042600000000000000000000000101010101F1FD0
:10427000101010100000000000804040202020207E
:104280002060C0C0800000000003020000008040E9
:104290002030180F0700000000181C1A19191818F0
:1042A0001818181C070000000080C04020202020A3
:1042B0006040C080000000000003030000101010E8
:1042C000182867C38000000000070F10101010109E
:1042D00010180C070300000000000000000000C0E0
:1042E000E0F0F0000000000080C0B098848281807F
:1042F000FFFFFF8080800000000000000010101011
:104300001F1F1F1010100000000000E060606060C0
:10431000606060606000000000003E231008080834
:10432000081830F0C000000000070B10101010102B
:1043300010180C0F0300000000000080C040202077
:10434000202020E0C000000000FCFF211018080819
:1043500008081830F0C000000001070E08181010FF
:104360001010180C070300000080E06060606060BF
:104370006060E06020000000000300000000C0302A
:104380000C0201000000000000000000001E1F00E1
:1043900000000000000000000080C040202020201D
:1043A000202040C08000000080C3672C1818103007
:1043B0003070E8C783000000070F0C1810101010B1
:1043C0001018080F070000000080C0602020202087
:1043D0002040C080000000001F3F3060404040404F
:1043E000602010FFFE000000000C1C1010101018C0
:1043F000080C07030000000000000000000000009F
:10440000000000000000000000000000000E0E0E82
:104410000E0000000000000000000000001C1C1C3A
:104420001C00000000000000000000000000000070
:10443000000000000000000000000000000C0C0064
:1044400000000000000000000000000000583800DC
:10445000000000000000000000000000000000005C
:1044600080406020100000000010382844C68301FE
:10447000000000000000000000000000000001013A
:1044800002040C0810000000000000000000000002
:1044900000000000000000008484848484848484FC
:1044A00084848484848400000000000000000000F4
:1044B00000000000000000000010206040800000AC
:1044C0000000000000000000000000000000018368
:1044D000C6442838100000000010080C0402010136
:1044E00000000000000000000080C020201010101C
:1044F00010103020E0C00000000303030000E010B3
:10450000100808040703000000000000001C1C1C29
:104510001C00000000000000000080C0402020209F
:104520002020404080000000FCFF0300F0FC0E0350
:10453000C1FD1F00C13F00000003060C081111114E
:1045400010110909040200000000000000E0E0E092
:1045500000000000000000000000C0784740404715
:104560007FF8C00000000010101E111000000000B5
:1045700000111F1E101000002020E0E0202020204D
:10458000206060C0800000000000FFFF10101010CD
:1045900010182867C780000010101F1F101010107F
:1045A0001010180C0F070000000080C040202020D1
:1045B00020202060E0000000FCFF0300000000005D
:1045C00000000000000100000103060C181010108C
:1045D00010100808040300002020E0E02020202024
:1045E0002040C080000000000000FFFF000000002D
:1045F00000000001FFFE000010101F1F101010101F
:1046000018080C07030000002020E0E020202020F4
:1046100020202060608000000000FFFF10101010BC
:1046200010107C000000000010101F1F1010101050
:10463000101010181C0600002020E0E02020202090
:104640002020206060E000000000FFFF101010102C
:104650001010307C0000010010101F1F101000000F
:104660000000000000000000000080C0402020206A
:10467000202040E000000000FCFF030000000000DC
:10468000004040C0C14040000003070C181010104B
:104690001010180F0F00002020E0E0202000000084
:1046A0002020E0E02020000000FFFF10101010107C
:1046B0001010FFFF00000010101F1F10100000005E
:1046C00010101F1F10100000000020202020E0E02C
:1046D0002020202000000000000000000000FFFF5C
:1046E00000000000000000000000101010101F1F4C
:1046F00010101010000000000000000020202020FA
:10470000E0E0202020200000000000000000000069
:10471000FFFF00000000000060E0E080808080403B
:104720007F3F0000000000002020E0E0202000008B
:1047300020A06060202000000000FFFF30181C7ED9
:10474000E3C100000000000010101F1F1010000047
:104750000013171E181010002020E0E02020000099
:1047600000000000000000000000FFFF000000004B
:10477000000000000000000010101F1F101010109B
:10478000101010181C06002020E0E0E000000000DF
:104790000000E0E0E020200000FF010FFEF00080BC
:1047A000700F01FFFF000010101F101000071F0303
:1047B0000010101F1F10102020E0E0E0800000001B
:1047C000002020E02020000000FF0001071E3CF038
:1047D000E08000FF00000010101F1010000000001B
:1047E00001071E1F00000000000080C06020202084
:1047F0002060408000000000FCFF0100000000007D
:1048000000000001FFFC00000003060C181010104F
:1048100010180806030000002020E0E020202020DF
:10482000202060C0C00000000000FFFF20202020EA
:10483000202030101F07000010101F1F1010000054
:104840000000000000000000000080C06020202068
:104850002060408000000000FCFF0100000000001C
:1048600000000001FFFE00000107060E19111113E0
:104870001E3C7866632000002020E0E020202020FD
:10488000206060C0800000000000FFFF101030704A
:10489000F098080F0700000010101F1F10100000F4
:1048A00001071F1C101000000080C04020202020A5
:1048B000202040C0E000000000070F0C081818106E
:1048C000303060E0C180000000031E0808101010A6
:1048D000101018080F07000080E020202020E0E0E2
:1048E0002020202060800000010000000000FFFF69
:1048F00000000000000100000000000010101F1F59
:10490000101000000000002020E0E0202000000047
:10491000002020E02020000000FFFF000000000039
:10492000000000FF0000000000070F08101010102A
:1049300010080807000000002020E0E02000000030
:1049400000002020E0202000000001073FF8C00008
:1049500000C03807000000000000000000010F1F29
:104960000E01000000000020E0E020200020E0E038
:1049700020000020E0602000001FFFE000E01D3F5D
:10498000FCC08078070000000000031F0700000043
:10499000031F0700000000002020E0E0A02000002E
:1049A00020A0E020200000000000000187DE3CF88D
:1049B000C681000000000000101018161100000051
:1049C00011171E1C101000002060E0E020200000E5
:1049D0000020A0E020200000000000030F3CF8E0D1
:1049E00018060100000000000000000010101F1F4A
:1049F00010100000000000000080606020202020D7
:104A000020E0E0602000000000000000C0E0781E10
:104A10000F0301000000000010181E1713101010E3
:104A20001010181C060000000000000000FC040428
:104A300004040404040000000000000000FF000063
:104A4000000000000000000000000000007F404067
:104A50004040404040000000000030E08000000086
:104A600000000000000000000000000001071C70B2
:104A7000C000000000000000000000000000000076
:104A800001071C70C00000000004040404040404B6
:104A9000FC0000000000000000000000000000001A
:104AA000FF00000000000000004040404040404047
:104AB0007F0000000000000000000010080C04044B
:104AC000040C0810000000000000000000000000BE
:104AD00000000000000000000000000000000000D6
:104AE00000000000000000000000000000000000C6
:104AF00000000000000000000000000000000000B6
:104B00000000000000000080808080808080808025
:104B100080808080808080000000000404040808F9
:104B20000000000000000000000000000000000085
:104B30000000000000000000000000000000000075
:104B40000000000000000000000000000000000065
:104B500000000000000000000098D84444442424D1
:104B600024F8F80000000000070F181010101008BB
:104B7000080F1F10100800002020E0F000000000C7
:104B800000000000000000000000FFFF1008040407
:104B900004040418F8E0000000001F0F08101010B3
:104BA0001010180C070300000000000000000000B7
:104BB000000000000000000000E0F01808040404F9
:104BC000040C3830000000000003070C181010100F
:104BD0001010080C0200000000000000000000009F
:104BE0002020E0F00000000000E0F0180C040404B5
:104BF0000408FFFF0000000000030F0C1810101045
:104C0000080C1F0F08080000000000000000000052
:104C1000000000000000000000E0F0484844444468
:104C200044444878600000000003070C081010108E
:104C30001010100804000000000000000080C040B8
:104C40002020202020E0C0000004040404FFFF0412
:104C5000040404040000000000001010101F1F10C6
:104C60001010100000000000000000000000000014
:104C70000000000000000000000070F88C04040434
:104C8000048CF8740C0C0000003076CF858D8D8D6F
:104C9000898988C8783000002020E0F000000000FA
:104CA00000000000000000000000FFFF10080404E6
:104CB00004040CFCF800000010101F1F101000006E
:104CC0000010101F1F1010000000000000006060A6
:104CD0006000000000000000000004040404FCFC6C
:104CE00000000000000000000000101010101F1F46
:104CF0001010101000000000000000000000000074
:104D0000000060606000000000000000000004047B
:104D10000404FCFC00000000000040C08080808093
:104D200080407F3F000000002020E0F000000000F5
:104D300000000000000000000000FFFF8080C0E0D5
:104D4000940C04040400000010101F1F1110000137
:104D5000131F1C1810100000000020202020E0F07D
:104D60000000000000000000000000000000FFFF45
:104D700000000000000000000000101010101F1FB5
:104D800010101010000000000000000000000000E3
:104D9000000000000000000004FCFC080404FCF813
:104DA000080404FCF8000000101F1F1000101F1F53
:104DB0001000101F1F100000000000000000000085
:104DC00000000000000000000404FCFC10080404C3
:104DD00004040CF8F800000010101F1F1010000051
:104DE0000010101F1F101000000000000000000045
:104DF000000000000000000000E0F01808040404B7
:104E000004040818F0E000000003070C081010105C
:104E10001010080C07030000000000000000000054
:104E200000000000000000000404FCFC180804045A
:104E300004040C18F8E000008080FFFF8890101038
:104E40001010180C07030000000000000000000014
:104E5000000000000000000000E0F0180804040456
:104E6000040408F8FC0000000003070C18101010E0
:104E7000108888FFFF808000000000000000000014
:104E8000000000000000000004040404FCFC2010EA
:104E9000080404040C0C0000101010101F1F101048
:104EA00010100000000000000000000000000000E2
:104EB0000000000000000000000030784CC4C484F2
:104EC00084840C0C1C000000001E1C181010101014
:104ED0001011190F06000000000000000000C000C3
:104EE00000000000000000000004040406FFFF04AE
:104EF000040404040000000000000000000F1F185C
:104F00001010100804000000000000000000000065
:104F100000000000000000000404FCFE000000008F
:104F2000000404FCFE00000000000F0F1810101019
:104F30001008081F0F080800000000000000000013
:104F4000000000000000000004041C7CE484000059
:104F500084641C040400000000000000030F1E0E07
:104F60000100000000000000000000000000000040
:104F700000000000000000040C3CFCC40004FC7CA9
:104F8000FC8400C43C0C04000000010F1E0700005C
:104F9000071F0E01000000000000000000000000DC
:104FA00000000000000000000004040C1C7CE4C0B1
:104FB000A4140C04040000001010181C16030101B6
:104FC000131F1C181010000000000000000000005B
:104FD000000000000000000004041C3CF4C40000B9
:104FE00000C43C0C0404000000C0C08080433F0E9D
:104FF00003000000000000000000000000000000AE
:105000000000000000000000001C0C040484C4E444
:10501000741C0C04000000000010181E171311105F
:105020001010101806000000000000000000000032
:1050300000F80C0404000000000000000000101044
:1050400028CF000000000000000000000000000069
:10505000003F60404000000000000000000000FF32
:10506000000000000000000000000000000000FF41
:10507000000000000000000000000000000000FF31
:1050800000000000000000000004040CF800000014
:10509000000000000000000000000000CF281010F9
:1050A0000000000000000000004040603F000000E1
:1050B0000000000000000000180C020202060C189C
:1050C0001020202010080000000000000000000058
:1050D00000000000000000000000000000000000D0
:1050E00000000000000000000000000000000000C0
:1050F00000000000000000000000000000000000B0
:10510000000000000000000000000000000000009F
:10511000000000000000000000000000000000008F
:10512000000000000000000000000000000000007F
:10513000000000008080808080808080808080806F
:1051400080808080800000000000000000000000DF
:1051500000000000000080C0E0F0F8FCFCC000008F
:10516000000000000000000000000000000000003F
:1051700000000000FFFFFF03030303030303030317
:105180000303073FFFFCE00000000000000000C038
:10519000F0F8F87C3C3FFFFFFF7F7F7F7F7F383850
:1051A0003838301000000000000000000080C0C04F
:1051B000E0E0E0E0FFFFFFC08080808080808080B2
:1051C00080808080818FBFFFF8C08080F0FCFF7FEF
:1051D0001F070100000000000000000000000000A8
:1051E000000000000000000000000078BEDFEFFFBC
:1051F000F77F7B7B7B7B7BF7F7EFEFDF7FFFFFFFAB
:10520000FFFFFFFFFFFF7FBFDFDFEFEFFFFFF1E0FB
:10521000E0E0C0800000000000000000000000008E
:105220000000000000000000000030FFFFFFEF0161
:10523000000000000000000001C7FFFFFF787F7F33
:105240007F7F7F7F3F79FFFFFF8701010000000123
:105250000183FFFFFFFC00000000000000000000D1
:1052600000000000000000000000000103070F1F05
:105270001E3C3C3C3C3C3C3E1F1F0F070100000015
:105280000000000000000107070F1F1E1E1E1E1E4B
:105290001F0F0F07030000000000000000000000C7
:1052A00000000000000000000000000000000000FE
:1052B00000000000000000000000000000000000EE
:1052C00000000000000000000000000000000000DE
:1052D00000000000000000000000000000000000CE
:1052E00000000000000000000000000000000000BE
:1052F00000000000000000000000000000000000AE
:10530000000000000000000000000000000000009D
:10531000000080C0E060E0C08000000000000000ED
:10532000000000000000000000000000000000007D
:10533000000000000000000000000000000000006D
:105340000000808080C0FC7C0C0C0C0C0C0C0C0C45
:105350000C0F1B19103030313B7B7BEFCFC7830024
:10536000000000000000000000000000000000003D
:10537000000000000000000000000000000000C06D
:10538000FCFFCFFB7F0F01000003030000000000C3
:105390000000000000000000000080F0FC1F03007F
:1053A00000000000000000000000000000000000FD
:1053B000000000000000000000000000000000806D
:1053C000F9FF1F03000000000000000070E8B8E0D3
:1053D000C080000000000000E0FC1F07000000008B
:1053E00000000000000000000000000000000000BD
:1053F00000000000000000000000000000C0FC7F72
:10540000070000000000000000000000000003078B
:105410000F1F1F3E3C88F87F0700000000000000BF
:10542000000000000000000000000000000000007C
:105430000000000000000000000000C0FCFF8780AA
:1054400080808000000000000000000000000000DC
:1054500000000000F8FF1F18383C0C0C0000000092
:10546000000000000000000000000000000000003C
:1054700000000080E070180C060703010101010123
:10548000010303030307060606060E0C0C0C0C1C96
:10549000181818181F3F7060C0808080808080C0FE
:1054A000C06070E08000000000000000000000000C
:1054B0000006060F010000000000000000000000D0
:1054C00000000000000000000000000000000000DC
:1054D00000000000000000000000010101010000C8
:1054E00000000000000000000000000000000000BC
:1054F00000000000000000000000000000000000AC
:10550000000000000000000000000000000000009B
:10551000000000008080C0C080000000000000008B
:10552000000000000000000000000000000000007B
:10553000000000000000000000000000000000006B
:10554000000080808080E0FC3E0E0E0E0E0C0C0CE5
:105550000C0C1E3F336161E3E7EFFCF8F8F8F880CC
:10556000000000000000000000000000000000003B
:10557000000000000000000000000000000000002B
:10558000E0FEFFE7FD3F070000030303000000000B
:105590000000000000000000000000C0F87F0F03C2
:1055A00000000000000000000000000000000000FB
:1055B000000000000000000000000000000000806B
:1055C000E0FD1F07000000000000000000307CF834
:1055D000F0F0E0C0C0808000C0F83E0F0300000083
:1055E00000000000000000000000000000000000BB
:1055F00000000000000000000000000000C0F87F74
:105600000700000000000000000000000000000093
:10561000010303070F8FFF7F0F0100000000000050
:10562000000000000000000000000000000000007A
:10563000000000000000000000000060FEFFC3C08A
:10564000C08080808000000000000000000000009A
:1056500000000000F8FF377070701030000000008C
:10566000000000000000000000000000000000003A
:1056700000000000000000000080E0381C0E06035F
:105680000301010303030307070606060E0C0C0CB7
:105690003C78D89F9F010080C0C00000000000003F
:1056A00000000000000000000000000000000000FA
:1056B00000000000000000080C0F0F0000000000B8
:1056C00000000000000000000000000000000000DA
:1056D00000000000010101010003000000000000C3
:1056E00000000000000000000000000000000000BA
:1056F00000000000000000000000000000000000AA
:105700000000000000000000000000008080808099
:105710008080000000000080808080808000000089
:105720000000000000000000000000000000000079
:105730000000000000000000000000000000000069
:105740000000000080E0E070F0F07E1F87C3E343BC
:1057500003030707071F3F7D71E1C18FBFFFF0E023
:10576000E0C0C08000000000000000000000000059
:105770000000000000000000000000000000000029
:105780000000003CFFFFFD3F0F0100000000000093
:105790000000000000000000000000010181F1FD98
:1057A0003F0F0300000000000000000000000000A8
:1057B00000000000000000000000000000000000E9
:1057C00000C0F87F1F030000000000000000000080
:1057D0000F1F3F3E7E7E7CFCFCF8F8F83E0F030076
:1057E00000000000000000000000000000000000B9
:1057F0000000000000000000000000000000E0F8D1
:105800007F0F010000000000000000000000000009
:1058100000000000000080F0FC1F030000000000FA
:105820000000000000000000000000000000000078
:10583000000000000000000000000000081E1F1B08
:10584000383838F0F0F0E0E0E0C0C0C0C080800040
:105850000000000080F8FF1F38787030E000000082
:105860000000000000000000000000000000000038
:105870000000000000000000000000000000000028
:10588000F8FC070301000000000101013FFFC30312
:105890000707060E0F0701000000000000000000CF
:1058A00000000000000000000000000000000000F8
:1058B00000000000000000000000000000000030B8
:1058C000371F180000000000000000000000010168
:1058D0000302020F070000000000000000000000AB
:1058E00000000000000000000000000000000000B8
:1058F00000000000000000000000000000000000A8
:105900000000000000000000000000000080C0C097
:10591000C0C0808080800080808000000000000087
:105920000000000000000000000000000000000077
:105930000000000000000000000000000000000067
:10594000000000000000C0F07898F8783E0F036176
:10595000610101010103037FF3C10383FFFE1E30D8
:105960003060E0C0C0000000000000000000000047
:105970000000000000000000000000000000000027
:1059800000000000008FFF791E0F030000000000E0
:105990000000808000000000010307060F0F8EC08A
:1059A000F83C0F03000000000000000000000000B1
:1059B00000000000000000000000000000000000E7
:1059C0000080E0F83E0F0100000000000000000031
:1059D0000002070F1F363C7C78F8F0F0F83E0F030A
:1059E00000000000000000000000000000000000B7
:1059F000000000000000000000000000000080F037
:105A0000FC1F030000000000000000000000000078
:105A100000000000000000C0F07E0F030000000046
:105A20000000000000000000000000000000000076
:105A3000000000000000000000000000000003075C
:105A4000060E0C0C1C181838F0F07060E0C0C0C0D6
:105A50008080800000E0FC3F6B7870E080000000F8
:105A60000000000000000000000000000000000036
:105A70000000000000000000000000000000000026
:105A80000000000000F83E7FFF80000000000001E1
:105A900001010303030303000000000100000000F4
:105AA00000000000000000000000000000000000F6
:105AB00000000000000000000000000000000000E6
:105AC00000000000607F7F300001030E0E04000024
:105AD00000000000000000000000000000000000C6
