:020000040800F2
:100000005009002049020008053400082B2D000883
:100010000134000801090008F9420008000000004E
:100020000000000000000000000000006D39000822
:10003000350900080000000039360008A93B000817
:1000400063020008630200086302000863020008FC
:1000500063020008630200086302000863020008EC
:1000600063020008630200086302000863020008DC
:1000700063020008630200086302000863020008CC
:100080006302000863020008630200080000000029
:1000900000000000000000000000000063020008F3
:1000A0007D3C000863020008630200086302000848
:1000B000630200086302000863020008630200088C
:1000C000630200086302000863020008630200087C
:1000D000630200088142000863020008000000007B
:1000E00063020008630200086302000800000000C9
:1000F0000000000000000000000000006302000893
:1001000000000000630200086302000863020008A8
:1001100000000000000000000000000000000000DF
:10012000630200086302000863020008630200081B
:100130006302000800000000000000000000000052
:100140000000000000000000000000006302000842
:1001500063020008630200086302000863020008EB
:1001600063020008630200080000000000000000B5
:10017000000000000000000000000000000000007F
:100180000000000063020008000000000000000002
:10019000630200086302000800F002F800F044F86F
:1001A0000AA090E8000C82448344AAF10107DA45D2
:1001B00001D100F039F8AFF2090EBAE80F0013F0E0
:1001C000010F18BFFB1A43F001031847C87700005E
:1001D000E8770000103A24BF78C878C1FAD85207EF
:1001E00024BF30C830C144BF04680C6070470000B1
:1001F0000023002400250026103A28BF78C1FBD830
:10020000520728BF30C148BF0B607047642900F017
:10021000BF80782900F0F880002070471FB504F0F7
:1002200087FA1FBD10B510BD00F08CFA1146FFF71C
:10023000F5FF04F01DFA00F0AAFA03B4FFF7F2FF8D
:1002400003BC04F07EF800000948804709480047D5
:10025000FEE7FEE7FEE7FEE7FEE7FEE7FEE7FEE776
:10026000FEE7FEE704480549054A064B70470000D3
:10027000693C000899010008500300205009002043
:100280005005002050050020704753EA020C00F092
:1002900069802DE9F04B4FF00006002B1FBFB3FA29
:1002A00083F503FA05F424FA05F65E4012BF1643FF
:1002B000B2FA82F502FA05F4C5F120051EBF22FA52
:1002C00005FC44EA0C04203556EA044C4FEA144479
:1002D00018BF641C4FF000084FF00009904271EB0A
:1002E000030C39D3002919BFB1FA81F701FA07F6D7
:1002F000B0FA80F700FA07F6C7F120071EBF20FA10
:1003000007FC46EA0C062037B6FBF4FCA7EB050712
:10031000103F07F01F0BCBF120060CFA0BFB2CFA59
:1003200006F644BFB3460026202FA4BF5E464FF01A
:10033000000B5BEA060C08BF4FF0010B19EB0B0931
:10034000ABFB027C48EB0608C01B06FB02CC0BFB98
:1003500003CC71EB0C01C1E70B460246414648460F
:10036000BDE8F08B13B54FF000004FF00001AFF384
:100370000080BDE81C4070470FB4044910B503AAC3
:10038000029800F0ADF910BC5DF814FB1C000020D1
:100390002DE9F0410646002410687529314616A55E
:1003A00010D0AFF30080002802DA404213A507E026
:1003B00031688A0701D512A502E0490704D511A5C5
:1003C000012401E0AFF3008000210A2206F1240796
:1003D00009E0B0FBF2FCB0FBF2F302FB1C00303092
:1003E00078541846491C0028F3D123462A46304643
:1003F000BDE8F04100F01AB9000000002D00000037
:100400002B0000002000000070B504460D46214678
:100410001068AFF300802188090502D50F4A7A449D
:1004200002E00E4A7A440E32002104F1240305E072
:1004300000F00F060009965D5E54491C0028F7D1B4
:1004400020780023000704D5702D02D009B10223C3
:1004500011322046BDE8704000F0E8B83675000063
:100460002DE9F05F894604464FF0000ADFF824B119
:10047000FB44C0F820A02046E168884700287DD0D2
:10048000252806D0D4E901219047206A401C20622B
:10049000F1E700255F462046E168884720280646A8
:1004A00007DB312E05D2B81910F8200C08B105432E
:1004B000F1E7A80701D525F00405C4F81CA0002722
:1004C000C4F818A02A2E09D0304603F033FF38B301
:1004D00004EB8708303EC8F8186019E059F8041B8F
:1004E000204604EB87029161E1688847012F0646A8
:1004F00018D1E069002820DA25F020051DE0D8F8A1
:10050000180000EB800006EB40003038C8F81800F7
:100510002046E1688847064603F00CFF0028EED12C
:10052000012F0AD02E2E08D12046E16888477F1C73
:100530000646022F45F02005C4DBA069002803DA37
:10054000404245F00105A061E80701D025F0100503
:10055000A6B1A6F14100192802D8203645F400655D
:100560004A463146204625604D46FFF74FFE60B1B2
:10057000012807D0ED1D25F0070000E007E000F19D
:10058000080978E705F1040975E730467AE7206A3B
:10059000BDE8F09F0C75000010B5431C02E010F898
:1005A000011B71B18107FAD14FF0013202C88C1AD8
:1005B0008C4314EAC211F9D0C01A0A0603D0C01E37
:1005C00010BDC01A10BD0A0401D0801E10BD090262
:1005D000FCD0401E10BD4FF0000200B513469446FB
:1005E0009646203922BFA0E80C50A0E80C50B1F18B
:1005F0002001BFF4F7AF090728BFA0E80C5048BF9F
:100600000CC05DF804EB890028BF40F8042B08BF3C
:10061000704748BF20F8022B11F0804F18BF00F838
:10062000012B704770477047704770472DE9F047BE
:100630000D4699469246044600F124080168880652
:1006400004D5E06921F01001216000E00120A842FA
:1006500001DD471B00E00027A1697A1902EB0900C0
:10066000081AA0612078C00602D42046AFF30080AB
:10067000002608E0D4E901211AF806009047206A14
:10068000401C761C20624E45F4DB2078C0060AD55B
:100690002046AFF3008006E0D4E9012130209047E6
:1006A000206A401C2062381EA7F10107F4DC07E035
:1006B000D4E9012118F805009047206A401C206207
:1006C000281EA5F10105F3DC2046AFF30080207859
:1006D000000602D50220BDE8F0870120FBE70000FC
:1006E000074B70B50D467B4400F011F804462846D0
:1006F00000F020F810B14FF0FF3070BD204670BD03
:10070000673D000001694A1C02610878704700B526
:100710008FB0CDE901310021059105497944CDE93A
:10072000031011466846FFF79BFE0FB000BD0000A6
:10073000E5FFFFFF007B00F0800070470048704736
:10074000F00200207546FFF7F9FFAE460500694646
:10075000534620F00700854618B020B5FFF782FD0C
:10076000BDE820404FF000064FF000074FF00008B2
:100770004FF0000B21F00701AC46ACE8C009ACE833
:10078000C009ACE8C009ACE8C0098D46704710B597
:100790000446AFF300802046BDE81040FFF74DBD92
:1007A00055494A6822F440324A604A6843681A430D
:1007B0004A600268526822F4807203685A600268D4
:1007C0005368026943EA022203685A600268526869
:1007D00022F0407203685A600268526883681A43C4
:1007E00003685A600268926822F4006203689A60A3
:1007F00002689268C3681A4303689A603F4B826A32
:100800009A4218D00268926822F0706203689A6077
:1008100002689268836A1A4303689A600268926861
:1008200022F0405203689A6002689268C36A1A43D1
:1008300003689A600BE00268926822F070620368B5
:100840009A600268926822F0405203689A600268D7
:10085000926822F0020203689A6002689368027E3E
:1008600043EA420203689A602022125CA2B1026845
:10087000526842F4006203685A600268526822F4C7
:10088000604203685A6002685368426A521E43EA33
:10089000423203685A6005E00268526822F400623E
:1008A00003685A600268D26A22F470020368DA624E
:1008B0000268D36A828B521E43EA02520368DA62EC
:1008C0000268926822F4007203689A600268936872
:1008D00090F8302043EA422203689A6002689268E6
:1008E00022F4806203689A6002689368426943EA6E
:1008F000822203689A607047002301400100000FC4
:1009000000BFFEE730B502464FF6FF7009E0C4B203
:10091000157884EA0503521C054C34F8134084EA28
:1009200010200C1EA1F10105E9B2F0D130BD00008C
:1009300058770008704772B600BFFEE710B500F0A8
:1009400025F80446B4F57A6F01DD032010BD40F2AE
:100950006C70844205DD40F69800844201DA042080
:10096000F4E7B4F5617F04DDB4F5966F01DA012098
:10097000ECE740F2E240844205DD40F20E60844242
:1009800001DA0220E2E70020E0E7000010B50024D1
:10099000084800F0C3F90A21064800F057F918B9D1
:1009A000044800F0DBF884B2024800F041FA204627
:1009B00010BD00000801002038B50246002000905C
:1009C00000BF92F83C00012801D1022038BD01206F
:1009D00082F83C0000BF0868092816D91068C06872
:1009E0000C780A3C04EB44050724AC40A04314688F
:1009F000E0600C780A3C04EB44048868A04014686A
:100A0000E46820431468E06013E0106800690C7823
:100A100004EB44050724AC40A043146820610C7823
:100A200004EB44048868A0401468246920431468D7
:100A300020614868072817D21068406B0C79641E43
:100A400004EB84051F24AC40A0431468606308884D
:100A500080B20C79641E04EB8404A0401468646BBB
:100A600020431468606331E048680D2817D210688D
:100A7000006B0C79E41F04EB84051F24AC40A043F9
:100A800014682063088880B20C79E41F04EB8404A6
:100A9000A0401468246B20431468206316E010689B
:100AA000C06A0C790D3C04EB84051F24AC40A043C4
:100AB0001468E062088880B20C790D3C04EB840471
:100AC000A0401468E46A20431468E0621E4B1F4C87
:100AD0001068A0420AD10868122807D1586820F48B
:100AE00000005860586840F480005860174C106847
:100AF000A04222D1164C0868A04202D008681128F2
:100B00001BD1586820F480005860586840F40000F9
:100B100058600F4C0868A0420FD10E4800680E4C78
:100B2000B0FBF4F000EB80004000009002E0009881
:100B3000401E009000980028F9D100BF002082F8E4
:100B40003C0000BF00BF41E70023014000200140FE
:100B5000120000101800002040420F0001460868F3
:100B6000C06C704770B5044600250CB9012070BDFB
:100B70001549A06A884200D000BF206C30B92046D9
:100B800000F024F80020606484F83C00206C00F041
:100B9000100088B9206C20F4885040F002002064D6
:100BA0002046FFF7FDFD00206064206C20F002006D
:100BB00040F00100206400E0012500BF002084F81F
:100BC0003C0000BF2846D2E70100000F10B586B0F8
:100BD0000446142101A8FFF7FEFC19492068884249
:100BE0002BD100BF002000901648006840F48070B0
:100BF000144908600846006800F48070009000BF47
:100C000000BF00BF002000900E481438006840F07C
:100C100001000C49143908600846006800F0010022
:100C2000009000BF00BF0820019003200290002028
:100C3000039001A9044800F09DF906B010BD000022
:100C400000200140443802400000024070B50446D4
:100C50000D4600262068806800F48060B0F5806F43
:100C600011D12068806800F48070B0F5807F0AD1CF
:100C7000206C40F02000206400BF002084F83C007D
:100C800000BF012070BD00F067FA064618E0681C3E
:100C9000B0B125B100F060FA801BA84210D92068DD
:100CA000006800F0020002280AD0206C40F0040026
:100CB000206400BF002084F83C0000BF0320E1E76F
:100CC0002068006800F002000228E0D16FF01200F6
:100CD00021680860206C40F40070206420688068FF
:100CE00000F04050B8B9207EA8B92068C06A00F46E
:100CF000700020B12068806800F4806058B9206CD2
:100D000020F480702064206C00F4805018B9206CAE
:100D100040F0010020640020B4E7000008B501465F
:100D20000020009000BF91F83C00012801D1022072
:100D300008BD012081F83C0000BF0868806800F011
:100D40000100A0B90868806840F001000B68986055
:100D500033480068334BB0FBF3F000EB40000090E9
:100D600002E00098401E009000980028F9D1086821
:100D7000806800F00100002848D0086C40F2016350
:100D8000984340F4807008640868406800F480600C
:100D900028B1086C20F4005040F480500864086CBE
:100DA00000F48050B0F5805F04D1486C20F006005C
:100DB000486401E00020486400BF002081F83C0046
:100DC00000BF194A6FF022000B681860506800F0ED
:100DD0001F0058B90868806800F04050F0B90868F2
:100DE000806840F080400B68986017E00F4B0868FF
:100DF000984213D10868806800F0405070B90868C4
:100E0000806840F080400B68986007E0086C40F014
:100E100010000864486C40F001004864002087E737
:100E20001800002040420F00002301400020014034
:100E3000014600BF91F83C00012801D10220704713
:100E4000012081F83C0000BF0868806820F00100A4
:100E50000A6890600868806800F0010028B9086C92
:100E600020F4885040F00100086400BF002081F8A1
:100E70003C0000BF00BFE2E770B50446A56D00F07E
:100E80006BF9064694F83500022808D0802060658A
:100E900000BF002084F8340000BF012070BD20682E
:100EA000006820F01600216808602068406920F082
:100EB000800021684861206C08B9A06C28B12068C6
:100EC000006820F00800216808602068006820F0B1
:100ED00001002168086010E000F03EF9801B052841
:100EE0000BD920206065032084F8350000BF002066
:100EF00084F8340000BF0320D0E72068006800F0C9
:100F000001000028E8D194F85C103F208840A860D8
:100F1000012084F8350000BF002084F8340000BFB1
:100F200000BFBBE7014691F83500022803D08020BE
:100F3000486501207047052081F835000868006881
:100F400020F001000A6810600020F3E770B5044645
:100F500000F002F906462546681C10B104480078E6
:100F6000054400BF00F0F8F8801BA842FAD370BD1A
:100F700014000020F8B502460B460025002400208E
:100F80000021C7E0012606FA01F51E6806EA0504FD
:100F9000AC4274D11E7906F00306012E04D01E79EE
:100FA00006F00306022E13D190684F000326BE40C0
:100FB000B0434F00DE68BE40304390605068012669
:100FC0008E40B0431E79C6F300168E403043506009
:100FD0001E7906F00306032E09D0D0684F000326C1
:100FE000BE40B0434F009E68BE403043D0601E7983
:100FF00006F00306022E13D1CF0802F1200656F8A0
:1010000027004E07F70E0F26BE40B0434F07FF0ED6
:101010001E69BE403043CF0802F1200646F8270083
:1010200010684F000326BE40B0431E7906F0030649
:101030004F00BE40304310605E6806F44036002E1C
:1010400067D000BF00260096344E366846F48046CE
:10105000324F3E603E46366806F48046009600BF3A
:1010600000BF2F4E8F0856F827008E07370F0F2628
:10107000BE40B0432B4EB24202D1002615E048E0FC
:10108000294EB24201D101260FE0284EB24201D1D1
:1010900002260AE0264EB24201D1032605E0254E83
:1010A000B24201D1042600E007268F073F0FBE4061
:1010B00030431B4E8F0846F827001F4E3068A04370
:1010C0005E6806F4801606B120431B4E3060361D64
:1010D0003068A0435E6806F4001606B12043164E41
:1010E000361D3060144E361F3068A0435E6806F42B
:1010F000003606B12043104E361F3060361F306870
:10110000A0435E6806F4803606B120430A4E083ECE
:101110003060491C1029FFF435AFF8BD4438024057
:10112000083801400000024000040240000802406C
:10113000000C024000100240083C014002461369C6
:101140000B400BB1012000E0002070470AB1816123
:1011500001E00B048361704701480068704700009C
:101160000C0000200348006803490978084401493D
:10117000086070470C0000201400002010B50D48D6
:10118000006840F400700B4908600846006840F4AD
:10119000806008600846006840F4807008600320A2
:1011A00000F0AAF8032000F007F800F02BF8002068
:1011B00010BD0000003C024070B504460E480078A7
:1011C0004FF47A71B1FBF0F00C490968B1FBF0F50E
:1011D000284601F054F808B1012070BD102C07D248
:1011E00000222146501E00F049F80548046001E045
:1011F0000120F2E70020F0E7140000201800002092
:101200001000002008B500BF0020009010480068C2
:1012100040F480400E4908600846006800F48040B1
:10122000009000BF00BF00BF00200090081F0068B2
:1012300040F08050091F08600846006800F08050A8
:10124000009000BF00BF052000F056F808BD000068
:10125000443802400146084600280DDB00BF00BFAD
:1012600000F01F0301229A4043099B0003F1E02391
:10127000C3F8002100BF00BF00BF70472DE9F05F39
:1012800080460D461646002703F038F807463946D3
:101290002A46334601F00700C0F1070ABAF1040FED
:1012A00002D94FF0040A01E0C0F1070AD14600F16B
:1012B000040ABAF1070F02D24FF0000A01E0A0F1D0
:1012C000030AD4464FF0010A0AFA09FAAAF1010A00
:1012D0000AEA020A0AFA0CFA4FF0010B0BFA0CFBAD
:1012E000ABF1010B0BEA030B4AEA0B042146404623
:1012F00003F00CF8BDE8F09F00BF00F00702064BBA
:1013000019684FF6FF031940044B0B4343EA0221CF
:10131000014B196000BF70470CED00E00000FA05BA
:10132000F8B5044600250026207800F0010020B919
:10133000207800F00400042831D10020604988663C
:10134000FFF70AFF054606E0FFF706FF401B0228ED
:1013500001D90320F8BD5B480068C0F3C0600028D5
:10136000F2D1D4E9011041EA8011207B41EA0070FA
:10137000544984310860012051498866FFF7ECFE2A
:10138000054606E0FFF7E8FE401B022801D90320CE
:10139000E0E74C480068C0F3C0600028F2D0207835
:1013A00000F0020002287DD100BF002000904548D7
:1013B0004030006840F080504249403108600846A3
:1013C000006800F08050009000BF00BF3E480068F9
:1013D00040F480703C490860FFF7BEFE054606E019
:1013E000FFF7BAFE401B022801D90320B2E73648B6
:1013F000006800F480700028F2D032487030006835
:1014000000F440764EB3208A00F44070B04224D0FD
:101410002C487030006820F4407601202B49086089
:1014200000200860274870300660006800F0010066
:1014300098B1FFF791FE054608E0FFF78DFE401BCF
:1014400041F28831884201D9032083E71D4870307A
:101450000068C0F340000028EFD000BF208A00F4ED
:101460004070B0F5407F0CD116480830006820F479
:10147000F810174A216911400843124908310860E1
:1014800007E010480830006820F4F8100D490831D2
:1014900008600C4870300068218AC1F30B010843D2
:1014A000084900E002E07031086000BF207800F0D9
:1014B0000800082802D1207D06490860002049E77D
:1014C000000047420038024000700040400E474292
:1014D000FFFCFF0FE011474270B504460D460CB902
:1014E000012070BD5848006800F00700A84209D2EA
:1014F00055490D700846006800F00700A84201D069
:101500000120EEE7207800F0020002281DD12078AB
:1015100000F00400042805D14C48006840F4E05075
:101520004A490860207800F00800082805D147489B
:10153000006840F46040454908604448006820F075
:10154000F000A168084341490860207800F00100DC
:10155000A8B36068012807D13C4808380068C0F388
:101560004040B8B90120BCE76068022802D060683A
:10157000032807D1354808380068C0F3406048B9EF
:101580000120AEE7314808380068C0F3400008B9D0
:101590000120A6E72D48006820F003006168084399
:1015A0002A490860FFF7D8FD064609E0FFF7D4FD99
:1015B000801B41F28831884202D9032091E707E07D
:1015C0002248006800F00C006168B0EB810FEDD19B
:1015D0001D48006800F00700A84209D91A490D709B
:1015E0000846006800F00700A84201D0012078E713
:1015F000207800F00400042807D11448006820F483
:10160000E050E168084311490860207800F00800C4
:10161000082808D10D48006820F46040216940EA9C
:10162000C1000A49086000F03FF808490968C1F3A1
:101630000311074A515CC840064908600648006823
:10164000FFF7BAFD00204CE7003C0240083802409A
:101650003A470008180000201000002001480068E8
:10166000704700001800002000B5FFF7F7FF04499D
:101670000968C1F38221034A515CC84000BD0000E3
:10168000083802404A47000800B5FFF7E7FF044961
:101690000968C1F34231034A515CC84000BD0000F3
:1016A000083802404A4700082DE9F0470024002589
:1016B0000026A1462548006800F00C0020B104284F
:1016C00005D008283AD105E0DFF8849039E0DFF84A
:1016D000849036E01D48001F006800F03F041B485E
:1016E000001F006800F4800078B11A481749091FEC
:1016F0000968C1F38811A0FB01700146224600234E
:101700003846FEF7C2FD05460EE011480F49091F95
:101710000968C1F38811A0FB01700146224600232D
:101720003846FEF7B2FD05460848001F0068C0F3C2
:101730000140401C4600B5FBF6F902E0DFF81090CE
:1017400000BF00BF4846BDE8F087000008380240EF
:101750000024F40040787D01F8B504460CB901205E
:10176000F8BD207800F00100002874D0F948006826
:1017700000F00C0004280DD0F648006800F00C00C2
:10178000082813D1F348001F006800F48000B0F56A
:10179000800F0BD1EF4808380068C0F340400028A4
:1017A00059D06068002856D10120D9E700BF606891
:1017B000B0F5803F08D1E7480838006840F4803031
:1017C000E449083908601EE06068B0F5A02F0DD12B
:1017D000E0480838006840F48020DE490839086095
:1017E0000846006840F4803008600CE0D9480838AA
:1017F000006820F48030D74908390860084600683E
:1018000020F48020086000BF606890B1FFF7A4FC5E
:10181000054606E0FFF7A0FC401B642801D9032021
:101820009EE7CC4808380068C0F340400028F1D05B
:1018300011E0FFF791FC054606E0FFF78DFC401B29
:10184000642801D903208BE7C24808380068C0F338
:1018500040400028F1D1207800F0020002285FD13A
:10186000BC48006800F00C0058B1BA48006800F0AD
:101870000C0008281CD1B748001F006800F4800045
:10188000B0B9B44808380068C0F3400020B1E0683F
:10189000012801D0012063E7AE480838006820F035
:1018A000F800216940EAC100AA490839086037E018
:1018B000E06800B30120A8490860FFF74DFC054629
:1018C00006E0FFF749FC401B022801D9032047E747
:1018D000A04808380068C0F340000028F1D09D48B7
:1018E0000838006820F0F800216940EAC1009949F1
:1018F0000839086014E0002097490860FFF72CFCC5
:10190000054606E0FFF728FC401B022801D903200A
:1019100026E7904808380068C0F340000028F1D15D
:10192000207800F0080008282CD16069A8B10120B7
:101930008A490860FFF710FC054606E0FFF70CFC3B
:10194000401B022801D903200AE782486C30006856
:10195000C0F340000028F1D014E000207F49086067
:10196000FFF7FAFB054606E0FFF7F6FB401B0228EF
:1019700001D90320F4E677486C300068C0F34000DA
:101980000028F1D1207800F00400042870D100274D
:1019900070483830006800F0805090B900BF0020D7
:1019A00000906C483830006840F080506949383108
:1019B00008600846006800F08050009000BF00BF3B
:1019C00001276748006800F48070B0B96448006877
:1019D00040F4807062490860FFF7BEFB054606E0F0
:1019E000FFF7BAFB401B022801D90320B8E65C4888
:1019F000006800F480700028F2D000BFA0680128C1
:101A000008D154486830006840F0010051496831FD
:101A100008601DE0A06805280DD14E4868300068B8
:101A200040F004004B49683108600846006840F007
:101A3000010008600CE047486830006820F00100B1
:101A40004449683108600846006820F004000860D6
:101A500000BFA068A8B1FFF77FFB054609E0FFF7CC
:101A60007BFB401B41F28831884202D9032077E694
:101A700026E0384868300068C0F340000028EED007
:101A800013E0FFF769FB054608E0FFF765FB401B25
:101A900041F28831884201D9032061E62D4868303F
:101AA0000068C0F340000028EFD1012F07D129487A
:101AB0003830006820F0805026493831086000BF77
:101AC000A069002845D02348006800F00C000828D1
:101AD0005DD0A069022845D100201F490866FFF7A4
:101AE0003BFB054606E0FFF737FB401B022801D908
:101AF000032035E6174808380068C0F34060002826
:101B0000F1D1D4E907010843616A40EA8111012259
:101B1000A06AC2EB500041EA00412C20005D41EA7E
:101B200000600C49091F086001200B490866FFF797
:101B300013FB054606E0FFF70FFB401B022801D907
:101B400003200DE6034808380068C0F34060002811
:101B5000F1D049E00838024000004742800E474279
:101B600000700040002021490866FFF7F5FA05469D
:101B700006E0FFF7F1FA401B022801D90320EFE548
:101B80001B480068C0F340600028F2D12CE0A06937
:101B9000012800D1E4E51648001D0668A069012867
:101BA00020D006F48001E06981421BD106F03F019C
:101BB000206A814216D147F6C0703040616AB0EBAE
:101BC000811F0FD106F440310122A06AC2EB500000
:101BD000B1EB004F06D106F070612C20005DB1EB37
:101BE000006F01D00120BBE50020B9E500004742AD
:101BF0000038024070B505460B461646002428689A
:101C000040680E4900EA0104200CD870C4F3042097
:101C1000587004F03F009870C4F3423018705EB9F9
:101C2000D87801F00AFDD870587801F006FD587098
:101C3000987801F002FD9870002070BD3FFFFF0012
:101C400070B504460B46164600252068806A586029
:101C500020680069C0F30E009860206800680E4993
:101C600000EA0105C5F305401870C5F30620587059
:101C700005F07F009870A80DD8705EB9187801F053
:101C8000DCFC1870587801F0D8FC5870987801F096
:101C9000D4FC9870002070BD7F7F7F0070B5044633
:101CA0000CB9012070BD607F20B90020207720464C
:101CB00000F04EF8022060772068C068C0F3001082
:101CC00000283CD100BFCA20216848625320216807
:101CD000486200BF204601F0C8FC0546EDB9206807
:101CE00080681A4908402168886021696068084353
:101CF0006169084321688968084321688860216810
:101D0000E068086120680169208941EA0040216893
:101D10000861204601F0CEFC05465DB92068006CE4
:101D200020F48020216808642068006CA1690843C1
:101D30002168086400BFFF202168486200E0002598
:101D40000DB9012060772846ACE70000BFFF8FFF88
:101D500010B586B0044618216846FEF73CFC0949D8
:101D6000206888420CD102200090C001049068468F
:101D7000FFF7D6FA08B1FEF7DEFD01200249086040
:101D800006B010BD002800403C0E47422DE9F0414E
:101D900005460C4617464FF0000800BF287F012873
:101DA00002D10220BDE8F0810120287700BF022087
:101DB00068774FB9607800F01000102804D160787F
:101DC00000F0EF000A30607087B9E07801F040FC65
:101DD0000304607801F03CFC43EA0023A07801F0A2
:101DE00037FC0343207843EA403809E0E0780004F8
:101DF000617840EA0120A1780843217840EA41381F
:101E000000BFCA202968486253202968486200BF81
:101E1000284601F02AFC064646B90B4808EA0000AD
:101E200029684860284601F045FC06460EB90120A5
:101E3000687700BFFF202968486200BF00BF00200C
:101E4000287700BF3046ADE73FFFFF002DE9F041A6
:101E500004460D4617464FF0000800BF207F0128BA
:101E600002D10220BDE8F0810120207700BF0220CE
:101E70006077CFB92068806800F0400000B102E0D0
:101E80000020E87000BF287801F0E2FB03046878C6
:101E900001F0DEFB43EA0023A87801F0D9FB0343FD
:101EA000E87843EA805812E02068806800F040003B
:101EB00000B102E00020E87000BF287800046978D3
:101EC00040EA0120A9780843E97840EA815800BF38
:101ED000CA202168486253202168486200BF20461A
:101EE00001F0C3FB0646B6B9124808EA00002168B3
:101EF00008602068806820F4802021688860D5E927
:101F000003010843216889680843216888602046E6
:101F100001F0D0FB06460EB90120607700BFFF201C
:101F20002168486200BF00BF0020207700BF304614
:101F300098E700007F7F7F0070B5044600250B48BE
:101F40002168C860FFF708F9054607E0FFF704F9C4
:101F5000401BB0F57A7F01D9032070BD2068C068AE
:101F600000F020000028F1D00020F6E75F3F0100DC
:101F700010B504460CB9012010BD606A38B960681C
:101F8000B0F5827F00D105E00021E16102E000218F
:101F9000216161610021A16294F8510028B90020FB
:101FA00084F85000204600F047F8022084F85100E1
:101FB0002068006820F0400021680860A08800F4D4
:101FC0008270218901F404410843A18901F4006170
:101FD0000843217C01F002010843217D01F0010149
:101FE0000843218B01F400710843217F01F038017F
:101FF00008432021095D01F080010843218D01F48F
:1020000000510843216808600421A06901EA1040DA
:1020100094F8241001F010010843216848602068FA
:10202000C06920F400602168C8610020606501205B
:1020300084F8510000209FE710B586B004461421B3
:1020400001A8FEF7C8FA1B49206888422FD100BFBB
:10205000002000901848006840F48050164908603D
:102060000846006800F48050009000BF00BF00BF29
:102070000020009010481438006840F002000E491B
:10208000143908600846006800F00200009000BFA4
:1020900000BF28200190022002900020039003201E
:1020A00004900520059001A90448FEF763FF06B0DF
:1020B00010BD0000003001404438024000040240DE
:1020C0002DE9F84304460F4616461D46FFF744F82F
:1020D0008046B14694F85100012802D00220BDE8A4
:1020E000F88307B10EB90120F9E700BF94F850005A
:1020F000012801D10220F2E7012084F8500000BF3E
:10210000032084F85100002060652763A686E686D8
:10211000A063A087E08760642064A068B0F5004FEA
:102120000BD12068006820F040002168086020681A
:10213000006840F48040216808602068006800F072
:102140004000402805D02068006840F04000216829
:102150000860E068B0F5006F37D1606810B1B9F180
:10216000010F09D1206B00882168C860206B801C9A
:102170002063E08E401EE08623E02068806800F047
:10218000020002280AD1206B00882168C860206BF9
:10219000801C2063E08E401EE08612E0FEF7DCFF2C
:1021A000A0EB0800A84201D3681C00B94DB901207A
:1021B00084F8510000BF002084F8500000BF0320C5
:1021C0008DE7E08E0028D8D136E0606810B1B9F113
:1021D000010F09D1206B007821680873206B401C27
:1021E0002063E08E401EE08623E02068806800F0D7
:1021F000020002280AD1206B007821680873206B46
:10220000401C2063E08E401EE08612E0FEF7A4FF33
:10221000A0EB0800A84201D3681C00B94DB9012009
:1022200084F8510000BF002084F8500000BF032054
:1022300055E7E08E0028D8D142462946204601F0D5
:10224000E5FA08B120206065A06850B900BF002001
:1022500000902068C068009020688068009000BFEF
:1022600000BF012084F8510000BF002084F8500016
:1022700000BF606D08B1012031E700202FE770B585
:1022800004462546681EB0F1807F01D301200FE08F
:10229000681E4FF0E02148610F214FF0FF3002F03F
:1022A00035F800204FF0E021886107200861002008
:1022B00070BD7047704710B504460CB9012010BDC1
:1022C00094F83D0028B9002084F83C00204600F036
:1022D00025F8022084F83D00211D206801F0D6FC7D
:1022E000012084F8460000BF84F83E0001213F2011
:1022F0000155402001554120015500BF00BF01207C
:1023000084F84200432001554420015545200155E1
:1023100000BF012084F83D000020D0E738B5044616
:1023200018492068884218D100BF00200090164844
:10233000006840F48030144908600846006800F4E2
:102340008030009000BF00BF002202211820FEF75D
:1023500095FF1820FEF77EFF13E00C4920688842A5
:102360000FD100BF002000900748006840F4802093
:10237000054908600846006800F48020009000BF0E
:1023800000BF38BD004001404438024000480140D1
:10239000014691F83D00012801D00120704702203C
:1023A00081F83D00164B0868984213D00868B0F1D8
:1023B000804F0FD0134B086898420BD0124B08681F
:1023C000984207D0114B0868984203D0104B086818
:1023D00098420CD10868806800F00702062A0CD0E9
:1023E0000868006840F001000B68186005E00868A4
:1023F000006840F001000B6818600020CEE7000084
:10240000000001400004004000080040000C0040B3
:10241000004001402DE9F04104460D46002700BF71
:1024200094F83C00012802D10220BDE8F08101208F
:1024300084F83C0000BF022084F83D0020688668D4
:1024400026F0770626F47F462068866028685028A4
:1024500033D00CDC202850D004DC00284BD01028CE
:1024600051D149E0302849D040284CD139E060288A
:102470002DD0702807D0B0F5805F03D0B0F5005F95
:1024800041D10DE041E0D5E902136A68206801F00E
:1024900053FC2068866846F077062068866034E042
:1024A000D5E902136A68206801F046FC206880685C
:1024B00040F480402168886027E0EA686968206805
:1024C00001F04EFC5021206801F041FC1DE0EA685B
:1024D0006968206801F057FC6021206801F037FC32
:1024E00013E0EA686968206801F03AFC402120683E
:1024F00001F02DFC09E000BF00BF00BF2968206883
:1025000001F025FC01E0012700BF00BF012084F895
:102510003D0000BF002084F83C0000BF384684E73F
:10252000704770B504462068C5682068066906F0E3
:102530000200022819D105F00200022815D1401F1F
:1025400021680861012020772068806900F003007D
:1025500018B12046FFF7E4FF05E0204600F097F8A9
:10256000204600F095F80020207706F004000428AB
:1025700019D105F00400042815D1C0432168086171
:10258000022020772068806900F4407018B120464E
:10259000FFF7C6FF05E0204600F079F8204600F07E
:1025A00077F80020207706F00800082819D105F0F8
:1025B0000800082815D1C04321680861042020774D
:1025C0002068C06900F0030018B12046FFF7A8FF9B
:1025D00005E0204600F05BF8204600F059F80020A6
:1025E000207706F01000102819D105F010001028EF
:1025F00015D1C04321680861082020772068C06990
:1026000000F4407018B12046FFF78AFF05E020462D
:1026100000F03DF8204600F03BF80020207706F05F
:10262000010048B105F0010030B16FF001002168F0
:102630000861204600F02EF806F08000802809D1BD
:1026400005F08000802805D1C0432168086120463C
:10265000FFF72FFE06F04000402809D105F04000AA
:10266000402805D1C04321680861204600F076F873
:1026700006F02000202809D105F02000202805D1EF
:10268000C043216808612046FFF714FE70BD704703
:102690007047000038B504462949206888424DD16A
:1026A0006FF0010027490968086127480068401C4D
:1026B0002549086008464068401C48600846806814
:1026C000401C88600846C068401CC8600846006915
:1026D000401C0861084640680A2803D3002048606F
:1026E00000F05AFB18488068B0F57A7F08D30020C4
:1026F00015498860012015490873154800F0D8FB7A
:102700001148C068642819D300200F49C8601148D7
:102710001149097800EB412040231A46002100901E
:10272000084600F03EFF0C480078401C0A4908703B
:1027300008460078062801DB0020087038BD00003C
:1027400000400140C8010020BC020020AC02002073
:10275000A002002063640008080000207047704752
:10276000704700002DE9F84F04462068056820688E
:10277000C668206847694FF00009CA4605F00F098E
:10278000B9F1000F0AD105F0200038B106F02000A1
:1027900020B1204601F05AFBBDE8F88FB9F1000FD7
:1027A0007CD007F0010018B906F49070002875D0AD
:1027B00005F0010030B106F4807018B1606C40F093
:1027C0000100606405F0040030B107F0010018B1A9
:1027D000606C40F00200606405F0020030B107F068
:1027E000010018B1606C40F00400606405F008005E
:1027F00048B106F0200010B907F0010018B1606C74
:1028000040F008006064606C002846D005F02000AD
:1028100028B106F0200010B1204601F017FB206817
:102820004069C0F3801A606C00F0080010B9BAF17A
:10283000000F2DD0204601F0C3FA2068406900F057
:102840004000402820D100BF00BF2168143151E86A
:10285000001F21F040002168143141E80002002AE5
:10286000F3D100BFE06B50B17F48E16B0865E06BCE
:10287000FEF758FB88B1E06B016D88470DE02046FC
:10288000FFF76EFF09E009E02046FFF769FF04E06B
:102890002046FFF765FF002060647DE7206B01287C
:1028A00078D105F01000002874D006F01000002840
:1028B000FAD000BF002000902068006800902068D7
:1028C0004068009000BF00BF2068406900F04000F1
:1028D000402870D1E06B006840681FFA80F8B8F1BA
:1028E000000F58D0A08D404555DDA4F82E80E06B38
:1028F000C069B0F5807F43D000BF00BF21680C31B4
:1029000051E8001F21F4807021680C3141E8000279
:10291000002AF3D100BF00BF00BF2168143151E885
:10292000001F21F001002168143141E80002002A53
:10293000F3D100BF00BF00BF2168143151E8001F70
:1029400021F040002168143141E80002002AF3D14F
:1029500000BF202084F842000020206300BF00BF99
:1029600021680C3151E8001F21F0100021680C3162
:1029700041E80002002AF3D100BFE06BFEF77CFAC9
:1029800002206063A08DE28D801A81B22046FFF79D
:10299000E6FE0EE052E0A08D40450AD1E06BC06932
:1029A000B0F5807F05D102206063A18D2046FFF73E
:1029B000D6FEF1E6FFE7A08DE18D401A1FFA80F800
:1029C000E08DD0B3B8F1000F37D000BF00BF216851
:1029D0000C3151E8001F21F4907021680C3141E85E
:1029E0000002002AF3D100BF00BF00BF21681431EC
:1029F00051E8001F21F001002168143141E8000274
:102A0000002AF3D100BF202084F842000020206378
:102A100000BF00BF21680C3151E8001F21F01000F9
:102A200021680C3141E80002002AF3D100BF0220E6
:102A3000606341462046FFF792FEADE605F0800058
:102A400030B106F0800018B1204601F0A3FBA3E6E8
:102A500005F0400030B106F0400018B1204601F00A
:102A6000E5F999E600BF97E6AF3D000810B50446CA
:102A70000CB9012010BDA06900B100E000BF94F8BE
:102A8000410028B9002084F84000204600F02AF8D0
:102A9000242084F841002068C06820F40050216898
:102AA000C860204601F060FA2068006920F4904078
:102AB000216808612068406920F02A002168486187
:102AC0002068C06840F400502168C860002060643D
:102AD000202084F8410084F842000020606300BF99
:102AE000C8E7000010B586B00446142101A8FDF720
:102AF00072FD1F492068884238D100BF0020009035
:102B00001C48006840F010001A4908600846006838
:102B100000F01000009000BF00BF00BF0020009038
:102B200014481438006840F0010012491439086054
:102B30000846006800F00100009000BF00BF4FF49D
:102B4000C0600190022002900020039003200490B6
:102B50000720059001A90848FEF70CFA0222114649
:102B60002520FEF78BFB2520FEF774FB06B010BD79
:102B700000100140443802400000024070472DE937
:102B8000F84F04460E46174699464FF0000A94F84F
:102B90004100202850D106B117B90120BDE8F88FB7
:102BA00000206064212084F84100FEF7D5FA8246B7
:102BB000A784E784A068B0F5805F04D1206910B9CC
:102BC0000025B04602E035464FF000081EE05346AF
:102BD000002280212046CDF8009001F00BFB20B1AF
:102BE000202084F841000320D8E745B9B8F8000058
:102BF000C0F308002168486008F1020803E0287863
:102C0000216848606D1CE08C401EE084E08C002848
:102C1000DDD15346002240212046CDF8009001F03E
:102C2000E9FA20B1202084F841000320B6E72020F3
:102C300084F841000020B1E70220AFE770470000B0
:102C400010B5012204210948FEF780FA0122022171
:102C50000648FEF77BFA00224FF400510448FEF7C5
:102C600075FA3220FEF772F910BD00000000024034
:102C70000008024010B586B018216846FDF7ABFC8D
:102C800000201149086100BF0F48006941F28831F6
:102C9000884202D3002006B010BD69460B4800F000
:102CA00025F8044621460AA0FDF766FB9DF80610AC
:102CB0000AA0FDF761FB002CE6D09DF80600002875
:102CC000E2D00120E7E70000BC0200206E000020F7
:102CD000737461203D2025640D0A000072657375D0
:102CE0006C743A307825780D0A0000002DE9F04127
:102CF00005460C464FF001081221281DFDF702FE83
:102D00000646EE82284600F030F8204600F00FF824
:102D10001221201DFDF7F6FD0646E78ABE4201D0CE
:102D20004FF000084046BDE8F08100BFFEE770B5F7
:102D3000054601F05BFCCD2001F024FC01F098FB7E
:102D400000240DE001F0C0FB2855172C03D1012011
:102D500001F0EEFB02E0002001F0EAFB601CC4B2CF
:102D6000182CEFDB01F066FC70BD70B5054601F074
:102D70003DFCCC2001F006FC01F07AFB002406E0CB
:102D8000285D01F0FFFB01F073FB601CC4B2182C3E
:102D9000F6DB01F04FFC70BD70B5FDF7CFFD0546C9
:102DA0003E480078854220D03C480078D8B9D5B15B
:102DB000012D06D0022D08D0032D0AD0042D10D1EC
:102DC0000BE00120364908700CE0022034490870FD
:102DD00008E003203249087004E0042030490870FC
:102DE00000E000BF00BF2D48057001212D48FEF70F
:102DF000A5F904462C480088401C2B4908802B4824
:102E00000078052847D2DFE800F0030C1A2D4100B6
:102E1000012C05D100202449088001202349087095
:102E200039E0012C07D120480088022806DB022067
:102E30001E49087002E000201C4908702BE034B9DC
:102E400000201949088003201849087009E0164835
:102E50000088462805DB0420144908700720104923
:102E6000087018E0104800881E2806DD05200C496F
:102E7000087000200D49087007E0012C05D10620DC
:102E80000749087004200949087004E014B90020BB
:102E90000649087000BF00BF70BD0000210000207F
:102EA000200000200000024024000020220000201A
:102EB00070B504463B2000F083F805463C2000F046
:102EC0007FF8064646EA052000B2E0803D2000F08B
:102ED00077F805463E2000F073F8064646EA0520DE
:102EE00000B220813F2000F06BF80546402000F042
:102EF00067F8064646EA052000B26081432000F0EC
:102F00005FF80546442000F05BF8064646EA0520D7
:102F100000B22080452000F053F80546462000F01E
:102F20004FF8064646EA052000B26080472000F0D0
:102F300047F80546482000F043F8064646EA0520D3
:102F400000B2A08070BD000010B513A0FDF714FA08
:102F5000752000F035F80446214616A0FDF70CFA5E
:102F600000216B2000F05DF8322001F0EDF9002126
:102F70006C2000F056F818211B2000F052F81821A0
:102F80001C2000F04EF80721192000F04AF8062115
:102F90001A2000F046F810BD4D505536303530201F
:102FA000496E697469616C697A6174696F6E0D0A42
:102FB0000000000049443A2523780D0A0000000073
:102FC00070B5054600F0AEFDD02000F071FD00F0B8
:102FD000DDFC04461CB100F0C9FD012070BD28468F
:102FE00000F066FD00F0D2FC04461CB100F0BEFD0E
:102FF0000220F3E700F096FDD12000F059FD00F02B
:10300000C5FC04461CB100F0B1FD0120E6E700F06C
:10301000E7FC0646012000F019FD00F0A7FD304650
:10302000DCE770B506460D4600F07CFDD02000F0D0
:103030003FFD00F0ABFC04461CB100F097FD012001
:1030400070BD304600F034FD00F0A0FC04461CB119
:1030500000F08CFD0220F3E7284600F029FD00F087
:1030600095FC04461CB100F081FD0320E8E700F068
:103070007DFD0020E4E700001FB5002000900190D6
:10308000029003901548164908604FF4803048605C
:103090000021134881600161017680F82010C1622F
:1030A000104981620021C1600121C161002180F8C5
:1030B000301001214161FDF755FD08B1FDF73BFCE2
:1030C00003200090012001900020029069460448EE
:1030D000FDF772FC08B1FDF72EFC1FBD002001407A
:1030E000080100200100000F00B587B0142102A8DC
:1030F000FDF771FA00BF002001904B48006840F0D6
:103100000400494908600846006800F00400019086
:1031100000BF00BF00BF002001900846006840F0DB
:10312000800008600846006800F08000019000BF41
:1031300000BF00BF002001900846006840F0010079
:1031400008600846006800F00100019000BF00BF61
:1031500000BF002001900846006840F002000860AF
:103160000846006800F00200019000BF00BF012285
:1031700051032E48FDF7EAFF012248F286012C4850
:10318000FDF7E4FF00224FF480612A48FDF7DEFFDF
:1031900001224FF40E512748FDF7D8FF4FF400509D
:1031A00002900120039000200490059002A91F487E
:1031B000FDF7E0FE0120029000200390049002A998
:1031C0001B48FDF7D7FE0620029011200390002037
:1031D0000490059002A91648FDF7CCFE48F2800045
:1031E00002900120039000200490059002A910484D
:1031F000FDF7C0FE4FF41250029001200390002012
:103200000490059002A90B48FDF7B4FE4FF44070FE
:1032100002901120039000200490059002A9054817
:10322000FDF7A8FE07B000BD30380240000802409C
:10323000000002400004024000B587B0142102A83B
:10324000FDF7C9F9002001901B481C4908600020C7
:1032500048607F2119488160FF21C1600021016120
:1032600041618161FEF71AFD08B1FDF764FB0020A2
:103270008DF808008DF809008DF80A000590069079
:10328000012202A90D48FEF7E1FD08B1FDF753FB4D
:1032900001208DF804008DF805008DF8060000204F
:1032A0008DF80700012201A90448FEF76FFD08B15F
:1032B000FDF741FB07B000BD002800405001002091
:1032C00010B50E480E4908604FF482704860002126
:1032D0000B488160C1600221016101214161490205
:1032E00081610021C1610162416281620A21C16282
:1032F000FEF73EFE08B1FDF71EFB10BD0030014099
:103300007001002010B50A480A4908600020486092
:103310000021084881604FF6FF71C1600021016102
:103320008161FEF7C8FF08B1FDF705FB10BD000085
:1033300000480140100200201FB5002000900190BD
:1033400002900390124813490860632048600021EE
:103350001048816040F2E731C16000210161816164
:10336000FEF7A9FF08B1FDF7E6FA4FF48050009090
:1033700069460848FFF74EF808B1FDF7DCFA054842
:103380000068C06840F0010002490968C8601FBDBC
:1033900000400140C801002010B5174817490860D7
:1033A0004FF4E1304860002114488160C160016140
:1033B0000C21416100218161C161FFF757FB08B118
:1033C000FDF7B9FA0D480068C06840F020000B49CD
:1033D0000968C86009480068C06840F010000749E3
:1033E0000968C86005480068C06840F40050034997
:1033F0000968C86010BD000000100140580200209C
:1034000000BFFEE700BFFEE770B5054600241FE0E1
:1034100004F1B001C8B2002100F0ECF80021084628
:1034200000F0E8F80021102000F0E4F800260BE09E
:1034300025B90121002000F0DDF803E00121FF2083
:1034400000F0D8F8701CC6B2842EF1DB601CC4B248
:10345000082CDDDB70BD10B500F078F80021AE203F
:1034600000F0C8F80021022000F0C4F8002110206C
:1034700000F0C0F80021402000F0BCF800218120BD
:1034800000F0B8F80021FF2000F0B4F80021A120DE
:1034900000F0B0F80021C82000F0ACF80021A62010
:1034A00000F0A8F80021A82000F0A4F800213F2097
:1034B00000F0A0F80021D32000F09CF8002108467D
:1034C00000F098F80021D52000F094F80021802029
:1034D00000F090F80021D92000F08CF80021F120B4
:1034E00000F088F80021DA2000F084F80021122092
:1034F00000F080F80021DB2000F07CF80021402063
:1035000000F078F80021202000F074F8002102205B
:1035100000F070F800218D2000F06CF800211420DC
:1035200000F068F80021A42000F064F80021A62033
:1035300000F060F80021AF2000F05CF80021AF201F
:1035400000F058F80020FFF75FFF10BD10B5002213
:103550004FF400510748FDF7F9FD642000F0F4FE38
:10356000012251030348FDF7F1FD642000F0ECFE59
:1035700010BD00000004024070B505460C4605F180
:10358000B001C8B2002100F035F8102141EA241042
:10359000002100F02FF804F00F00002100F02AF8BD
:1035A00070BD2DE9F0470746894615469846DDF877
:1035B00020A0002413E03919C8B24946FFF7DCFF08
:1035C000002608E005FB04611AF80100012100F063
:1035D00011F8701CC6B2AE42F4DB601CC4B208F134
:1035E0000700C11700EB5171B4EBE10FE3DBBDE85D
:1035F000F087000070B505460C46002280210C487B
:10360000FDF7A4FD2CB10122D1030A48FDF79EFD70
:1036100005E000224FF400410648FDF797FD2846DB
:1036200000F0EAF8012280210148FDF78FFD70BD0E
:1036300000040240000002407047014600BF080934
:1036400000EB8000420001F00F001044C0B2704750
:103650000146002203E0521CA1F10A00C1B20A296E
:10366000F9D2100741EA1060704770B50446002691
:1036700000252068C06800F04000C8B92068C06814
:1036800040F080002168C860FDF766FD064608E04E
:10369000FDF762FD801BB0F57A7F02D904206077C8
:1036A00001252068C06800F0400008B9012DEFD165
:1036B000284670BD70B5044600252068C06820F01B
:1036C00080002168C8602068806800F0200030B960
:1036D0002046FEF731FC10B1042060770125284612
:1036E00070BD000010B586B00446142101A8FCF797
:1036F00072FF00200090002201A91048FEF7A0FAF6
:10370000002269460D48FEF775FA9DF8030000F5A2
:10371000FA6020809DF80100A0709DF80200E07022
:103720009DF8000020719DF8040060719DF805006F
:10373000A0719DF80600E07106B010BD5001002098
:1037400030B587B00446142102A8FCF744FF0020DE
:103750000190012560798DF80800A0798DF80900A5
:10376000E0798DF80A00002005900690002202A959
:103770000D48FEF76BFB054615B1284607B030BD76
:1037800020798DF80400A0788DF80500E0788DF898
:10379000060020788DF80700002201A90248FEF7F4
:1037A000F5FA05462846E9E75001002010B500F07B
:1037B000DFF8002400F0B6F9802000F079F900F07D
:1037C000E5F80446012C03D100F0D0F9012010BD2A
:1037D000FE2000F06DF900F0D9F80446012C03D169
:1037E00000F0C4F90220F2E700F0C0F9142000F064
:1037F000ABFD0020EBE7000001B564230122694620
:103800000148FEF75DFC08BD700100207CB5044650
:103810000E4615463346012202212046009500F04F
:1038200039F828B1606D40F02000606503207CBD50
:10383000164800681821B0FBF1F01549B0FBF1F013
:103840004FF47A71484301906068B0F5827F0DD1E2
:103850003346002280212046009500F01BF898B1E5
:10386000606D40F0200060650320E0E700BF019834
:1038700000B908E00198401E019020688068C0F3FC
:10388000C0100028F3D100BF0020D0E718000020AE
:1038900040420F002DE9F84F04460D4690461E4663
:1038A000DDF82890FDF758FCA0EB0900371AFDF76A
:1038B00053FC82462C480068C0F3CB30784300901C
:1038C00046E0701C002843D0FDF746FCA0EB0A0040
:1038D000B84200D2A7BB2068406820F0E000216811
:1038E00048606068B0F5827F0DD1A068B0F5004FE8
:1038F00003D0A068B0F5806F05D12068006820F083
:10390000400021680860A06AB0F5005F0DD100BFDB
:103910002068006820F40050216808602068006872
:1039200040F400502168086000BF012084F8510075
:1039300000BF002084F8500000BF0320BDE8F88FCE
:10394000FFE7009808B9002702E00098401E0090A9
:10395000206880682840A84201D1012000E00020B2
:103960004045AED10020E9E7180000207047000074
:1039700010B5012211020448FDF7E8FB01225102B3
:103980000148FDF7E3FB10BD0004024010B5002222
:103990004FF480711148FDF7D9FB012251020F4805
:1039A000FDF7D4FB052000F013FD012211020B48A6
:1039B000FDF7CCFB052000F00BFD4FF4007107482C
:1039C000FDF7BCFB044600224FF480710348FDF76D
:1039D000BDFB052000F0FCFC204610BD00040240A9
:1039E00070B50024012251021748FDF7AFFB0025F6
:1039F0001CE06006040E00224FF480711248FDF7AF
:103A0000A5FB052000F0E4FC012211020E48FDF7A1
:103A10009DFB052000F0DCFC4FF400710A48FDF727
:103A20008DFB08B144F00104681CC5B2082DE0DB31
:103A300000224FF480710448FDF788FB052000F058
:103A4000C7FC204670BD00000004024010B50446CB
:103A500000224FF480711548FDF778FB052000F037
:103A6000B7FC2CB1012251021048FDF76FFB05E0B5
:103A700000224FF400710D48FDF768FB012211028E
:103A80000A48FDF763FB052000F0A2FC00224FF47A
:103A900080710648FDF75AFB012251020348FDF7E9
:103AA00055FB052000F094FC10BD0000000402400E
:103AB00070B50446002526E000224FF480711848B6
:103AC000FDF744FB052000F083FC04F0800028B1E2
:103AD000012251021248FDF739FB05E000224FF4A4
:103AE00000710F48FDF732FB6006040E052000F060
:103AF0006FFC012211020A48FDF728FB052000F0A7
:103B000067FC681CC5B2082DD6DB00224FF480711B
:103B10000348FDF71BFB052000F05AFC70BD0000B8
:103B20000004024010B5012251020F48FDF70EFBC0
:103B3000012211020C48FDF709FB052000F048FCAA
:103B400000224FF400710848FDF700FB052000F04B
:103B50003FFC00224FF480710348FDF7F7FA05207F
:103B600000F036FC10BD00000004024010B5002239
:103B70004FF400710B48FDF7E9FA052000F028FC2E
:103B8000012211020748FDF7E1FA052000F020FCB0
:103B9000012251020348FDF7D9FA052000F018FC74
:103BA00010BD00000004024010B5FDF7DBFA10BDA7
:103BB00000B593B0302107A8FCF70DFD142102A831
:103BC000FCF709FD00BF002001902548006840F087
:103BD0008050234908600846006800F0805001903A
:103BE00000BF00BF00BF002001901E48006840F4E5
:103BF00040401C4908600846006800F440400190BD
:103C000000BF00BF052007904FF4803008900120CE
:103C1000099002200D9041050E910C210F91602119
:103C20001091022111910421129107A8FDF794FD32
:103C300008B1FCF780FE0F200290022003900020C4
:103C400004904FF48050059000200690032102A8B4
:103C5000FDF742FC08B1FCF76EFE13B000BD00009A
:103C600040380240007000400348006840F4700093
:103C7000014908607047000088ED00E010B5024877
:103C8000FEF74FFC10BD0000C801002010B502680F
:103C9000224B98420BD0B0F1804F08D0204B984275
:103CA00005D0204B984202D01F4B984203D122F0FE
:103CB00070024B681A43194B984214D0B0F1804FF0
:103CC00011D0174B98420ED0164B98420BD0164B82
:103CD000984208D0154B984205D0154B984202D017
:103CE000144B984203D122F44072CB681A4322F05D
:103CF00080034C6943EA04028B68C3620B688362E9
:103D0000064B984201D10B690363036843F0040337
:103D1000036001234361026010BD00000000014008
:103D20000004004000080040000C0040004001403A
:103D3000004401400048014030B50C46816821F440
:103D40007F4142EA032525432943816030BD0A466D
:103D5000816821F0700142F00703194381607047C8
:103D600030B50B461446026A056A25F00105056266
:103D7000816921F0F00141EA041122F00A021A439C
:103D80008161026230BD30B50B461446026A056A95
:103D900025F010050562816921F4704141EA043182
:103DA00022F0A00242EA03128161026230BD70B5C6
:103DB0000446A56B0020E8852846FEF7D1FC70BDBF
:103DC00000BF00BF02680C3252E8002F22F490714D
:103DD00002680C3242E80013002BF3D100BF00BF91
:103DE00000BF0268143252E8002F22F0010102687D
:103DF000143242E80013002BF3D100BF016B0129FC
:103E00000ED100BF00BF02680C3252E8002F22F032
:103E1000100102680C3242E80013002BF3D100BFFE
:103E2000202180F8421000210163704710B504463C
:103E30002068C06820F040002168C860202084F815
:103E400041002046FEF7FAFE002010BDF8B50446FA
:103E50000025002694F84200222873D1A068B0F50E
:103E6000805F0BD1206948B9A66A20684068C0F31A
:103E700008003080A06A801CA06214E0A56AA068D7
:103E8000B0F5805F03D0A06828B9206918B9206810
:103E90004068287004E02068406800F07F002870C7
:103EA000A06A401CA062E08D401E80B2E085002820
:103EB00046D12068C06820F020002168C8602068D2
:103EC000C06820F480702168C8602068406920F0D4
:103ED000010021684861202084F8420000206063CE
:103EE000206B012826D10020206300BF00BF21687D
:103EF0000C3151E8001F21F0100021680C3141E81D
:103F00000002002AF3D100BF2068006800F0100012
:103F100010280AD100BF002000902068006800909F
:103F200020684068009000BF00BFA18D2046FEF7CA
:103F300016FC02E02046FEF721FE0020F8BD01E05D
:103F40000020FBE70220F9E770B504462046FCF7A5
:103F500023FB85B24FF4FA732A4621460148FEF747
:103F60000EFE70BD580200202DE9F84F044620686F
:103F7000006920F44050E168084321680861216924
:103F8000A068084361690843E1690843009020681C
:103F9000C06849F20C618843009908432168C860F1
:103FA0002068406920F44070A16908432168486195
:103FB00076492068884203D075492068884203D139
:103FC000FDF762FB814602E0FDF74EFB8146E069AA
:103FD000B0F5004F6CD102206168A0FB0150034690
:103FE0001920A9FB007001462A463846FCF74DF916
:103FF0006421B0FBF1F04FEA001A02206168A0FBD7
:1040000001510B461920A9FB00712A463846FCF7DE
:104010003CF9834602206168A0FB01500346192049
:10402000A9FB00712A463846FCF72FF96421B0FB42
:10403000F1F000EBC00101EB0010ABEB800032218E
:1040400001EBC0006421B0FBF1F000F0F8000AEBD6
:10405000400A02206168A0FB015003461920A9FB19
:10406000007001462A463846FCF70FF983460220C5
:104070006168A0FB015003461920A9FB00712A4684
:104080003846FCF702F96421B0FBF1F000EBC00107
:1040900001EB0010ABEB8000322101EBC00064218A
:1040A000B0FBF1F000F007005044216888606AE03E
:1040B00004206168A0FB015003461920A9FB007091
:1040C00001462A463846FCF7E0F88246042061683B
:1040D000A0FB015003461920A9FB007001462A46A7
:1040E0003846FCF7D2F86421B0FBF1F000EBC001D8
:1040F00001EB0010AAEB8000322101EB00106421DB
:10410000B0FBF1F000F0F00A04206168A0FB017040
:1041100003461920A9FB00513A462846FCF7B5F89A
:104120006421B0FBF1F00AEB001A04206168A0FBE7
:1041300001510B461920A9FB00712A463846FCF7AD
:10414000A4F8834604206168A0FB015003461920AF
:10415000A9FB007001462A463846FCF796F8642110
:10416000B0FBF1F000EBC00101EB0010ABEB800005
:10417000322101EB00106421B0FBF1F000F00F00E0
:10418000504421688860BDE8F88F000000100140AD
:1041900000140140014691F84100212828D1886887
:1041A000B0F5805F0BD1086948B90A6A1088C0F37E
:1041B00008000B685860086A801C086205E00B6AFA
:1041C000581C086218780B685860C88C401E80B272
:1041D000C88458B90868C06820F080000B68D860AF
:1041E0000868C06840F040000B68D8600020704745
:1041F0000220FCE72DE9F84304460D461746984691
:10420000089E31E0701C70B3FCF7A6FFA0EB08001D
:10421000B04200D816B90320BDE8F8832068C06812
:1042200000F00400F8B1802D1ED0402D1CD0206875
:104230000068C0F3C000B0B100BF0020009020684B
:104240000068009020684068009000BF00BF2046D2
:10425000FFF7B6FD0820606400BF002084F840002E
:1042600000BF0120D8E7FFE7206800682840A84287
:1042700001D1012000E00020B842C3D00020CBE7EC
:1042800010B51B480068006800F0200020280BD102
:10429000174800684068C4B2164841784078401C0E
:1042A000144A5070901C445411480068006800F093
:1042B0001000102817D10E48006800680C480068EC
:1042C00040680C48407800280DDD0120094908703D
:1042D000002108484278801C81540020054948701C
:1042E000881CFFF731FE0248FEF73CFA10BD0000C3
:1042F00058020020D002002000BFFEE702480068FC
:10430000C0F30220704700000CED00E010B500285B
:1043100004DB0A07130E054A135406E00A07140EBD
:10432000034A00F00F031B1FD45410BD00E400E04B
:1043300018ED00E030380A2801D201207047002033
:104340007047014600BF70471F49096841F480214A
:104350001D4A11601D49096841F080011B4A116026
:104360001146096821F00201116042F20F71174AEB
:104370002832116000EB80014900491E121D1160B6
:1043800012491431096841F00101104A14321160D8
:10439000111F096821F00101121F11600B49096802
:1043A00041F00101094A116000BF08491031096854
:1043B00001F001010029F8D00449096821F0010148
:1043C000024A116070470000443802400048014032
:1043D0001D49096841F480211B4A11601B49096885
:1043E00041F08001194A11601146096821F002016B
:1043F00011603121154A283211604100491E121DF9
:10440000116012491431096841F001010F4A143258
:104410001160111F096821F00101121F11600B4981
:10442000096841F00101094A116000BF07491031D4
:10443000096801F001010029F8D00449096821F058
:104440000101024A116070474438024000480140AF
:1044500000BF064A1268126802F04002002AF8D033
:10446000C2B2024B1B685A6070470000580200201D
:1044700010B5002204211348FCF768FE0122022136
:104480001048FCF763FE002204210E48FCF75EFE94
:104490000A20FFF79DFF012204210A48FCF756FE7F
:1044A0000A20FFF795FF02210648FCF747FE08B1F6
:1044B000012400E00024002204210248FCF746FE0B
:1044C000204610BD0000024070B5002204211748AC
:1044D000FCF73CFE012202211448FCF737FE0025C0
:1044E0001AE0002204211148FCF730FE0A20FFF7F1
:1044F0006FFF012204210D48FCF728FE0A20FFF778
:1045000067FF6006040E02210848FCF717FE08B199
:1045100044F00104681CC5B2082DE2DB002204212E
:104520000248FCF713FE204670BD00000000024068
:1045300010B50446002204211148FCF707FE0A20AA
:10454000FFF746FF2CB9002202210D48FCF7FEFDC3
:1045500004E0012202210A48FCF7F8FD0A20FFF7D7
:1045600037FF012204210648FCF7F0FD0A20FFF77F
:104570002FFF002204210248FCF7E8FD10BD0000D7
:104580000000024070B50446002524E0002204210A
:104590001548FCF7DBFD0A20FFF71AFF04F0800046
:1045A00028B1012202211048FCF7D0FD04E00022CE
:1045B00002210D48FCF7CAFD0A20FFF709FF01227E
:1045C00004210948FCF7C2FD0A20FFF701FF60063D
:1045D000040E681CC5B2082DD8DB00220421024855
:1045E000FCF7B4FD70BD00000000024010B50022D1
:1045F00004210F48FCF7AAFD012202210C48FCF718
:10460000A5FD012204210A48FCF7A0FD0A20FFF7BE
:10461000DFFE002202210648FCF798FD0A20FFF782
:10462000D7FE002204210248FCF790FD10BD0000D7
:104630000000024010B5002204210C48FCF786FD62
:10464000002202210948FCF781FD012204210748CC
:10465000FCF77CFD0A20FFF7BBFE01220221034884
:10466000FCF774FD0A20FFF7B3FE10BD0000024006
:1046700086B0FCF783FDFFF79BFAFEF735FDFEF7EA
:104680008BFEFEF759FEFEF7F7FCFEF719FEFEF76C
:1046900039FEFEF7D1FDFFF789F8FEF7DCFEFEF7E5
:1046A00053FCFEF7CDFA1648FDF772FE15A0FFF792
:1046B0004BFCFEF7DFFA0446214614A0FBF75CFE34
:1046C00000BF00BF1448FFF73BF818E04FF47A70C2
:1046D000FFF73AFE04A8FFF705F89DF817009DF8CC
:1046E00016109DF81520CDE9002102909DF8133099
:1046F0009DF81220BDF8101008A0FBF73DFEE5E77D
:10470000C8010020456E7465720D0A00537461740F
:104710007573203A20256400FE00002025642025C2
:10472000642025642025642025642025640D0A006A
:104730004FF04070E1EE100A7047000000000000EA
:10474000000001020304060708090000000001023E
:104750000304CCECCEC2B6C8D0C4C2CAD1AAD1B967
:10476000CAAA0040404242424242FE4242424242C3
:1047700040400080804020100C0300030C102040BB
:104780008080001060028C0000FE9292929292FE55
:1047900000000004047E01407E42427E427E42428E
:1047A0007E40000000FC242424FC252624FC242434
:1047B00024040040308F80844C55252525554C809D
:1047C0008080000000800000E0020418000000402B
:1047D000800000100C0300003F4040404040780043
:1047E000010E000014A4442434AD6624940444A4AF
:1047F00014000008090808090909FD09090B08083F
:104800000908000000F80808F80C0B08F80808F878
:1048100000000040407F40407F4040407F40407F5C
:104820004040000000FE0282828282FA82828282FE
:1048300082020080601F40404040407F404044581A
:104840004040001060028C00FE929292929292FE82
:1048500000000004047E014448507F40407F5048DF
:104860004440000000000008080808080808F8088C
:1048700008080808080C08000000000000040404F0
:1048800004040404C47C0F0C34C4040404040606A9
:104890000400000000402020100804030100000074
:1048A000000003060C18307020000000800004088F
:1048B0001800C000F84848484848484848FC0000EC
:1048C0000000000000010780780700E02F2424E4A6
:1048D0002424E424242FE0200000000001013F3FB5
:1048E0002020203F2020203F20203F2020203F204C
:1048F00030200000000000F01010101030D0121C0A
:104900001C1010F050101098100000000000C0FFA4
:104910000101414141DF49494949495FC141010123
:104920000100000020180700404040202011120C18
:10493000080C121130202060202000000000000030
:104940000000008080081070E000000000000000FF
:10495000000000000080C0F8000000FF0000000020
:1049600001000000C00418F0E00000000001010098
:104970000000001F18101010101010181F08000061
:1049800000000000001010909010101090523C1C7D
:1049900010D09010109090100000000000202020F7
:1049A00011080823322AE6622911700A0910302002
:1049B00000000000010101010101010101017F610D
:1049C00001010101010101010100000000000000DE
:1049D00080808080E0BC88808080808080808000B3
:1049E0000000000000000000FF000000FF000000C9
:1049F000FFFF000000FF000000000000101010107A
:104A00001F1010101F1010101F1F1010101F10105B
:104A100010000000000000F8F8080808080808E87E
:104A2000E80808080808080C08000000000000FF5B
:104A30007F000808080808FFFF08084888080800E1
:104A40000000000040300C17101010101010101F44
:104A50001F10101011171210100000008000041811
:104A60003800C000F8F84848484848484848FC081A
:104A700000000000800187C2380700C08F0F04FCCF
:104A8000040404FC04048FE06000000000113F01F6
:104A9000002020202722203F2020203F24232120E7
:104AA00030200000000000000000000000000000B6
:104AB000000000000000F80000000000000033309B
:104AC00000000000100C06100C06000000000000A2
:104AD00000000040C07840C0784000043F04043F1C
:104AE000040400007088FC08300000001820FF213A
:104AF0001E0000F008F000E018000000211C031E5A
:104B0000211E0000F00888700000001E21232419D7
:104B100027211010160E0000000000000000000009
:104B2000000000000000E018040200000000071868
:104B300020400000020418E0000000004020180798
:104B4000000000404080F0804040000202010F0160
:104B5000020200000000F0000000000101011F013E
:104B6000010100000000000000000080B0700000A3
:104B70000000000000000000000000000101010131
:104B800001010100000000000000000030300000C2
:104B9000000000000000008060180400601806019A
:104BA00000000000E010080810E000000F102020B6
:104BB000100F00001010F8000000000020203F201F
:104BC00020000000700808088870000030282422A7
:104BD000213000003008888848300000182020204C
:104BE000110E000000C02010F8000000070424246B
:104BF0003F240000F80888880808000019212020B8
:104C0000110E0000E0108888180000000F1120200D
:104C1000110E0000380808C83808000000003F00E6
:104C20000000000070880808887000001C22212104
:104C3000221C0000E010080810E0000000312222D1
:104C4000110F00000000C0C0000000000000303064
:104C500000000000000080000000000000806000F4
:104C6000000000000080402010080000010204083D
:104C70001020004040404040404000040404040430
:104C800004040000081020408000000020100804E8
:104C9000020100007048080808F0000000003036EB
:104CA000010000C030C828E810E0000718272423BE
:104CB000140B000000C038E0000000203C2302027A
:104CC00027382008F8888888700000203F2020209E
:104CD000110E00C0300808080838000718202020EE
:104CE00010080008F808080810E000203F202020E5
:104CF000100F0008F88888E8081000203F202023C3
:104D000020180008F88888E8081000203F200003D9
:104D1000000000C0300808083800000718202022D2
:104D20001E020008F808000008F808203F210101D1
:104D3000213F20000808F8080800000020203F203C
:104D400020000000000808F8080800C08080807F6C
:104D500000000008F888C028180800203F2001261D
:104D600038200008F8080000000000203F20202024
:104D700020300008F8F800F8F80800203F003F0055
:104D80003F200008F830C00008F808203F20000746
:104D9000183F00E01008080810E0000F1020202045
:104DA000100F0008F808080808F000203F21010152
:104DB000010000E01008080810E0000F1824243853
:104DC000504F0008F8888888887000203F20000332
:104DD0000C30200070880808083800003820212195
:104DE000221C00180808F8080818000000203F20BE
:104DF00000000008F808000008F808001F20202024
:104E0000201F000878880000C83808000007380E06
:104E1000010000F80800F80008F800033C0700074C
:104E20003C0300081868808068180820302C0303B1
:104E30002C30200838C800C83808000000203F2067
:104E400000000010080808C8380800203826212073
:104E5000201800000000FE020202000000007F4057
:104E6000404000000C30C0000000000000000106BF
:104E700038C00000020202FE000000004040407FF7
:104E80000000000000040202020400000000000014
:104E90000000000000000000000000808080808092
:104EA000808080000202040000000000000000007A
:104EB0000000000000808080800000001924222271
:104EC000223F2008F8008080000000003F112020D1
:104ED000110E000000008080800000000E112020D4
:104EE000201100000000808088F800000E112020B2
:104EF000103F200000808080800000001F222222BE
:104F0000221300008080F0888888180020203F202D
:104F10002000000000808080808000006B949494CA
:104F200093600008F8008080800000203F2100008E
:104F3000203F2000809898000000000020203F20A3
:104F4000200000000000809898000000C080808051
:104F50007F000008F8000080808000203F24022DA0
:104F6000302000000808F8000000000020203F204A
:104F70002000008080808080808000203F20003FD3
:104F800020003F8080008080800000203F210000C2
:104F9000203F200000808080800000001F20202013
:104FA000201F00808000808000000080FFA1202062
:104FB000110E000000008080808000000E11202073
:104FC000A0FF80808080008080800020203F212002
:104FD00000010000008080808080000033242424B1
:104FE000241900008080E0808000000000001F2065
:104FF0002000008080000000808000001F20202012
:10500000103F20808080000080808000010E3008EA
:1050100006010080800080008080800F300C030C2F
:10502000300F0000808000808080000020312E0E34
:10503000312000808080000080808080818E701808
:1050400006010000808080808080000021302C22BA
:1050500021300000000000807C02020000000000FF
:105060003F404000000000FF00000000000000FF83
:105070000000000002027C800000000040403F0071
:10508000000000000601010202040400000000000C
:105090000000000000000000000000000000000010
:1050A0000000000000000000000000000000000000
:1050B00000000000000000000000000000000000F0
:1050C000000000000000000000F0F0F00000000010
:1050D000000000000000000000017F01000000004F
:1050E0000000000000000000001C1C1C1C00000050
:1050F00000000000008060303C1C8C60303C1C0CC8
:10510000000000000000000000000000000000009F
:10511000000000000000000000000000000000008F
:105120000000000000000000E0000000000000E0BF
:1051300000000000868686FE878686868686FE8735
:105140008686000001011F0101010101011F01010B
:1051500001010000000080C0402020F8202060C035
:10516000C0000000000003070C0C18FF3060E1C114
:105170008100000000070F0B1010107F1010080FA7
:1051800007000080C0602020C08000000080C02098
:105190000000000F1F3020301F8F60D8E633103022
:1051A000E0C000000000100C030100070F181018E9
:1051B0000F0700000080C0602020E0C00000000059
:1051C00000000080E0271F78E8C4070304C43C0403
:1051D000040000070F18101010110B070F18101003
:1051E000100C0000808C4C7C380000000000000097
:1051F00000000000000000000000000000000000AF
:10520000000000000000000000000000000000009E
:10521000000000000000000000000000C060301826
:10522000080400000000000000007CFF01000000F6
:10523000000000000000000000000003070C183010
:10524000204000000408183060C00000000000008A
:1052500000000000000000000001FF7C00000000D2
:1052600000000000402030180C0703000000000080
:1052700000000000000000000000C0C0C0000000EE
:105280000000000000426666242818FF18242466E7
:10529000664200000000000000000303030000005D
:1052A000000000000000000000000080000000007E
:1052B0000000000000101010101010FF101010104F
:1052C00010100000000000000000000300000000BB
:1052D00000000000000000000000000000000000CE
:1052E00000000000000000000000000000000000BE
:1052F00000000000808C4C7C3800000000000000A2
:10530000000000000000000000000000000000009D
:1053100000000000101010101010101010101010CD
:10532000101000000000000000000000000000005D
:10533000000000000000000000000000000000006D
:10534000000000000000000000000000000000005D
:1053500000000000001C1C1C1800000000000000E1
:105360000000000000000000000000000000C0304D
:10537000180400000000000080C030180603000080
:10538000000000004030180601000000000000008E
:1053900000000000000000C0C0602020202040C0AD
:1053A0000000000000FCFF030000000000000001FE
:1053B000FFFE0000000003060C1810101018080E65
:1053C00003000000000080808080C0E0000000003A
:1053D00000000000000000000000FFFF00000000CF
:1053E000000000000000101010101F1F10101010FF
:1053F0000000000000804040202020202060C0C02D
:105400008000000000030200000080402030180FE0
:105410000700000000181C1A191918181818181C71
:10542000070000000080C040202020206040C08095
:10543000000000000003030000101010182867C3CC
:105440008000000000070F101010101010180C073B
:105450000300000000000000000000C0E0F0F000C9
:105460000000000080C0B09884828180FFFFFF8030
:105470008080000000000000001010101F1F1F108F
:1054800010100000000000E060606060606060601C
:105490006000000000003E2310080808081830F0E3
:1054A000C000000000070B101010101010180C0F97
:1054B0000300000000000080C0402020202020E0E9
:1054C000C000000000FCFF21101808080808183070
:1054D000F0C000000001070E081810101010180C82
:1054E000070300000080E060606060606060E06072
:1054F00020000000000300000000C0300C0201008A
:105500000000000000000000001E1F00000000005E
:10551000000000000080C04020202020202040C04B
:105520008000000080C3672C181810303070E8C766
:1055300083000000070F0C18101010101018080F2F
:10554000070000000080C060202020202040C08094
:10555000000000001F3F306040404040602010FFCE
:10556000FE000000000C1C1010101018080C07039F
:10557000000000000000000000000000000000002B
:105580000000000000000000000E0E0E0E000000E3
:105590000000000000000000001C1C1C1C0000009B
:1055A00000000000000000000000000000000000FB
:1055B0000000000000000000000C0C0000000000D3
:1055C000000000000000000000583800000000004B
:1055D000000000000000000000000000804060208B
:1055E000100000000010382844C6830100000000AD
:1055F00000000000000000000000010102040C088F
:10560000100000000000000000000000000000008A
:10561000000000008484848484848484848484845A
:105620008484000000000000000000000000000072
:10563000000000000010206040800000000000001A
:10564000000000000000000000000183C64428386C
:10565000100000000010080C04020101000000000E
:10566000000000000080C02020101010101030201A
:10567000E0C00000000303030000E010100808046D
:105680000703000000000000001C1C1C1C000000A0
:1056900000000000000080C040202020202040406A
:1056A00080000000FCFF0300F0FC0E03C1FD1F00A2
:1056B000C13F00000003060C081111111011090967
:1056C000040200000000000000E0E0E00000000034
:1056D000000000000000C078474040477FF8C0004D
:1056E00000000010101E11100000000000111F1E0D
:1056F000101000002020E0E020202020206060C06A
:10570000800000000000FFFF101010101018286724
:10571000C780000010101F1F101010101010180C60
:105720000F070000000080C04020202020202060C3
:10573000E0000000FCFF030000000000000000008B
:10574000000100000103060C1810101010100808CA
:10575000040300002020E0E0202020202040C08022
:10576000000000000000FFFF00000000000000013A
:10577000FFFE000010101F1F1010101018080C075B
:10578000030000002020E0E02020202020202060D6
:10579000608000000000FFFF1010101010107C004F
:1057A0000000000010101F1F101010101010101813
:1057B0001C0600002020E0E0202020202020206087
:1057C00060E000000000FFFF101010101010307C8F
:1057D0000000010010101F1F10100000000000004A
:1057E00000000000000080C040202020202040E079
:1057F00000000000FCFF030000000000004040C06B
:10580000C14040000003070C181010101010180FB2
:105810000F00002020E0E020200000002020E0E039
:105820002020000000FFFF10101010101010FFFFCC
:1058300000000010101F1F101000000010101F1F8C
:1058400010100000000020202020E0E02020202078
:1058500000000000000000000000FFFF000000004A
:10586000000000000000101010101F1F101010107A
:10587000000000000000000020202020E0E02020A8
:10588000202000000000000000000000FFFF0000DA
:105890000000000060E0E080808080407F3F0000EA
:1058A000000000002020E0E02020000020A0606038
:1058B000202000000000FFFF30181C7EE3C1000024
:1058C0000000000010101F1F101000000013171E12
:1058D000181010002020E0E0202000000000000050
:1058E000000000000000FFFF0000000000000000BA
:1058F0000000000010101F1F1010101010101018C2
:105900001C06002020E0E0E0000000000000E0E0D5
:10591000E020200000FF010FFEF00080700F01FF6B
:10592000FF000010101F101000071F030010101FB1
:105930001F10102020E0E0E080000000002020E0A8
:105940002020000000FF0001071E3CF0E08000FF67
:1059500000000010101F10100000000001071E1FA3
:1059600000000000000080C06020202020604080F7
:1059700000000000FCFF010000000000000000012A
:10598000FFFC00000003060C181010101018080689
:10599000030000002020E0E020202020202060C024
:1059A000C00000000000FFFF202020202020301039
:1059B0001F07000010101F1F101000000000000043
:1059C00000000000000080C0602020202060408097
:1059D00000000000FCFF01000000000000000001CA
:1059E000FFFE00000107060E191111131E3C786618
:1059F000632000002020E0E020202020206060C004
:105A0000800000000000FFFF10103070F098080FB9
:105A10000700000010101F1F1010000001071F1CBE
:105A2000101000000080C04020202020202040C016
:105A3000E000000000070F0C08181810303060E07C
:105A4000C180000000031E08081010101010180874
:105A50000F07000080E020202020E0E02020202010
:105A600060800000010000000000FFFF0000000057
:105A7000000100000000000010101F1F10100000A7
:105A80000000002020E0E02020000000002020E0B6
:105A90002020000000FFFF0000000000000000FFC9
:105AA0000000000000070F08101010101008080771
:105AB000000000002020E0E0200000000000202086
:105AC000E0202000000001073FF8C00000C03807B8
:105AD000000000000000000000010F1F0E01000088
