:020000040800F2
:10000000800900205D0200085D4900087340000877
:1000100059490008AD180008195C000800000000EC
:10002000000000000000000000000000A5510008D2
:10003000491B0008000000003D4D0008C95400089D
:1000400077020008770200087702000877020008AC
:10005000770200087702000877020008770200089C
:10006000770200087702000877020008770200088C
:10007000770200087702000877020008770200087C
:1000800077020008770200087702000800000000ED
:1000900000000000000000000000000077020008DF
:1000A0009D550008770200087702000877020008D3
:1000B000770200087702000877020008770200083C
:1000C000770200087702000877020008770200082C
:1000D00077020008A15B000877020008000000001A
:1000E000770200087702000877020008000000008D
:1000F000000000000000000000000000770200087F
:10010000000000007702000877020008770200086C
:1001100000000000000000000000000000000000DF
:1001200077020008770200087702000877020008CB
:10013000770200080000000000000000000000003E
:10014000000000000000000000000000770200082E
:10015000770200087702000877020008770200089B
:10016000770200087702000800000000000000008D
:10017000000000000000000000000000000000007F
:1001800000000000770200080000000000000000EE
:10019000770200087702000800F002F800F04FF83C
:1001A0000AA090E8000C82448344AAF10107DA45D2
:1001B00001D100F044F8AFF2090EBAE80F0013F0D5
:1001C000010F18BFFB1A43F0010318477096000097
:1001D00090960000103A24BF78C878C1FAD8520728
:1001E00024BF30C830C144BF04680C6070470000B1
:1001F0000023002400250026103A28BF78C1FBD830
:10020000520728BF30C148BF0B607047662906F00F
:100210009D81642900F00281782900F03B81002053
:1002200070471FB506F08DF900F0DEFC04000020D9
:10023000002106F0F9F8E0601FBD10B510BD00F018
:10024000D7FD1146FFF7EDFF05F060FF00F0F5FD6B
:1002500003B4FFF7F2FF03BC05F01BFD094880471C
:1002600009480047FEE7FEE7FEE7FEE7FEE7FEE798
:10027000FEE7FEE7FEE7FEE704480549054A064BB0
:10028000704700008955000899010008800300208C
:10029000800900208005002080050020704753EA77
:1002A000020C00F069802DE9F04B4FF00006002BA6
:1002B0001FBFB3FA83F503FA05F424FA05F65E408E
:1002C00012BF1643B2FA82F502FA05F4C5F1200511
:1002D0001EBF22FA05FC44EA0C04203556EA044C01
:1002E0004FEA144418BF641C4FF000084FF0000997
:1002F000904271EB030C39D3002919BFB1FA81F791
:1003000001FA07F6B0FA80F700FA07F6C7F12007FE
:100310001EBF20FA07FC46EA0C062037B6FBF4FCA9
:10032000A7EB0507103F07F01F0BCBF120060CFAD7
:100330000BFB2CFA06F644BFB3460026202FA4BFC1
:100340005E464FF0000B5BEA060C08BF4FF0010B56
:1003500019EB0B09ABFB027C48EB0608C01B06FB44
:1003600002CC0BFB03CC71EB0C01C1E70B46024640
:1003700041464846BDE8F08B13B54FF000004FF002
:100380000001AFF30080BDE81C4070470FB4044982
:1003900010B503AA029800F015FC10BC5DF814FB20
:1003A000140000200FB41CB5074B06AA7B44694615
:1003B0000090059800F0EDFB0020694600F0FCFB82
:1003C0001CBC5DF814FB00000908000070B5044671
:1003D00085690068C10601D5302600E02026C007E7
:1003E00007D070BDD4E9012130469047206A401CF7
:1003F00020626D1EF6D570BD70B504468569007823
:10040000C00707D170BDD4E9012120209047206AA0
:10041000401C20626D1EF6D570BD00002DE9F04134
:100420000646002410687529314616A510D0AFF392
:100430000080002802DA404213A507E031688A07ED
:1004400001D512A502E0490704D511A5012401E058
:10045000AFF3008000210A2206F1240709E0B0FB77
:10046000F2FCB0FBF2F302FB1C003030785418466B
:10047000491C0028F3D123462A463046BDE8F04106
:1004800000F01AB9000000002D0000002B00000051
:100490002000000070B504460D4621461068AFF3F9
:1004A00000802188090502D50F4A7A4402E00E4AED
:1004B0007A440E32002104F1240305E000F00F0617
:1004C0000009965D5E54491C0028F7D1207800236E
:1004D000000704D5702D02D009B102231132204645
:1004E000BDE8704000F0E8B8C09200002DE9F05F70
:1004F000894604464FF0000ADFF824B1FB44C0F8F7
:1005000020A02046E168884700287DD0252806D015
:10051000D4E901219047206A401C2062F1E70025C0
:100520005F462046E16888472028064607DB312ED3
:1005300005D2B81910F8200C08B10543F1E7A80757
:1005400001D525F00405C4F81CA00027C4F818A0A4
:100550002A2E09D0304605F095FB38B304EB870806
:10056000303EC8F8186019E059F8041B204604EB27
:1005700087029161E1688847012F064618D1E0693A
:10058000002820DA25F020051DE0D8F8180000EB3F
:10059000800006EB40003038C8F818002046E168BB
:1005A0008847064605F06EFB0028EED1012F0AD0E1
:1005B0002E2E08D12046E16888477F1C0646022F70
:1005C00045F02005C4DBA069002803DA404245F06D
:1005D0000105A061E80701D025F01005A6B1A6F13C
:1005E0004100192802D8203645F400654A463146B4
:1005F000204625604D46FFF709FE60B1012807D06F
:10060000ED1D25F0070000E007E000F1080978E79C
:1006100005F1040975E730467AE7206ABDE8F09FE6
:100620009692000010B5431C02E010F8011B71B156
:100630008107FAD14FF0013202C88C1A8C4314EAB8
:10064000C211F9D0C01A0A0603D0C01E10BDC01ACC
:1006500010BD0A0401D0801E10BD0902FCD0401E4E
:1006600010BD4FF0000200B513469446964620395F
:1006700022BFA0E80C50A0E80C50B1F12001BFF45B
:10068000F7AF090728BFA0E80C5048BF0CC05DF8C1
:1006900004EB890028BF40F8042B08BF704748BF0F
:1006A00020F8022B11F0804F18BF00F8012B704783
:1006B00070477047704770472DE9F0470D469946DF
:1006C0009246044600F124080168880604D5E069D2
:1006D00021F01001216000E00120A84201DD471B4C
:1006E00000E00027A1697A1902EB0900081AA0614D
:1006F0002078C00602D42046FFF768FE002608E0F6
:10070000D4E901211AF806009047206A401C761CA3
:1007100020624E45F4DB2078C0060AD52046FFF75C
:1007200055FE06E0D4E9012130209047206A401CA4
:100730002062381EA7F10107F4DC07E0D4E90121AB
:1007400018F805009047206A401C2062281EA5F179
:100750000105F3DC2046FFF74FFE2078000602D5A6
:100760000220BDE8F0870120FBE770472DE9FF4F2D
:100770000C461E464FF0FF378BB0D2E90001DDF882
:1007800060800A908A46C1F30A5505B93D460021AA
:1007900008464FF00000BAF1000F00F4400005DAFF
:1007A00000EB80004FF4400101EA50004FEA9059FD
:1007B000B9F1010F00DDB9460A9850EA4A000ED09F
:1007C00044F61050A5F2FF3545432F14B8F1000F41
:1007D0001ED07542291E1EDDC9F100021CE0B8F1D1
:1007E000010F4FF0000001D0302103E0F24305E09B
:1007F0002154401CB042FBDB304600220021215432
:100800000B99C1F80880C1E900200FB0BDE8F08F56
:10081000BD1B6D1CDEE74A4600DA694206A800F0FF
:100820006DFA06AB93E8070003AB83E80700504678
:100830000A9900F04BFB8DE80700A0F500501F3827
:1008400000900398002D0ADD42F21F014A46084439
:10085000002303A90390684600F0B4FD09E0A0F569
:1008600000504A461F38002303A90390684600F051
:10087000BEFD8DE807000004000C03D04FF0FF30F0
:10088000410800E01046B8F1000F03D000220092AA
:1008900015461EE0751E05D400F0AAF930326255E7
:1008A0006D1EF9D5B3460122084302D000227F1CF9
:1008B00004E02078302801D100227F1E002A099709
:1008C00084D01DE0112D07DA00F092F93032625524
:1008D0006D1C50EA0102F5D1084302D00098C8B15E
:1008E0000EE00021681E05E0235C625C6354225424
:1008F000401E491C8142F7DBAB46A81B401E0990F5
:10090000002004F80B000B98099AC0F80880C0E991
:10091000002B7AE711264FF0000857E72DE9F04F3A
:1009200088460446D21D22F0070191B0D1E90001AA
:10093000CDE90A0105F072F902460B98C00F01D00B
:100940002D2007E02068810701D52B2002E020211F
:1009500001EAC000032A099001D0072A05DB0346FB
:100960004146204600F08AF90BE12078800601D547
:10097000E06900E00620B8F1650F814606D0B8F1C5
:10098000660F18D0B8F1670F70D131E00020B9F1CF
:10099000110F009001DB112301E009F101030AAA04
:1009A00001A90CA8FFF7E2FEDDE90C70002609F1B1
:1009B0000105834647E001204B4600904FF0004779
:1009C0000AAA01A90CA8FFF7D1FEDDE90DB00C9928
:1009D0005D46002610B909F101000D18B9EB0500BC
:1009E00003D4C0F1FF3609F10105A5EB09002BE0A6
:1009F000B9F1010F01DA4FF001090020B9F1110F2F
:100A00000090484601DD112300E003460AAA01A92F
:100A10000CA8FFF7ABFEDDE90C704D4600268346BF
:100A2000207800070AD4AB4500DA5D4601A8012D05
:100A300004DD411911F8011C302907D04F4502DAB5
:100A400017F1040F04DA012082460FE06D1EEEE775
:100A5000002F02DCED1B3E4403E0781CA84200DDC1
:100A60007D1CB81B00F1010A4FF0004720780007F9
:100A700003D4AA4501DB4FF0FF3A0021B7F1004F44
:100A80000DF143088DF8431024D002202B23002FB2
:100A900001DA7F422D230A21021EA0F1010000DCB1
:100AA0005FB197FBF1FC97FBF1F201FB1C7C174651
:100AB0000CF1300C08F801CDEEE7A8F1010003704D
:100AC0002188090501D5452100E06521A0F1010833
:100AD00000F8011C09980FA9A1EB0807FF1D00B140
:100AE0000120411901EBEA70A1693844081A401E3F
:100AF000A0612078C00602D42046FFF767FC099861
:100B000028B1D4E901219047206A401C2062207856
:100B1000C00622D52046FFF759FC1EE0002E04DB5C
:100B2000B34502DD01A8805D00E03020D4E9012159
:100B30009047206A401C2062761CAAF101005FEAFF
:100B4000000A0AD100F050F8C0680168405CD4E99E
:100B500001219047206A401C2062281EA5F1010552
:100B6000DCDC07E0D4E9012118F8010B9047206A8A
:100B7000401C2062381EA7F10107F3DC2046FFF776
:100B80003BFC032011B041E601694A1C0261087870
:100B9000704700B58FB0CDE90131002105910549BD
:100BA0007944CDE9031011466846FFF79FFC0FB06A
:100BB00000BD0000E5FFFFFF0A6802F8010B0A60B4
:100BC00070470000074B70B50D467B44FFF7E1FF0F
:100BD0000446284600F004F910B14FF0FF3070BD14
:100BE000204670BD1F530000004870473C030020A2
:100BF00030B5B0F10A024FEA900E71F100034EEAEF
:100C0000817EB0EB0E0061EB91014FEA101E4EEABF
:100C1000017E10EB0E0041EB11114FEA102E4EEA4F
:100C2000016E10EB0E0041EB11214FEA104E4EEA1F
:100C3000014E10EB0E0041EB1141401841F1000153
:100C40004FEAD00040EA41704FEAD10110EB800535
:100C50004FEA810444EA907444EB01046D1944EBBB
:100C60000404521BA3414FF0000348BF0A3200D5D1
:100C700030BD401C41F1000130BD00002DE9F041C4
:100C80001F46044603260168072A01F4006004DBBE
:100C900008B116A505E016A503E008B115A500E00A
:100CA00015A521F010002060A069C01EA0610FB141
:100CB000401EA0612046FFF789FB4FB1D4E9012116
:100CC00038469047206A401C2062C01C206206E023
:100CD000206AFAE7D4E9012115F8010B9047761E46
:100CE000F8D22046FFF788FBBDE8F0814E414E0068
:100CF0006E616E00494E4600696E66002DE9F04750
:100D0000814616468AB0354878440DC88DE80D00F6
:100D100032487844801C03AC0DC884E80D0041F6CD
:100D20009B300844372190FBF1F290FBF1F5A5F1DF
:100D3000800501FB12041B3C02D56442012000E047
:100D40000020DFF898A080460027FA44AAF1BE0AE6
:100D50000EE0E0070AD03246684607EB4701012360
:100D60000AEB810100F043FB8DE8070064107F1C53
:100D7000002CEED1194F7F44AE3F19E0E80715D0A3
:100D800007EB04100DF1180A90E80E008AE80E0037
:100D9000C068F04201D1981908903246012306A993
:100DA00003A800F024FB03AB83E807006D10641C6C
:100DB000002DE3D14FF0010332466946B8F1000F30
:100DC00003A802D000F0FEFA01E000F010FBC9E930
:100DD0000001C9F808200AB0BDE8F087188B0000B0
:100DE000007B00F080007047004870471C03002023
:100DF0007546FFF7F9FFAE4605006946534620F0F9
:100E00000700854618B020B5FFF736FABDE8204048
:100E10004FF000064FF000074FF000084FF0000BB6
:100E200021F00701AC46ACE8C009ACE8C009ACE869
:100E3000C009ACE8C0098D46704710B50446AFF351
:100E400000802046BDE81040FFF702BA4FF0013C99
:100E500050F8042B51F8043B9A4221D1A2EB0C0329
:100E6000934313EACC1317D150F8042B51F8043BE9
:100E70009A4215D1A2EB0C03934313EACC130BD186
:100E800050F8042B51F8043B9A4209D1A2EB0C0311
:100E9000934313EACC13DBD04FF00000704700BF40
:100EA000D01A01BAB1FA81F101F0180122FA01F069
:100EB000CB40C1F12001DBB2C0B2C01A2CFA01F361
:100EC000D11A914311EAC311E6D170475FEA400C91
:100ED00008BF91F0000F4FEA8C234FEAC12243EA8A
:100EE00051514FEA1C5018BF00F5F0404FEA300056
:100EF00018BF41F000415FEA6C5C00F02980BCF152
:100F0000FF3F08BF40F080407047130C06BF12043B
:100F10004FF0100C4FF0000C130E04BF12020CF136
:100F2000080C130F04BF12010CF1040C930F04BF43
:100F300092000CF1020CD30F04BF52000CF1010C13
:100F400011464FF00002A0F11F00A0EB0C0070470B
:100F500011F0004F08BF704731F000413FF4D5AFAA
:100F60000B0C06BF09044FF0100C4FF0000C0B0ED9
:100F700004BF09020CF1080C0B0F04BF09010CF1AE
:100F8000040C8B0F04BF89000CF1020CCB0F04BFC3
:100F900049000CF1010CCCF12003A0EB0C0022FA6B
:100FA00003F302FA0CF241EA030100F10100704779
:100FB00020F07F4C80EA030023F07F47ACEB07036F
:100FC00003F57C5300F0004003F1FF032DE9804955
:100FD0004FEA154B09B44FEA144325EA0B4E24EAB5
:100FE00003480FF2042606EB132749083E785FEA10
:100FF000320203FB0667C7F5000707FB06F64FEA58
:1010000054374FEAD64606F1020607FB066CCCF1D0
:10101000005C4FEA1C472CEA074C07FB06F40CFB6C
:1010200006F504EB15464FEA961634BF00204FF044
:1010300000404FEAD13706FB07FC4FEA1C4C0CFB83
:101040000BF7D21B03FB0CF761EB07010CFB0EF750
:10105000B0EB074072EB17420CFB08F734BFA2EB72
:101060000742B2EB074261EB17414FEA0C444FEAEB
:10107000910706FB07FC4FEA1C4C0CFB0BF7B0EB8F
:10108000C74072EB573203FB0CF734BFA2EBC742E9
:10109000B2EBC74261EB57310CFB0EF7B0EBC70068
:1010A00072EB57720CFB08F734BFA2EBC702B2EB2E
:1010B000C70261EB5771039F4FEA816141EA9211C8
:1010C00004EBCC044FEAD1374FEA826206FB07FCFF
:1010D00042EA90124FEA80604FEA1C4C0CFB0BF77F
:1010E000D21B03FB0CF761EB07010CFB0EF7B0EB17
:1010F000074072EB17420CFB08F734BFA2EB074224
:10110000B2EB074261EB17414FEA8C554FEA91076A
:1011100004EB9C2406FB07FC4FEA1C4C0CFB0BF772
:10112000B0EBC74072EB573203FB0CF734BFA2EBB6
:10113000C742B2EBC74261EB57310CFB0EF7B0EB85
:10114000C70072EB57720CFB08F734BFA2EBC70263
:10115000B2EBC70261EB577115EB4C254FEA816189
:1011600041EA92114FEA82624FEAD13742EA901285
:1011700006FB07FC44F100044FEA80604FEA1C4C78
:101180000CFB0BF7D21B03FB0CF761EB07010CFB0D
:101190000EF7B0EB074072EB17420CFB08F734BFB9
:1011A000A2EB0742B2EB074261EB174115EB1C15AE
:1011B0004FEA813141EA92414FEA823242EA90425B
:1011C0004FEA80304FEA0C7644F1000448EA0343CA
:1011D0004EEA0B484FF0000EB2EB080C71EB030720
:1011E00024BF624639464EEB0E0E4FF0000B00183E
:1011F000524149414BEB0B0BB2EB080C71EB03076F
:101200007BF1000B24BF624639464EEB0E0E4FF0C9
:10121000000B0018524149414BEB0B0BB2EB080C91
:1012200071EB03077BF1000B24BF624639464EEB9E
:101230000E0E51EA020718BF46F0010616EB0E76B5
:1012400055F1000254F1000103D5BDE88901BDE864
:101250000088BDE88901BDE80048B619524141EB5C
:101260000101A3F10103704780807F7E7D7C7B7A42
:101270007978777676757473727171706F6E6E6D42
:101280006C6C6B6A6A6968686766666564646363E8
:1012900062616160605F5F5E5E5D5D5C5C5B5B5A6E
:1012A0005A595958585757565655555554545353DB
:1012B00052525251515050504F4F4F4E4E4D4D4D36
:1012C0004C4C4C4B4B4B4A4A4A4949494848484781
:1012D00047474746464645454544444444434343BF
:1012E0004342424242414141002B9C4630D4770068
:1012F0002BD01CB54FEA370703B44FF010004FF066
:101300001001BAF1000F06D0BCF1000FDCBF40F0B5
:10131000080040F008014FF000000FBCBDE810408D
:101320000BF1010BBBF1010F08BF5FEA170722BFEA
:1013300012F1010211F101014FF0004143F10003EC
:1013400000F0004043EA00007047F9D35708D0E7A7
:1013500046EA064613F1400F4FEA16461FDD13F129
:10136000200FDFBF16430A46002120335B42BED068
:10137000C3F1200746EA064602FA07F74FEA164687
:1013800046EA0706C3F1200722FA03F201FA07F73B
:1013900021FA03F14FF0000342EA0702A7E746EA09
:1013A000020646EA06464FEA164646EA0106BCBF72
:1013B00046EA0646360C4FF000034FF000024FF0AD
:1013C000000194E72DE9804C9A46934670B491E869
:1013D000380007C831EA400C48BF34EA430C03D553
:1013E000FFF7E6FDFFF780FFF0BCBDE8008C2DE9BC
:1013F000804C9A46934670B491E8380007C810F0C4
:10140000804F08BF13F0804F03D100F005F8FFF7BD
:101410006BFFF0BCBDE8008C20F07F4780EA030042
:1014200023F07F4C07EB0C03A3F57C5300F0004046
:10143000A3F1FE0392F0000F00F0B38095F0000FCF
:1014400000F077802DE901494FEA11404FEA144638
:1014500021EA004800FB06FC24EA064708FB06F6E2
:1014600007FB08F800FB07F718EB06484CEB164C97
:101470004FEA124B18EB07484FEA15464CEB174062
:1014800022EA0B4E0BFB06FC25EA06470EFB06F68E
:1014900007FB0EFE0BFB07F71EEB064E4CEB164C44
:1014A0004FF000061EEB074E4CEB174B18EB0B08EA
:1014B00040F1000018EB0E0B58EB000840F1000063
:1014C0008F1A4FF000013CBFC943661B14BFB5EB38
:1014D000040C00213CBFC943F61B4FEA17444EEAF7
:1014E0008E0E27EA04454FEA1C4704FB07622CEAEC
:1014F000074C05FB07F70CFB05F604FB0CFC16EB91
:10150000074642EB174216EB0C4642EB1C421BEB24
:10151000060658EB0202414146EA9E0601D5BDE8A7
:101520000189B619524141EB0101A3F10103BDE864
:1015300001894FEA14454FEA114724EA054621EA9A
:10154000074C05FB07F406FB07F70CFB06F105FB50
:101550000CFC11EB074144EB17444FEA124711EB27
:101560000C4144EB1C4422EA074C05FB07F206FB46
:1015700007F70CFB06F605FB0CFC16EB074642EBE7
:10158000174216EB0C4642EB1C456A1854F1000159
:1015900048BF7047B619524141EB0101A3F1010365
:1015A000704795F0000F37D04FEA11424FEA1447C9
:1015B00021EA024624EA074C02FB07F106FB07F783
:1015C0000CFB06F402FB0CFC14EB074441EB174147
:1015D0004FEA154714EB0C4441EB1C4125EA074C3C
:1015E00002FB07F506FB07F70CFB06F602FB0CFCFB
:1015F00016EB074645EB174516EB0C4645EB1C4230
:10160000121951F1000148BF7047B619524141EB20
:101610000101A3F1010370474FEA14454FEA114756
:1016200024EA054621EA074C05FB07F106FB07F70C
:101630000CFB06F24FF0000605FB0CFC12EB074218
:1016400041EB174112EB0C4251EB1C4148BF704774
:10165000921841EB0101A3F10103704755494A6813
:1016600022F440324A604A6843681A434A6002687A
:10167000526822F4807203685A60026853680269F3
:1016800043EA022203685A600268526822F04072FC
:1016900003685A600268526883681A4303685A6094
:1016A0000268926822F4006203689A600268926895
:1016B000C3681A4303689A603F4B826A9A4218D003
:1016C0000268926822F0706203689A600268926809
:1016D000836A1A4303689A600268926822F0405253
:1016E00003689A6002689268C36A1A4303689A6042
:1016F0000BE00268926822F0706203689A600268E8
:10170000926822F0405203689A600268926822F060
:10171000020203689A6002689368027E43EA42020A
:1017200003689A602022125CA2B10268526842F4F7
:10173000006203685A600268526822F460420368DB
:101740005A6002685368426A521E43EA4232036892
:101750005A6005E00268526822F4006203685A6029
:101760000268D26A22F470020368DA620268D36AFD
:10177000828B521E43EA02520368DA620268926860
:1017800022F4007203689A600268936890F830202F
:1017900043EA422203689A600268926822F48062F7
:1017A00003689A6002689368426943EA8222036888
:1017B0009A607047002301400100000F10B588B007
:1017C0003048007801281FD100202E49087003F00E
:1017D000C7F802F063FB2C4836231A46002100901C
:1017E000084603F033FA102328A25021012003F009
:1017F00055FA02F0FBFB04462CB9102325A2502118
:10180000032003F04BFA00BF0020079007A802F066
:101810009BFB9DF81C00D0B19DF81D00B8B19DF850
:101820001C201EA102A8FEF7BDFD102302AA46211E
:10183000032003F033FA9DF81D201AA102A8FEF739
:10184000B1FD102302AA4621052003F027FA0D4816
:101850008078032802D0042810D107E0022004F089
:10186000BDFD084948700120087007E0012004F020
:10187000B5FD044948700120087000BF00BF08B0E2
:1018800010BD00001E000020F3930008D1AAD1B9BA
:10189000000000006572722100000000483A253304
:1018A000645061004C3A25336450610000BFFEE78C
:1018B00000B58BB08648007801280DD100208449FE
:1018C000087003F04DF8002082490870824883496F
:1018D0000A680260496841607F48C07900907E488C
:1018E000837942797EA103A8FEF75CFD182303AA41
:1018F0000021022003F0D2F918237DA27548017857
:10190000052003F0CBF972488078042813D11823FE
:1019100078A270480178052003F0C0F96D4800787E
:1019200030306C49087008460078602802DD0020DD
:10193000087018E017E066488078032813D1182350
:101940006CA264480178052003F0A8F9614800788A
:10195000302805DB5F48007830385E49087002E0C7
:1019600060205C4908705A488078012832D1594873
:10197000007820B1302810D060282AD11BE05648CA
:101980004079401C5449487108464079172802DDC7
:101990000020487100E000BF1BE04F488079401CE8
:1019A0004D498871084680793B2802DD0020887106
:1019B00000E000BF0DE04848C079401C4649C871AE
:1019C0000846C0793B2802DD0020C87100E000BF56
:1019D00000BF36E03E488078022832D13D4800788A
:1019E00020B1302810D060282AD11BE03A48407935
:1019F000002805DD38484079401E3749487102E02B
:101A00001720354948711BE033488079002805DDEF
:101A100031488079401E3049887102E03B202E49D0
:101A200088710DE02C48C079002805DD2A48C0796E
:101A3000401E2949C87102E03B202749C87100BFF8
:101A400000BF23488078062840D1234840792349A5
:101A5000497988420BD12048807920498979884288
:101A600005D11D48C0791D49C979884229D01A4835
:101A7000C1798079184A5279CDE90020029116483F
:101A8000C3788278008800F5FA611BA0FEF77EFC1F
:101A9000124811490A6802604968416003F0D0F9B0
:101AA0000E48C17980790D4A5279CDE90020029122
:101AB0000A48C3788278008800F5FA610EA0FEF724
:101AC00065FC012002490870022048700BB000BD7F
:101AD0001E000020320000202A0000200E010020FD
:101AE000253032643A253032643A253032640000C1
:101AF0002D2D00002E2E00005365743A25642D25EF
:101B0000642D256420253032643A253032643A252C
:101B10003032640D0A00000030B502464FF6FF7007
:101B200009E0C4B2157884EA0503521C054C34F868
:101B3000134084EA10200C1EA1F10105E9B2F0D196
:101B400030BD00006E950008704772B600BFFEE71A
:101B500010B500F025F80446B4F57A6F01DD0320D6
:101B600010BD40F26C70844205DD40F6980084425E
:101B700001DA0420F4E7B4F5617F04DDB4F5966F73
:101B800001DA0120ECE740F2E240844205DD40F258
:101B90000E60844201DA0220E2E70020E0E7000064
:101BA00010B50024084800F0CDF90A21064800F0DD
:101BB00061F918B9044800F0E5F884B2024800F071
:101BC0004BFA204610BD0000180100200349087898
:101BD00010B10021014A1170704700001800002068
:101BE00038B502460020009000BF92F83C00012862
:101BF00001D1022038BD012082F83C0000BF0868F6
:101C0000092816D91068C0680C780A3C04EB440512
:101C10000724AC40A0431468E0600C780A3C04EB55
:101C200044048868A0401468E46820431468E060B5
:101C300013E0106800690C7804EB44050724AC40FD
:101C4000A043146820610C7804EB44048868A04029
:101C5000146824692043146820614868072817D253
:101C60001068406B0C79641E04EB84051F24AC40A3
:101C7000A04314686063088880B20C79641E04EB8A
:101C80008404A0401468646B20431468606331E0EE
:101C900048680D2817D21068006B0C79E41F04EB1C
:101CA00084051F24AC40A04314682063088880B2D8
:101CB0000C79E41F04EB8404A0401468246B2043D7
:101CC0001468206316E01068C06A0C790D3C04EBC0
:101CD00084051F24AC40A0431468E062088880B2E9
:101CE0000C790D3C04EB8404A0401468E46A2043A2
:101CF0001468E0621E4B1F4C1068A0420AD10868AD
:101D0000122807D1586820F400005860586840F441
:101D100080005860174C1068A04222D1164C086809
:101D2000A04202D0086811281BD1586820F4800016
:101D30005860586840F4000058600F4C0868A04292
:101D40000FD10E4800680E4CB0FBF4F000EB8000A1
:101D50004000009002E00098401E0090009800288B
:101D6000F9D100BF002082F83C0000BF00BF41E76E
:101D7000002301400020014012000010100000204C
:101D800040420F0001460868C06C704770B50446B9
:101D900000250CB9012070BD1549A06A884200D009
:101DA00000BF206C30B9204600F024F800206064A9
:101DB00084F83C00206C00F0100088B9206C20F4FE
:101DC000885040F0020020642046FFF747FC0020C6
:101DD0006064206C20F0020040F00100206400E00C
:101DE000012500BF002084F83C0000BF2846D2E750
:101DF0000100000F10B586B00446142101A8FEF7BB
:101E000030FC1949206888422BD100BF0020009087
:101E10001648006840F4807014490860084600685D
:101E200000F48070009000BF00BF00BF0020009051
:101E30000E481438006840F001000C49143908605D
:101E40000846006800F00100009000BF00BF0820B5
:101E50000190032002900020039001A9044800F0A3
:101E60009DF906B010BD000000200140443802403A
:101E70000000024070B504460D46002620688068C8
:101E800000F48060B0F5806F11D12068806800F4A4
:101E90008070B0F5807F0AD1206C40F02000206473
:101EA00000BF002084F83C0000BF012070BD00F09E
:101EB00067FA064618E0681CB0B125B100F060FA78
:101EC000801BA84210D92068006800F00200022898
:101ED0000AD0206C40F00400206400BF002084F889
:101EE0003C0000BF0320E1E72068006800F002002A
:101EF0000228E0D16FF0120021680860206C40F4E5
:101F0000007020642068806800F04050B8B9207EDE
:101F1000A8B92068C06A00F4700020B12068806809
:101F200000F4806058B9206C20F480702064206C2C
:101F300000F4805018B9206C40F0010020640020AB
:101F4000B4E7000008B501460020009000BF91F8FA
:101F50003C00012801D1022008BD012081F83C008D
:101F600000BF0868806800F00100A0B908688068B8
:101F700040F001000B68986033480068334BB0FBB9
:101F8000F3F000EB4000009002E00098401E00904B
:101F900000980028F9D10868806800F00100002846
:101FA00048D0086C40F20163984340F480700864A4
:101FB0000868406800F4806028B1086C20F4005084
:101FC00040F480500864086C00F48050B0F5805FE5
:101FD00004D1486C20F00600486401E00020486409
:101FE00000BF002081F83C0000BF194A6FF02200BA
:101FF0000B681860506800F01F0058B908688068C6
:1020000000F04050F0B90868806840F080400B68EC
:10201000986017E00F4B0868984213D108688068F1
:1020200000F0405070B90868806840F080400B684C
:10203000986007E0086C40F010000864486C40F0BD
:1020400001004864002087E71000002040420F0094
:102050000023014000200140014600BF91F83C00F0
:10206000012801D102207047012081F83C0000BF07
:102070000868806820F001000A689060086880683D
:1020800000F0010028B9086C20F4885040F00100ED
:10209000086400BF002081F83C0000BF00BFE2E7F9
:1020A00070B50446A56D00F06BF9064694F835004E
:1020B000022808D08020606500BF002084F834002A
:1020C00000BF012070BD2068006820F01600216864
:1020D00008602068406920F0800021684861206C19
:1020E00008B9A06C28B12068006820F008002168B9
:1020F00008602068006820F001002168086010E096
:1021000000F03EF9801B05280BD9202060650320D4
:1021100084F8350000BF002084F8340000BF03209D
:10212000D0E72068006800F001000028E8D194F8AA
:102130005C103F208840A860012084F8350000BF73
:10214000002084F8340000BF00BFBBE7014691F8CF
:102150003500022803D08020486501207047052003
:1021600081F835000868006820F001000A681060F6
:102170000020F3E770B5044600F002F90646254654
:10218000681C10B104480078054400BF00F0F8F85E
:10219000801BA842FAD370BD0C000020F8B502469F
:1021A0000B460025002400200021C7E0012606FA86
:1021B00001F51E6806EA0504AC4274D11E7906F0EA
:1021C0000306012E04D01E7906F00306022E13D159
:1021D00090684F000326BE40B0434F00DE68BE400B
:1021E00030439060506801268E40B0431E79C6F39C
:1021F00000168E40304350601E7906F00306032E11
:1022000009D0D0684F000326BE40B0434F009E68FF
:10221000BE403043D0601E7906F00306022E13D173
:10222000CF0802F1200656F827004E07F70E0F26BA
:10223000BE40B0434F07FF0E1E69BE403043CF087B
:1022400002F1200646F8270010684F000326BE4022
:10225000B0431E7906F003064F00BE4030431060C5
:102260005E6806F44036002E67D000BF0026009658
:10227000344E366846F48046324F3E603E463668FD
:1022800006F48046009600BF00BF2F4E8F0856F818
:1022900027008E07370F0F26BE40B0432B4EB242A9
:1022A00002D1002615E048E0294EB24201D10126B4
:1022B0000FE0284EB24201D102260AE0264EB24279
:1022C00001D1032605E0254EB24201D1042600E0EB
:1022D00007268F073F0FBE4030431B4E8F0846F83E
:1022E00027001F4E3068A0435E6806F4801606B1D2
:1022F00020431B4E3060361D3068A0435E6806F4F4
:10230000001606B12043164E361D3060144E361F9F
:102310003068A0435E6806F4003606B12043104ED4
:10232000361F3060361F3068A0435E6806F4803682
:1023300006B120430A4E083E3060491C1029FFF4C4
:1023400035AFF8BD44380240083801400000024073
:102350000004024000080240000C0240001002404D
:10236000083C0140024613690B400BB1012000E01C
:10237000002070470AB1816101E00B04836170475E
:10238000014800687047000004000020034800680E
:102390000349097808440149086070470400002097
:1023A0000C00002010B50D48006840F400700B4987
:1023B00008600846006840F48060086008460068CD
:1023C00040F480700860032000F0AAF8032000F0B9
:1023D00007F800F02BF8002010BD0000003C024080
:1023E00070B504460E4800784FF47A71B1FBF0F0F6
:1023F0000C490968B1FBF0F5284601F054F808B122
:10240000012070BD102C07D200222146501E00F082
:1024100049F80548046001E00120F2E70020F0E7F8
:102420000C000020100000200800002008B500BFAC
:10243000002000901048006840F480400E49086079
:102440000846006800F48040009000BF00BF00BF55
:1024500000200090081F006840F08050091F0860AD
:102460000846006800F08050009000BF00BF0520C3
:1024700000F056F808BD0000443802400146084606
:1024800000280DDB00BF00BF00F01F0301229A40AF
:1024900043099B0003F1E023C3F8002100BF00BF04
:1024A00000BF70472DE9F05F80460D4616460027B5
:1024B00003F0CCFB074639462A46334601F00700B5
:1024C000C0F1070ABAF1040F02D94FF0040A01E083
:1024D000C0F1070AD14600F1040ABAF1070F02D28F
:1024E0004FF0000A01E0A0F1030AD4464FF0010AC0
:1024F0000AFA09FAAAF1010A0AEA020A0AFA0CFA25
:102500004FF0010B0BFA0CFBABF1010B0BEA030BC9
:102510004AEA0B042146404603F0A0FBBDE8F09FC9
:1025200000BF00F00702064B19684FF6FF03194081
:10253000044B0B4343EA0221014B196000BF704773
:102540000CED00E00000FA05F8B504460025002671
:10255000207800F0010020B9207800F00400042861
:1025600031D1002060498866FFF70AFF054606E082
:10257000FFF706FF401B022801D90320F8BD5B4886
:102580000068C0F3C0600028F2D1D4E9011041EA2C
:102590008011207B41EA0070544984310860012099
:1025A00051498866FFF7ECFE054606E0FFF7E8FEB6
:1025B000401B022801D90320E0E74C480068C0F323
:1025C000C0600028F2D0207800F0020002287DD1FF
:1025D00000BF0020009045484030006840F0805027
:1025E0004249403108600846006800F08050009081
:1025F00000BF00BF3E48006840F480703C4908605E
:10260000FFF7BEFE054606E0FFF7BAFE401B0228B4
:1026100001D90320B2E73648006800F48070002832
:10262000F2D032487030006800F440764EB3208A11
:1026300000F44070B04224D02C487030006820F480
:10264000407601202B490860002008602748703040
:102650000660006800F0010098B1FFF791FE0546A2
:1026600008E0FFF78DFE401B41F28831884201D916
:10267000032083E71D4870300068C0F34000002845
:10268000EFD000BF208A00F44070B0F5407F0CD13D
:1026900016480830006820F4F810174A21691140E4
:1026A000084312490831086007E010480830006804
:1026B00020F4F8100D49083108600C4870300068AB
:1026C000218AC1F30B010843084900E002E07031A0
:1026D000086000BF207800F00800082802D1207DA3
:1026E00006490860002049E70000474200380240E0
:1026F00000700040400E4742FFFCFF0FE0114742D0
:1027000070B504460D460CB9012070BD58480068EC
:1027100000F00700A84209D255490D70084600682C
:1027200000F00700A84201D00120EEE7207800F079
:10273000020002281DD1207800F00400042805D1F1
:102740004C48006840F4E0504A490860207800F0A6
:102750000800082805D14748006840F46040454912
:1027600008604448006820F0F000A168084341492F
:102770000860207800F00100A8B36068012807D144
:102780003C4808380068C0F34040B8B90120BCE7B5
:102790006068022802D06068032807D135480838ED
:1027A0000068C0F3406048B90120AEE731480838FE
:1027B0000068C0F3400008B90120A6E72D48006872
:1027C00020F00300616808432A490860FFF7D8FD3C
:1027D000064609E0FFF7D4FD801B41F288318842AC
:1027E00002D9032091E707E02248006800F00C00BE
:1027F0006168B0EB810FEDD11D48006800F0070063
:10280000A84209D91A490D700846006800F007006F
:10281000A84201D0012078E7207800F004000428C5
:1028200007D11448006820F4E050E16808431149DA
:102830000860207800F00800082808D10D480068DA
:1028400020F46040216940EAC1000A49086000F0B4
:102850003FF808490968C1F30311074A515CC840B1
:102860000649086006480068FFF7BAFD00204CE7FB
:10287000003C02400838024050650008100000206B
:102880000800002001480068704700001000002088
:1028900000B5FFF7F7FF04490968C1F38221034A35
:1028A000515CC84000BD0000083802406065000867
:1028B00000B5FFF7E7FF04490968C1F34231034A55
:1028C000515CC84000BD0000083802406065000847
:1028D0002DE9F047002400250026A1462548006880
:1028E00000F00C0020B1042805D008283AD105E0FA
:1028F000DFF8849039E0DFF8849036E01D48001F4F
:10290000006800F03F041B48001F006800F48000CE
:1029100078B11A481749091F0968C1F38811A0FB4B
:1029200001700146224600233846FDF7B8FC0546F3
:102930000EE011480F49091F0968C1F38811A0FB77
:1029400001700146224600233846FDF7A8FC0546E3
:102950000848001F0068C0F30140401C4600B5FB5A
:10296000F6F902E0DFF8109000BF00BF4846BDE86E
:10297000F0870000083802400024F40040787D0110
:10298000F8B504460CB90120F8BD207800F001002C
:10299000002874D0F948006800F00C0004280DD01D
:1029A000F648006800F00C00082813D1F348001F17
:1029B000006800F48000B0F5800F0BD1EF480838B4
:1029C0000068C0F34040002859D06068002856D104
:1029D0000120D9E700BF6068B0F5803F08D1E74823
:1029E0000838006840F48030E449083908601EE087
:1029F0006068B0F5A02F0DD1E0480838006840F4B9
:102A00008020DE49083908600846006840F48030BC
:102A100008600CE0D9480838006820F48030D749B5
:102A2000083908600846006820F48020086000BF6C
:102A3000606890B1FFF7A4FC054606E0FFF7A0FC34
:102A4000401B642801D903209EE7CC480838006861
:102A5000C0F340400028F1D011E0FFF791FC05469B
:102A600006E0FFF78DFC401B642801D903208BE7AB
:102A7000C24808380068C0F340400028F1D12078EF
:102A800000F0020002285FD1BC48006800F00C0092
:102A900058B1BA48006800F00C0008281CD1B748AB
:102AA000001F006800F48000B0B9B448083800681E
:102AB000C0F3400020B1E068012801D0012063E7A5
:102AC000AE480838006820F0F800216940EAC100EB
:102AD000AA490839086037E0E06800B30120A84936
:102AE0000860FFF74DFC054606E0FFF749FC401B78
:102AF000022801D9032047E7A04808380068C0F33E
:102B000040000028F1D09D480838006820F0F80007
:102B1000216940EAC10099490839086014E00020A1
:102B200097490860FFF72CFC054606E0FFF728FCF4
:102B3000401B022801D9032026E790480838006886
:102B4000C0F340000028F1D1207800F008000828E8
:102B50002CD16069A8B101208A490860FFF710FCF8
:102B6000054606E0FFF70CFC401B022801D90320B4
:102B70000AE782486C300068C0F340000028F1D0BA
:102B800014E000207F490860FFF7FAFB054606E0E5
:102B9000FFF7F6FB401B022801D90320F4E6774833
:102BA0006C300068C0F340000028F1D1207800F0BC
:102BB0000400042870D1002770483830006800F005
:102BC000805090B900BF002000906C4838300068F9
:102BD00040F080506949383108600846006800F0CC
:102BE0008050009000BF00BF01276748006800F4D4
:102BF0008070B0B96448006840F480706249086031
:102C0000FFF7BEFB054606E0FFF7BAFB401B0228B4
:102C100001D90320B8E65C48006800F48070002801
:102C2000F2D000BFA068012808D15448683000687D
:102C300040F001005149683108601DE0A068052896
:102C40000DD14E486830006840F004004B496831AF
:102C500008600846006840F0010008600CE0474842
:102C60006830006820F00100444968310860084677
:102C7000006820F00400086000BFA068A8B1FFF75A
:102C80007FFB054609E0FFF77BFB401B41F28831E3
:102C9000884202D9032077E626E038486830006889
:102CA000C0F340000028EED013E0FFF769FB0546B3
:102CB00008E0FFF765FB401B41F28831884201D9EB
:102CC000032061E62D4868300068C0F3400000280A
:102CD000EFD1012F07D129483830006820F080500B
:102CE00026493831086000BFA069002845D0234834
:102CF000006800F00C0008285DD0A069022845D1CA
:102D000000201F490866FFF73BFB054606E0FFF77A
:102D100037FB401B022801D9032035E61748083845
:102D20000068C0F340600028F1D1D4E907010843EE
:102D3000616A40EA81110122A06AC2EB500041EAB7
:102D400000412C20005D41EA00600C49091F086029
:102D500001200B490866FFF713FB054606E0FFF765
:102D60000FFB401B022801D903200DE60348083859
:102D70000068C0F340600028F1D049E00838024004
:102D800000004742800E4742007000400020214969
:102D90000866FFF7F5FA054606E0FFF7F1FA401B73
:102DA000022801D90320EFE51B480068C0F340600A
:102DB0000028F2D12CE0A069012800D1E4E51648F2
:102DC000001D0668A069012820D006F48001E06992
:102DD00081421BD106F03F01206A814216D147F69D
:102DE000C0703040616AB0EB811F0FD106F44031F2
:102DF0000122A06AC2EB5000B1EB004F06D106F0F1
:102E000070612C20005DB1EB006F01D00120BBE5AB
:102E10000020B9E5000047420038024070B5054681
:102E20000B4616460024286840680E4900EA010453
:102E3000200CD870C4F30420587004F03F00987040
:102E4000C4F3423018705EB9D87801F078FFD870BA
:102E5000587801F074FF5870987801F070FF9870FE
:102E6000002070BD3FFFFF0070B504460B461646BC
:102E700000252068806A586020680069C0F30E0051
:102E80009860206800680E4900EA0105C5F3054016
:102E90001870C5F30620587005F07F009870A80DD3
:102EA000D8705EB9187801F04AFF1870587801F0B0
:102EB00046FF5870987801F042FF9870002070BD6E
:102EC0007F7F7F0070B504460CB9012070BD607F24
:102ED00020B900202077204600F04EF802206077CD
:102EE0002068C068C0F3001000283CD100BFCA2091
:102EF0002168486253202168486200BF204601F0E3
:102F000036FF0546EDB9206880681A4908402168F7
:102F1000886021696068084361690843216889689D
:102F20000843216888602168E068086120680169B9
:102F3000208941EA004021680861204601F03CFFF9
:102F400005465DB92068006C20F480202168086483
:102F50002068006CA16908432168086400BFFF2055
:102F60002168486200E000250DB9012060772846FD
:102F7000ACE70000BFFF8FFF10B586B004461821F4
:102F80006846FDF76EFB0949206888420CD1022093
:102F90000090C00104906846FFF7D6FA08B1FEF72A
:102FA000D4FD01200249086006B010BD0028004091
:102FB0003C0E47422DE9F04105460C4617464FF0BE
:102FC000000800BF287F012802D10220BDE8F0815F
:102FD0000120287700BF022068774FB9607800F0A1
:102FE0001000102804D1607800F0EF000A30607003
:102FF00087B9E07801F0AEFE0304607801F0AAFE24
:1030000043EA0023A07801F0A5FE0343207843EAB9
:10301000403809E0E0780004617840EA0120A178B6
:103020000843217840EA413800BFCA202968486235
:1030300053202968486200BF284601F098FE0646E2
:1030400046B90B4808EA000029684860284601F0A4
:10305000B3FE06460EB90120687700BFFF2029683D
:10306000486200BF00BF0020287700BF3046ADE7B0
:103070003FFFFF002DE9F04104460D4617464FF093
:10308000000800BF207F012802D10220BDE8F081A6
:103090000120207700BF02206077CFB920688068C8
:1030A00000F0400000B102E00020E87000BF287886
:1030B00001F050FE0304687801F04CFE43EA00235F
:1030C000A87801F047FE0343E87843EA805812E00D
:1030D0002068806800F0400000B102E00020E87045
:1030E00000BF28780004697840EA0120A9780843E5
:1030F000E97840EA815800BFCA202168486253201D
:103100002168486200BF204601F031FE0646B6B98C
:10311000124808EA0000216808602068806820F4EE
:10312000802021688860D5E9030108432168896807
:10313000084321688860204601F03EFE06460EB92D
:103140000120607700BFFF202168486200BF00BFF8
:103150000020207700BF304698E700007F7F7F0087
:1031600070B5044600250B482168C860FFF708F9D0
:10317000054607E0FFF704F9401BB0F57A7F01D957
:10318000032070BD2068C06800F020000028F1D046
:103190000020F6E75F3F010010B504460CB901209E
:1031A00010BD606A38B96068B0F5827F00D105E073
:1031B0000021E16102E00021216161610021A16241
:1031C00094F8510028B9002084F85000204600F0FF
:1031D00047F8022084F851002068006820F0400081
:1031E00021680860A08800F48270218901F40441FC
:1031F0000843A18901F400610843217C01F0020128
:103200000843217D01F001010843218B01F4007185
:103210000843217F01F0380108432021095D01F0B6
:1032200080010843218D01F40051084321680860A2
:103230000421A06901EA104094F8241001F0100163
:103240000843216848602068C06920F40060216854
:10325000C86100206065012084F8510000209FE7CC
:1032600010B586B00446142101A8FDF7FAF91B49F0
:10327000206888422FD100BF0020009018480068C5
:1032800040F48050164908600846006800F48050F9
:10329000009000BF00BF00BF00200090104814380D
:1032A000006840F002000E491439086008460068C2
:1032B00000F00200009000BF00BF28200190022013
:1032C000029000200390032004900520059001A99E
:1032D0000448FEF763FF06B010BD00000030014057
:1032E00044380240000402402DE9F84304460F46EA
:1032F00016461D46FFF744F88046B14694F8510043
:10330000012802D00220BDE8F88307B10EB90120E0
:10331000F9E700BF94F85000012801D10220F2E73C
:10332000012084F8500000BF032084F851000020E1
:1033300060652763A686E686A063A087E087606451
:103340002064A068B0F5004F0BD12068006820F021
:103350004000216808602068006840F480402168CF
:1033600008602068006800F04000402805D0206810
:10337000006840F0400021680860E068B0F5006F28
:1033800037D1606810B1B9F1010F09D1206B008805
:103390002168C860206B801C2063E08E401EE086A0
:1033A00023E02068806800F0020002280AD1206B28
:1033B00000882168C860206B801C2063E08E401E5E
:1033C000E08612E0FEF7DCFFA0EB0800A84201D384
:1033D000681C00B94DB9012084F8510000BF0020DD
:1033E00084F8500000BF03208DE7E08E0028D8D17C
:1033F00036E0606810B1B9F1010F09D1206B007897
:1034000021680873206B401C2063E08E401EE0861C
:1034100023E02068806800F0020002280AD1206BB7
:10342000007821680873206B401C2063E08E401EEA
:10343000E08612E0FEF7A4FFA0EB0800A84201D34B
:10344000681C00B94DB9012084F8510000BF00206C
:1034500084F8500000BF032055E7E08E0028D8D143
:1034600042462946204601F0EDFD08B12020606566
:10347000A06850B900BF002000902068C06800908C
:1034800020688068009000BF00BF012084F85100D0
:1034900000BF002084F8500000BF606D08B101201B
:1034A00031E700202FE770B504462546681EB0F1CD
:1034B000807F01D301200FE0681E4FF0E0214861BA
:1034C0000F214FF0FF3002F0C9FB00204FF0E02148
:1034D000886107200861002070BD7047704710B5F3
:1034E00004460CB9012010BD94F83D0028B9002015
:1034F00084F83C00204600F025F8022084F83D00C6
:10350000211D206802F052F8012084F8460000BF17
:1035100084F83E0001213F20015540200155412003
:10352000015500BF00BF012084F84200432001552F
:10353000442001554520015500BF012084F83D007D
:103540000020D0E738B5044618492068884218D1D1
:1035500000BF002000901648006840F480301449F5
:1035600008600846006800F48030009000BF00BF8B
:10357000002202211820FEF795FF1820FEF77EFF9B
:1035800013E00C49206888420FD100BF0020009052
:103590000748006840F48020054908600846006834
:1035A00000F48020009000BF00BF38BD0040014003
:1035B0004438024000480140014691F83D0001288E
:1035C00001D001207047022081F83D00164B0868A9
:1035D000984213D00868B0F1804F0FD0134B0868A1
:1035E00098420BD0124B0868984207D0114B0868DC
:1035F000984203D0104B086898420CD10868806844
:1036000000F00702062A0CD00868006840F00100AC
:103610000B68186005E00868006840F001000B685E
:1036200018600020CEE700000000014000040040C8
:1036300000080040000C0040004001402DE9F0412E
:1036400004460D46002700BF94F83C00012802D133
:103650000220BDE8F081012084F83C0000BF022078
:1036600084F83D002068866826F0770626F47F46B9
:10367000206886602868502833D00CDC202850D081
:1036800004DC00284BD0102851D149E0302849D023
:1036900040284CD139E060282DD0702807D0B0F5F3
:1036A000805F03D0B0F5005F41D10DE041E0D5E986
:1036B00002136A68206801F0CFFF2068866846F030
:1036C00077062068866034E0D5E902136A682068CE
:1036D00001F0C2FF2068806840F480402168886063
:1036E00027E0EA686968206801F0CAFF5021206875
:1036F00001F0BDFF1DE0EA686968206801F0D3FFB2
:103700006021206801F0B3FF13E0EA68696820686F
:1037100001F0B6FF4021206801F0A9FF09E000BFD9
:1037200000BF00BF2968206801F0A1FF01E0012768
:1037300000BF00BF012084F83D0000BF002084F8D6
:103740003C0000BF384684E7704770B504462068E7
:10375000C5682068066906F00200022819D105F044
:103760000200022815D1401F21680861012020773E
:103770002068806900F0030018B12046FFF7E4FFDD
:1037800005E0204600F097F8204600F095F800206C
:10379000207706F00400042819D105F0040004285D
:1037A00015D1C04321680861022020772068806914
:1037B00000F4407018B12046FFF7C6FF05E0204630
:1037C00000F079F8204600F077F80020207706F026
:1037D0000800082819D105F00800082815D1C043B1
:1037E00021680861042020772068C06900F0030088
:1037F00018B12046FFF7A8FF05E0204600F05BF86F
:10380000204600F059F80020207706F0100010281C
:1038100019D105F01000102815D1C04321680861A6
:10382000082020772068C06900F4407018B1204655
:10383000FFF78AFF05E0204600F03DF8204600F043
:103840003BF80020207706F0010048B105F00100A8
:1038500030B16FF0010021680861204600F02EF8B9
:1038600006F08000802809D105F08000802805D16D
:10387000C043216808612046FFF72FFE06F0400094
:10388000402809D105F04000402805D1C0432168F7
:103890000861204600F076F806F02000202809D1C3
:1038A00005F02000202805D1C0432168086120468A
:1038B000FFF714FE70BD70477047000038B504462E
:1038C0002A49206888424FD16FF0010028490968D1
:1038D000086128480068401C26490860084640687E
:1038E000401C486008468068401C88600846C068E4
:1038F000401CC86008460069401C086108464069D1
:10390000401C4861084640680A2803D300204860EC
:1039100000F06AFC17488068B0F57A7F02D3002077
:10392000144988601348C06864281DD300201149D9
:10393000C86011480078012816D11048104909784C
:1039400000EB412040231A4600210090084601F078
:103950007DF90B480078401C09490870084600783A
:10396000062801DB0020087038BD0000004001403F
:10397000D8010020E4020020210000207982000804
:103980000000002070477047704700002DE9F84F95
:103990000446206805682068C668206847694FF0BB
:1039A0000009CA4605F00F09B9F1000F0AD105F068
:1039B000200038B106F0200020B1204601F0D6FEEC
:1039C000BDE8F88FB9F1000F7CD007F0010018B9FD
:1039D00006F49070002875D005F0010030B106F4AF
:1039E000807018B1606C40F00100606405F0040064
:1039F00030B107F0010018B1606C40F00200606463
:103A000005F0020030B107F0010018B1606C40F021
:103A10000400606405F0080048B106F0200010B909
:103A200007F0010018B1606C40F008006064606C41
:103A3000002846D005F0200028B106F0200010B183
:103A4000204601F093FE20684069C0F3801A606C44
:103A500000F0080010B9BAF1000F2DD0204601F097
:103A60003FFE2068406900F04000402820D100BFA0
:103A700000BF2168143151E8001F21F04000216887
:103A8000143141E80002002AF3D100BFE06B50B1CD
:103A90007F48E16B0865E06BFEF758FB88B1E06B8F
:103AA000016D88470DE02046FFF76EFF09E009E051
:103AB0002046FFF769FF04E02046FFF765FF00207E
:103AC00060647DE7206B012878D105F010000028A4
:103AD00074D006F010000028FAD000BF002000903B
:103AE00020680068009020684068009000BF00BF18
:103AF0002068406900F04000402870D1E06B006809
:103B000040681FFA80F8B8F1000F58D0A08D4045EA
:103B100055DDA4F82E80E06BC069B0F5807F43D0FE
:103B200000BF00BF21680C3151E8001F21F48070F4
:103B300021680C3141E80002002AF3D100BF00BF28
:103B400000BF2168143151E8001F21F001002168F5
:103B5000143141E80002002AF3D100BF00BF00BFCA
:103B60002168143151E8001F21F040002168143110
:103B700041E80002002AF3D100BF202084F842006F
:103B80000020206300BF00BF21680C3151E8001FF6
:103B900021F0100021680C3141E80002002AF3D125
:103BA00000BFE06BFEF77CFA02206063A08DE28D1F
:103BB000801A81B22046FFF7E6FE0EE052E0A08DAB
:103BC00040450AD1E06BC069B0F5807F05D1022085
:103BD0006063A18D2046FFF7D6FEF1E6FFE7A08DDA
:103BE000E18D401A1FFA80F8E08DD0B3B8F1000FD4
:103BF00037D000BF00BF21680C3151E8001F21F40D
:103C0000907021680C3141E80002002AF3D100BF16
:103C100000BF00BF2168143151E8001F21F00100EE
:103C20002168143141E80002002AF3D100BF2020AE
:103C300084F842000020206300BF00BF21680C31DF
:103C400051E8001F21F0100021680C3141E800020A
:103C5000002AF3D100BF0220606341462046FFF7EF
:103C600092FEADE605F0800030B106F0800018B19C
:103C7000204601F01FFFA3E605F0400030B106F03A
:103C8000400018B1204601F061FD99E600BF97E6BB
:103C9000CF56000810B504460CB9012010BDA0692C
:103CA00000B100E000BF94F8410028B9002084F87A
:103CB0004000204600F02AF8242084F841002068C3
:103CC000C06820F400502168C860204601F0DCFD87
:103CD0002068006920F490402168086120684069EC
:103CE00020F02A00216848612068C06840F4005034
:103CF0002168C86000206064202084F8410084F8B6
:103D000042000020606300BFC8E7000010B586B025
:103D10000446142101A8FCF7A4FC1F49206888422E
:103D200038D100BF002000901C48006840F010000F
:103D30001A4908600846006800F01000009000BFB3
:103D400000BF00BF0020009014481438006840F005
:103D500001001249143908600846006800F00100AB
:103D6000009000BF00BF4FF4C0600190022002909D
:103D700000200390032004900720059001A9084823
:103D8000FEF70CFA022211462520FEF78BFB2520B8
:103D9000FEF774FB06B010BD00100140443802402D
:103DA0000000024070472DE9F84F04460E461746C2
:103DB00099464FF0000A94F84100202850D106B1EE
:103DC00017B90120BDE8F88F00206064212084F835
:103DD0004100FEF7D5FA8246A784E784A068B0F5D3
:103DE000805F04D1206910B90025B04602E0354655
:103DF0004FF000081EE05346002280212046CDF8F7
:103E0000009001F087FE20B1202084F841000320BB
:103E1000D8E745B9B8F80000C0F308002168486049
:103E200008F1020803E02878216848606D1CE08CE6
:103E3000401EE084E08C0028DDD153460022402162
:103E40002046CDF8009001F065FE20B1202084F8D6
:103E500041000320B6E7202084F841000020B1E7AC
:103E60000220AFE77047000010B501220421094885
:103E7000FEF780FA012202210648FEF77BFA0022B3
:103E80004FF400510448FEF775FA3220FEF772F93C
:103E900010BD0000000002400008024010B586B0CE
:103EA00000200C49086100BF0A48006941F28831CE
:103EB000884202D3002006B010BD6946064800F0D3
:103EC000B9F80446002CEFD09DF806000028EBD08E
:103ED0000120F0E7E40200209500002010B586B034
:103EE00000200C49086100BF0A48006941F288318E
:103EF000884202D3002006B010BD6946064800F093
:103F000099F80446002CEFD09DF806000028EBD06D
:103F10000120F0E7E40200204D00002030B587B01A
:103F20000446182101A8FCF79CFB01A9054800F0F4
:103F300081F80546012D02D19DF80B00207007B0D5
:103F400030BD0000AD00002030B587B00446182118
:103F500001A8FCF786FB01A9114800F06BF80546A3
:103F6000012D0ED19DF80B0001280AD19DF80E00FD
:103F700020709DF80F006070FFF7B0FF00F036F87A
:103F80000CE0012D0AD19DF80B00022806D100207B
:103F900020706070FFF7A2FF00F028F807B030BD76
:103FA0006500002010B586B018216846FCF759FB63
:103FB00000200C49086100BF0A48006941F28831BD
:103FC000884202D3002006B010BD6946064800F0C2
:103FD00031F80446002CEFD09DF806000028EBD005
:103FE0000120F0E7E40200207D00002010B586B03B
:103FF00018216846FCF735FB00200C49086100BF1A
:104000000A48006941F28831884202D3002006B094
:1040100010BD6946064800F00DF80446002CEFD0AC
:104020009DF806000028EBD00120F0E7E402002014
:10403000350000202DE9F04105460C464FF00108FF
:104040001221281DFDF768FD0646EE82284600F085
:10405000B3F8204600F092F81221201DFDF75CFD18
:104060000646E78ABE4201D04FF000084046BDE850
:10407000F08100BFFEE7000000B587B00020069089
:1040800032480078012827D100203049087000F01C
:1040900067FCFFF723FF2E4836231A4600210090C5
:1040A000084600F0D3FD10232AA25021012000F081
:1040B000F5FD102329A25021042000F0EFFDFFF7A9
:1040C00071FF284908700846007828B9102326A2F5
:1040D0005021042000F0E2FD06A8FFF71FFF9DF825
:1040E0001800C0B11F480078A8B1214800789DF899
:1040F000181088420FD09DF818001D4908709DF8CF
:1041000018201CA101A8FCF74DF9182301AA46218B
:10411000042000F0C3FD0D488078032802D0042855
:1041200010D107E0022002F059F908494870012037
:10413000087007E0012002F051F90449487001209D
:10414000087000BF00BF07B000BD00001E000020C7
:1041500079920008D0C4C2CA00000000746573746C
:104160000000000033000020657272210000000092
:1041700034000020253033640000000070B505468F
:1041800001F082FFCD2001F04BFF01F0BFFE0024C3
:104190000DE001F0E7FE2855172C03D1012001F0B6
:1041A00015FF02E0002001F011FF601CC4B2182CC2
:1041B000EFDB01F08DFF70BD70B5054601F064FFC7
:1041C000CC2001F02DFF01F0A1FE002406E0285DC7
:1041D00001F026FF01F09AFE601CC4B2182CF6DB39
:1041E00001F076FF70BD000070B5FDF7B1FC05462B
:1041F0003E480078854220D03C480078D8B9D5B1F7
:10420000012D06D0022D08D0032D0AD0042D10D187
:104210000BE00120364908700CE002203449087098
:1042200008E003203249087004E004203049087097
:1042300000E000BF00BF2D48057001212D48FEF7AA
:1042400091F804462C480088401C2B4908802B48D4
:104250000078052847D2DFE800F0030C1A2D410052
:10426000012C05D100202449088001202349087031
:1042700039E0012C07D120480088022806DB022003
:104280001E49087002E000201C4908702BE034B978
:1042900000201949088003201849087009E01648D1
:1042A0000088462805DB04201449087007201049BF
:1042B000087018E0104800881E2806DD05200C490B
:1042C000087000200D49087007E0012C05D1062078
:1042D0000749087004200949087004E014B9002057
:1042E0000649087000BF00BF70BD00001900002023
:1042F00018000020000002401C0000201A000020CE
:1043000010B50446204600F04DF8B4F9060000EE62
:10431000100AB8EEC00ADFED210A80EE201A84ED03
:10432000031AB4F9080000EE100AB8EEC00ADFED77
:104330001B0A80EE201A84ED041AB4F90A0000EE7C
:10434000100AB8EEC00ADFED150A80EE201A84EDDF
:10435000051AB4F9000000EE100AB8EEC00ADFED4D
:10436000100A80EE201A84ED061AB4F9020000EE5D
:10437000100AB8EEC00ADFED0A0A80EE201A84EDBA
:10438000071AB4F9040000EE100AB8EEC00ADFED17
:10439000040A80EE201A84ED081A10BD00000045C2
:1043A000333383411FB504466B460E223B21682000
:1043B00000F09FF89DF801009DF8001040EA0120F0
:1043C00000B2E0809DF803009DF8021040EA012051
:1043D00000B220819DF805009DF8041040EA0120FC
:1043E00000B260819DF809009DF8081040EA0120A4
:1043F00000B220809DF80B009DF80A1040EA0120D1
:1044000000B260809DF80D009DF80C1040EA01207C
:1044100000B2A0801FBD000010B513A0FBF7B6FFCF
:10442000752000F035F80446214616A0FBF7AEFFD4
:1044300000216B2000F0A2F8322001F0D3FC002113
:104440006C2000F09BF818211B2000F097F8182131
:104450001C2000F093F80721192000F08FF80621A6
:104460001A2000F08BF810BD4D50553630353020F5
:10447000496E697469616C697A6174696F6E0D0A5D
:104480000000000049443A2523780D0A000000008E
:1044900070B5054600F0D6FFD02000F099FF00F07F
:1044A00005FF04461CB100F0F1FF012070BD284655
:1044B00000F08EFF00F0FAFE04461CB100F0E6FFAB
:1044C0000220F3E700F0BEFFD12000F081FF00F0F2
:1044D000EDFE04461CB100F0D9FF0120E6E700F034
:1044E0000FFF0646012000F041FF00F0CFFF3046ED
:1044F000DCE72DE9F04104460F4615461E4600F064
:10450000A1FF002141EA4401C8B200F061FF00F0C0
:10451000CDFE20B100F0BAFF0120BDE8F0813846A1
:1045200000F056FF00F0C2FE18B100F0AFFF01200E
:10453000F3E700F087FF012101EB4401C8B200F06E
:1045400047FF00F0B3FE18B100F0A0FF0120E4E740
:104550000BE000F0D5FE06F8010B1DB1002000F0C5
:1045600005FF02E0012000F001FF281EA5F1010176
:10457000CDB2EED100F08AFF0020CEE770B506463E
:104580000D4600F05FFFD02000F022FF00F08EFE0D
:1045900004461CB100F07AFF012070BD304600F0E7
:1045A00017FF00F083FE04461CB100F06FFF0220ED
:1045B000F3E7284600F00CFF00F078FE04461CB13B
:1045C00000F064FF0320E8E700F060FF0020E4E76C
:1045D0001FB50020009001900290039015481649E5
:1045E00008604FF480304860002113488160016109
:1045F000017680F82010C162104981620021C160FB
:104600000121C161002180F8301001214161FDF7D5
:10461000BDFB08B1FDF799FA03200090012001903D
:104620000020029069460448FDF7DAFA08B1FDF768
:104630008CFA1FBD00200140180100200100000F6E
:1046400000B587B0142102A8FCF70BF800BF0020CA
:1046500001904B48006840F0040049490860084652
:10466000006800F00400019000BF00BF00BF002000
:1046700001900846006840F0800008600846006825
:1046800000F08000019000BF00BF00BF002001903B
:104690000846006840F0010008600846006800F025
:1046A0000100019000BF00BF00BF0020019008463C
:1046B000006840F0020008600846006800F0020050
:1046C000019000BF00BF012251032E48FDF752FEAA
:1046D000012248F286012C48FDF74CFE00224FF4DF
:1046E00080612A48FDF746FE01224FF40E5127480B
:1046F000FDF740FE4FF4005002900120039000208F
:104700000490059002A91F48FDF748FD0120029082
:1047100000200390049002A91B48FDF73FFD0620EE
:1047200002901120039000200490059002A91648E1
:10473000FDF734FD48F28000029001200390002034
:104740000490059002A91048FDF728FD4FF412507F
:1047500002900120039000200490059002A90B48CC
:10476000FDF71CFD4FF440700290112003900020D3
:104770000490059002A90548FDF710FD07B000BDA3
:1047800030380240000802400000024000040240AD
:1047900000B587B0142102A8FBF763FF0020019049
:1047A0001B481C490860002048607F21194881602F
:1047B000FF21C1600021016141618161FEF782FB3F
:1047C00008B1FDF7C2F900208DF808008DF8090046
:1047D0008DF80A0005900690012202A90D48FEF707
:1047E00049FC08B1FDF7B1F901208DF804008DF8FE
:1047F00005008DF8060000208DF80700012201A9B0
:104800000448FEF7D7FB08B1FDF79FF907B000BDDC
:10481000002800406001002010B50E480E490860D5
:104820004FF48270486000210B488160C160022112
:10483000016101214161490281610021C16101627F
:10484000416281620A21C162FEF7A6FC08B1FDF750
:104850007CF910BD003001408001002010B50A48ED
:104860000A490860002048600021084881604FF62E
:10487000FF71C160002101618161FEF730FE08B166
:10488000FDF763F910BD0000004801402002002040
:104890001FB5002000900190029003901248134928
:1048A00008606320486000211048816040F2E731D1
:1048B000C160002101618161FEF711FE08B1FDF7C1
:1048C00044F94FF48050009069460848FEF7B6FE60
:1048D00008B1FDF73AF905480068C06840F00100EA
:1048E00002490968C8601FBD00400140D80100208E
:1048F00010B51748174908604FF4E13048600021AF
:1049000014488160C16001610C2141610021816115
:10491000C161FFF7BFF908B1FDF717F90D4800684D
:10492000C06840F020000B490968C8600948006869
:10493000C06840F0100007490968C8600548006871
:10494000C06840F4005003490968C86010BD000009
:10495000001001406802002000BFFEE700BFFEE734
:1049600070B5054600241FE004F1B001C8B2002173
:1049700000F0C2F90021084600F0BEF90021102025
:1049800000F0BAF900260BE025B90121002000F063
:10499000B3F903E00121FF2000F0AEF9701CC6B2AC
:1049A000842EF1DB601CC4B2082CDDDB70BD10B5B9
:1049B00000F078F80021AE2000F09EF900210220DE
:1049C00000F09AF90021102000F096F90021402013
:1049D00000F092F90021812000F08EF90021FF20E3
:1049E00000F08AF90021A12000F086F90021C820FA
:1049F00000F082F90021A62000F07EF90021A82015
:104A000000F07AF900213F2000F076F90021D32050
:104A100000F072F90021084600F06EF90021D5205F
:104A200000F06AF90021802000F066F90021D92009
:104A300000F062F90021F12000F05EF90021DA2097
:104A400000F05AF90021122000F056F90021DB2075
:104A500000F052F90021402000F04EF90021202002
:104A600000F04AF90021022000F046F900218D20D3
:104A700000F042F90021142000F03EF90021A420AA
:104A800000F03AF90021A62000F036F90021AF200D
:104A900000F032F90021AF2000F02EF90020FFF7DE
:104AA0005FFF10BD10B500224FF400510748FDF71D
:104AB00061FC642001F096F9012251030348FDF7DF
:104AC00059FC642001F08EF910BD00000004024082
:104AD00070B505460C4605F1B001C8B2002100F0E2
:104AE0000BF9102141EA2410002100F005F904F02F
:104AF0000F00002100F000F970BD00002DE9F04723
:104B00000746884691461D46A9F1200000F0FF0A9D
:104B100000242EE008F10202D1B23A19D0B2FFF718
:104B2000D7FF102D10D100260BE04FEA0A1101EB40
:104B3000C4013144134A505C012100F0DDF8701CBF
:104B4000C6B2082EF1DB12E0182D10D100260CE0C1
:104B50000AEB4A01090101EB041131440A4A505C95
:104B6000012100F0C9F8701CC6B2102EF0DB601CE9
:104B7000C4B2E91705EB5171B4EBE10FCADBBDE834
:104B8000F0870000B9680008A96E00082DE9F04719
:104B900081468A4690461C46002510E098F80000A1
:104BA000274A12F81510884207D198F801106800BA
:104BB000401C105C814200D106E0681CC5B220494F
:104BC00011F815000028E9D100BF1D4911F81500A2
:104BD00008B9BDE8F08700262AE00AF10202D1B246
:104BE00009EB0602D0B2FFF773FF00271CE0102C80
:104BF00009D1690101EB06113944124A505C0121C7
:104C000000F07AF80EE0182C0CD105EBC501C900B4
:104C100006EB460201EBC20139440B4A505C01210C
:104C200000F06AF8781CC7B2A742E0DB701CC6B27D
:104C3000E11704EB5171B6EBE10FCEDB00BFC8E723
:104C40006865000879650008796600082DE9F04775
:104C50000746894615469846DDF820A0002413E053
:104C60003919C8B24946FFF733FF002608E005FBB3
:104C700004611AF80100012100F03EF8701CC6B270
:104C8000AE42F4DB601CC4B208F10700C11700EBB0
:104C90005171B4EBE10FE3DBBDE8F0872DE9F041A2
:104CA00007460D4614461E4621E02078202815DBD5
:104CB00020787F2812DC2278334629463846FFF7D1
:104CC0001DFF641C102E03D105F10800C5B20EE0D3
:104CD000182E0CD105F11000C5B208E0334622466B
:104CE00029463846FFF752FFA41CA819C5B2207800
:104CF0000028DAD1BDE8F08170B505460C460022E7
:104D000080210C48FDF736FB2CB10122D1030A4863
:104D1000FDF730FB05E000224FF400410648FDF7A7
:104D200029FB284600F084F9012280210148FDF783
:104D300021FB70BD000402400000024070470146A4
:104D400000BF080900EB8000420001F00F00104492
:104D5000C0B270470146002203E0521CA1F10A00D4
:104D6000C1B20A29F9D2100741EA1060704770B544
:104D70000446002600252068C06800F04000C8B93D
:104D80002068C06840F080002168C860FDF7F8FA2C
:104D9000064608E0FDF7F4FA801BB0F57A7F02D9E9
:104DA0000420607701252068C06800F0400008B941
:104DB000012DEFD1284670BD70B50446002520684E
:104DC000C06820F080002168C8602068806800F01A
:104DD000200030B92046FEF7C3F910B104206077F7
:104DE0000125284670BD000010B586B00446142188
:104DF00001A8FBF736FC00200090002201A90F4813
:104E0000FEF732F8002269460C48FEF707F89DF8D5
:104E1000030020809DF80100A0709DF80200E07062
:104E20009DF8000020719DF8040060719DF8050058
:104E3000A0719DF80600E07106B010BD6001002071
:104E400030B587B00446142102A8FBF70AFC002005
:104E50000190012560798DF80800A0798DF809008E
:104E6000E0798DF80A00002005900690002202A942
:104E70000D48FEF7FFF8054615B1284607B030BDCE
:104E800020798DF80400A0788DF80500E0788DF881
:104E9000060020788DF80700002201A90248FEF7DD
:104EA00089F805462846E9E76001002010B500F0C2
:104EB000EFF9002400F0C6FA802000F089FA00F033
:104EC000F5F90446012C03D100F0E0FA012010BDF1
:104ED000FE2000F07DFA00F0E9F90446012C03D130
:104EE00000F0D4FA0220F2E700F0D0FA142000F02B
:104EF00079FF0020EBE7000038B504466946F5204D
:104F000000F024F808B1012038BDBDF800004FF6CC
:104F1000FC7108400090BDF8000000EE100AB8EEE9
:104F2000400ADFED080A60EE200A9FED071A80EEC6
:104F3000810AF9EE080A30EE200A84ED000A00200A
:104F4000E2E700000000FA42000080472DE9F0414E
:104F500080460D46002400F075FA802000F038FAF3
:104F600000F0A4F90446012C04D100F08FFA0120CE
:104F7000BDE8F081404600F02BFA00F097F90446B6
:104F8000012C03D100F082FA0220F1E700F07EFA52
:104F9000642000F027FF00F055FA812000F018FA95
:104FA00000F084F90446012C03D100F06FFA0120CF
:104FB000DEE700F0A5F90646002000F0D7F900F082
:104FC0009FF90746012000F0D1F900F05FFA47EAA7
:104FD000062028800020CBE738B504466946F32038
:104FE000FFF7B4FF08B1012038BDBDF800004FF64F
:104FF000FC7108400090BDF8000000EE100AB8EE09
:10500000400ADFED080A60EE200A9FED071A80EEE5
:10501000810ADFED060A30EE200A84ED000A002046
:10502000E2E7000052B82F430000804766663BC2AB
:1050300001B56423012269460148FEF755F908BD10
:10504000800100207CB504460E46154633460122F9
:1050500002212046009500F039F828B1606D40F03B
:105060002000606503207CBD164800681821B0FB55
:10507000F1F01549B0FBF1F04FF47A71484301901B
:105080006068B0F5827F0DD1334600228021204632
:10509000009500F01BF898B1606D40F0200060654D
:1050A0000320E0E700BF019800B908E00198401E26
:1050B000019020688068C0F3C0100028F3D100BFC1
:1050C0000020D0E71000002040420F002DE9F84FEB
:1050D00004460D4690461E46DDF82890FDF750F92F
:1050E000A0EB0900371AFDF74BF982462C480068FF
:1050F000C0F3CB307843009046E0701C002843D0CA
:10510000FDF73EF9A0EB0A00B84200D2A7BB206829
:10511000406820F0E000216848606068B0F5827F58
:105120000DD1A068B0F5004F03D0A068B0F5806F36
:1051300005D12068006820F0400021680860A06A5E
:10514000B0F5005F0DD100BF2068006820F400506A
:10515000216808602068006840F4005021680860F9
:1051600000BF012084F8510000BF002084F85000E7
:1051700000BF0320BDE8F88FFFE7009808B90027BB
:1051800002E00098401E0090206880682840A842F5
:1051900001D1012000E000204045AED10020E9E728
:1051A000100000207047000000B52DED028B87B085
:1051B0002E48007801280CD100202C490870FFF7F8
:1051C000CFFB2B4840231A46002100900846FFF7EA
:1051D0003DFD28480068B0F5FA7F2AD30020254914
:1051E000086005A8FFF788FE06A8FFF7F5FE0698F9
:1051F00001F036F941EC180B53EC182B1EA102A854
:10520000FBF7D0F8102302AA41210120FFF746FD49
:10521000059801F025F941EC180B53EC182B19A156
:1052200002A8FBF7BFF8102302AA41210420FFF7D0
:1052300035FD0E488078032802D0042810D107E0FD
:10524000022001F0CBF8094948700120087007E0FE
:10525000012001F0C3F8054948700120087000BF23
:1052600000BF07B0BDEC028B00BD00001E00002097
:1052700079900008E4020020543A25302E3166204F
:1052800000000000523A25302E316625252000000E
:1052900010B5012211020448FDF76CF801225102F9
:1052A0000148FDF767F810BD0004024010B5002268
:1052B0004FF480711148FDF75DF8012251020F484B
:1052C000FDF758F8052000F0D1FD012211020B482E
:1052D000FDF750F8052000F0C9FD4FF400710748B4
:1052E000FDF740F8044600224FF480710348FDF7B3
:1052F00041F8052000F0BAFD204610BD0004024030
:1053000070B50024012251021748FDF733F800253B
:105310001CE06006040E00224FF480711248FDF775
:1053200029F8052000F0A2FD012211020E48FDF728
:1053300021F8052000F09AFD4FF400710A48FDF7AE
:1053400011F808B144F00104681CC5B2082DE0DB77
:1053500000224FF480710448FDF70CF8052000F09E
:1053600085FD204670BD00000004024010B50446D3
:1053700000224FF480711548FCF7FCFF052000F077
:1053800075FD2CB1012251021048FCF7F3FF05E036
:1053900000224FF400710D48FCF7ECFF01221102CE
:1053A0000A48FCF7E7FF052000F060FD00224FF4FB
:1053B00080710648FCF7DEFF012251020348FCF72A
:1053C000D9FF052000F052FD10BD0000000402408E
:1053D00070B50446002526E000224FF4807118487D
:1053E000FCF7C8FF052000F041FD04F0800028B163
:1053F000012251021248FCF7BDFF05E000224FF4E4
:1054000000710F48FCF7B6FF6006040E052000F09F
:105410002DFD012211020A48FCF7ACFF052000F027
:1054200025FD681CC5B2082DD6DB00224FF4807123
:105430000348FCF79FFF052000F018FD70BD000039
:105440000004024010B5012251020F48FCF792FF00
:10545000012211020C48FCF78DFF052000F006FD2B
:1054600000224FF400710848FCF784FF052000F08B
:10547000FDFC00224FF480710348FCF77BFF052000
:1054800000F0F4FC10BD00000004024010B5002242
:105490004FF400710B48FCF76DFF052000F0E6FCAF
:1054A000012211020748FCF765FF052000F0DEFC31
:1054B000012251020348FCF75DFF052000F0D6FCF5
:1054C00010BD00000004024010B5FCF75FFF10BDE6
:1054D00000B593B0302107A8FBF7C3F8142102A848
:1054E000FBF7BFF800BF002001902548006840F09E
:1054F0008050234908600846006800F08050019001
:1055000000BF00BF00BF002001901E48006840F4AB
:1055100040401C4908600846006800F44040019083
:1055200000BF00BF052007904FF480300890012095
:10553000099002200D9041050E910C210F916021E0
:105540001091022111910421129107A8FDF718FA78
:1055500008B1FCF7FAFA0F20029002200390002015
:1055600004904FF48050059000200690032102A87B
:10557000FDF7C6F808B1FCF7E8FA13B000BD00006B
:1055800040380240007000400348006840F470005A
:10559000014908607047000088ED00E010B502483E
:1055A000FEF7D3F810BD0000D801002010B5026846
:1055B000224B98420BD0B0F1804F08D0204B98423C
:1055C00005D0204B984202D01F4B984203D122F0C5
:1055D00070024B681A43194B984214D0B0F1804FB7
:1055E00011D0174B98420ED0164B98420BD0164B49
:1055F000984208D0154B984205D0154B984202D0DE
:10560000144B984203D122F44072CB681A4322F023
:1056100080034C6943EA04028B68C3620B688362AF
:10562000064B984201D10B690363036843F00403FE
:10563000036001234361026010BD000000000140CF
:105640000004004000080040000C00400040014001
:10565000004401400048014030B50C46816821F407
:105660007F4142EA032525432943816030BD0A4634
:10567000816821F0700142F007031943816070478F
:1056800030B50B461446026A056A25F0010505622D
:10569000816921F0F00141EA041122F00A021A4363
:1056A0008161026230BD30B50B461446026A056A5C
:1056B00025F010050562816921F4704141EA043149
:1056C00022F0A00242EA03128161026230BD70B58D
:1056D0000446A56B0020E8852846FEF755F970BD05
:1056E00000BF00BF02680C3252E8002F22F4907114
:1056F00002680C3242E80013002BF3D100BF00BF58
:1057000000BF0268143252E8002F22F00101026843
:10571000143242E80013002BF3D100BF016B0129C2
:105720000ED100BF00BF02680C3252E8002F22F0F9
:10573000100102680C3242E80013002BF3D100BFC5
:10574000202180F8421000210163704710B5044603
:105750002068C06820F040002168C860202084F8DC
:1057600041002046FEF77EFB002010BDF8B5044640
:105770000025002694F84200222873D1A068B0F5D5
:10578000805F0BD1206948B9A66A20684068C0F3E1
:1057900008003080A06A801CA06214E0A56AA0689E
:1057A000B0F5805F03D0A06828B9206918B92068D7
:1057B0004068287004E02068406800F07F0028708E
:1057C000A06A401CA062E08D401E80B2E0850028E7
:1057D00046D12068C06820F020002168C860206899
:1057E000C06820F480702168C8602068406920F09B
:1057F000010021684861202084F842000020606395
:10580000206B012826D10020206300BF00BF216843
:105810000C3151E8001F21F0100021680C3141E8E3
:105820000002002AF3D100BF2068006800F01000D9
:1058300010280AD100BF0020009020680068009066
:1058400020684068009000BF00BFA18D2046FEF791
:105850009AF802E02046FEF7A5FA0020F8BD01E024
:105860000020FBE70220F9E770B504462046FAF76E
:10587000D9FE85B24FF4FA732A4621460148FEF755
:1058800092FA70BD680200202DE9F84F04462068A6
:10589000006920F44050E1680843216808612169EB
:1058A000A068084361690843E169084300902068E3
:1058B000C06849F20C618843009908432168C860B8
:1058C0002068406920F44070A1690843216848615C
:1058D00076492068884203D075492068884203D100
:1058E000FCF7E6FF814602E0FCF7D2FF8146E06963
:1058F000B0F5004F6CD102206168A0FB0150034657
:105900001920A9FB007001462A463846FAF7C7FC61
:105910006421B0FBF1F04FEA001A02206168A0FB9D
:1059200001510B461920A9FB00712A463846FAF7A7
:10593000B6FC834602206168A0FB01500346192093
:10594000A9FB00712A463846FAF7A9FC6421B0FB8E
:10595000F1F000EBC00101EB0010ABEB8000322155
:1059600001EBC0006421B0FBF1F000F0F8000AEB9D
:10597000400A02206168A0FB015003461920A9FBE0
:10598000007001462A463846FAF789FC8346022011
:105990006168A0FB015003461920A9FB00712A464B
:1059A0003846FAF77CFC6421B0FBF1F000EBC00153
:1059B00001EB0010ABEB8000322101EBC000642151
:1059C000B0FBF1F000F007005044216888606AE005
:1059D00004206168A0FB015003461920A9FB007058
:1059E00001462A463846FAF75AFC82460420616886
:1059F000A0FB015003461920A9FB007001462A466E
:105A00003846FAF74CFC6421B0FBF1F000EBC00122
:105A100001EB0010AAEB8000322101EB00106421A1
:105A2000B0FBF1F000F0F00A04206168A0FB017007
:105A300003461920A9FB00513A462846FAF72FFCE5
:105A40006421B0FBF1F00AEB001A04206168A0FBAE
:105A500001510B461920A9FB00712A463846FAF776
:105A60001EFC834604206168A0FB015003461920F8
:105A7000A9FB007001462A463846FAF710FC64215B
:105A8000B0FBF1F000EBC00101EB0010ABEB8000CC
:105A9000322101EB00106421B0FBF1F000F00F00A7
:105AA000504421688860BDE8F88F00000010014074
:105AB00000140140014691F84100212828D188684E
:105AC000B0F5805F0BD1086948B90A6A1088C0F345
:105AD00008000B685860086A801C086205E00B6AC1
