:020000040800F2
:100000005809002059020008ED410008AF3A0008E5
:10001000E941000851170008515400080000000091
:10002000000000000000000000000000DD490008A2
:100030008517000800000000E5450008014D000894
:1000400073020008730200087302000873020008BC
:1000500073020008730200087302000873020008AC
:10006000730200087302000873020008730200089C
:10007000730200087302000873020008730200088C
:1000800073020008730200087302000800000000F9
:1000900000000000000000000000000073020008E3
:1000A000D54D0008730200087302000873020008AF
:1000B000730200087302000873020008730200084C
:1000C000730200087302000873020008730200083C
:1000D00073020008D95300087302000800000000F2
:1000E0007302000873020008730200080000000099
:1000F0000000000000000000000000007302000883
:100100000000000073020008730200087302000878
:1001100000000000000000000000000000000000DF
:1001200073020008730200087302000873020008DB
:100130007302000800000000000000000000000042
:100140000000000000000000000000007302000832
:1001500073020008730200087302000873020008AB
:100160007302000873020008000000000000000095
:10017000000000000000000000000000000000007F
:1001800000000000730200080000000000000000F2
:10019000730200087302000800F002F800F04CF847
:1001A0000AA090E8000C82448344AAF10107DA45D2
:1001B00001D100F041F8AFF2090EBAE80F0013F0D8
:1001C000010F18BFFB1A43F00103184714930000F6
:1001D00034930000103A24BF78C878C1FAD8520787
:1001E00024BF30C830C144BF04680C6070470000B1
:1001F0000023002400250026103A28BF78C1FBD830
:10020000520728BF30C148BF0B607047662905F010
:10021000EF87782900F0D880002070471FB505F0DF
:10022000E2FF00F07BFC04000020002105F0E6FC6A
:10023000E0601FBD10B510BD00F074FD1146FFF762
:10024000EDFF05F009FB00F092FD03B4FFF7F2FFAC
:1002500003BC05F03AF90000094880470948004707
:10026000FEE7FEE7FEE7FEE7FEE7FEE7FEE7FEE766
:10027000FEE7FEE704480549054A064B70470000C3
:10028000C14D0008990100085803002058090020BA
:100290005805002058050020704753EA020C00F072
:1002A00069802DE9F04B4FF00006002B1FBFB3FA19
:1002B00083F503FA05F424FA05F65E4012BF1643EF
:1002C000B2FA82F502FA05F4C5F120051EBF22FA42
:1002D00005FC44EA0C04203556EA044C4FEA144469
:1002E00018BF641C4FF000084FF00009904271EBFA
:1002F000030C39D3002919BFB1FA81F701FA07F6C7
:10030000B0FA80F700FA07F6C7F120071EBF20FAFF
:1003100007FC46EA0C062037B6FBF4FCA7EB050702
:10032000103F07F01F0BCBF120060CFA0BFB2CFA49
:1003300006F644BFB3460026202FA4BF5E464FF00A
:10034000000B5BEA060C08BF4FF0010B19EB0B0921
:10035000ABFB027C48EB0608C01B06FB02CC0BFB88
:1003600003CC71EB0C01C1E70B46024641464846FF
:10037000BDE8F08B13B54FF000004FF00001AFF374
:100380000080BDE81C4070470FB4044910B503AAB3
:10039000029800F0B1FB10BC5DF814FB14000020C3
:1003A0000FB41CB5074B06AA7B446946009005981C
:1003B00000F089FB0020694600F098FB1CBC5DF84A
:1003C00014FB00004107000070B504460D462146AD
:1003D0001068AFF300802188090502D50F4A7A44DE
:1003E00002E00E4A7A440E32002104F1240305E0B3
:1003F00000F00F060009965D5E54491C0028F7D1F5
:1004000020780023000704D5702D02D009B1022303
:1004100011322046BDE8704000F0E8B8309000008E
:100420002DE9F05F894604464FF0000ADFF824B159
:10043000FB44C0F820A02046E168884700287DD012
:10044000252806D0D4E901219047206A401C20626B
:10045000F1E700255F462046E168884720280646E8
:1004600007DB312E05D2B81910F8200C08B105436E
:10047000F1E7A80701D525F00405C4F81CA0002762
:10048000C4F818A02A2E09D0304605F017F838B362
:1004900004EB8708303EC8F8186019E059F8041BCF
:1004A000204604EB87029161E1688847012F0646E8
:1004B00018D1E069002820DA25F020051DE0D8F8E1
:1004C000180000EB800006EB40003038C8F8180038
:1004D0002046E1688847064604F0F0FF0028EED188
:1004E000012F0AD02E2E08D12046E16888477F1CB4
:1004F0000646022F45F02005C4DBA069002803DA78
:10050000404245F00105A061E80701D025F0100543
:10051000A6B1A6F14100192802D8203645F400659D
:100520004A463146204625604D46FFF76FFE60B1D2
:10053000012807D0ED1D25F0070000E007E000F1DD
:10054000080978E705F1040975E730467AE7206A7B
:10055000BDE8F09F0690000010B5431C02E010F8C3
:10056000011B71B18107FAD14FF0013202C88C1A18
:100570008C4314EAC211F9D0C01A0A0603D0C01E77
:1005800010BDC01A10BD0A0401D0801E10BD0902A2
:10059000FCD0401E10BD4FF0000200B5134694463B
:1005A0009646203922BFA0E80C50A0E80C50B1F1CB
:1005B0002001BFF4F7AF090728BFA0E80C5048BFDF
:1005C0000CC05DF804EB890028BF40F8042B08BF7D
:1005D000704748BF20F8022B11F0804F18BF00F879
:1005E000012B704770477047704770472DE9F047FF
:1005F0000D4699469246044600F124080168880693
:1006000004D5E06921F01001216000E00120A8423A
:1006100001DD471B00E00027A1697A1902EB090000
:10062000081AA0612078C00602D42046AFF30080EB
:10063000002608E0D4E901211AF806009047206A54
:10064000401C761C20624E45F4DB2078C0060AD59B
:100650002046AFF3008006E0D4E901213020904726
:10066000206A401C2062381EA7F10107F4DC07E075
:10067000D4E9012118F805009047206A401C206247
:10068000281EA5F10105F3DC2046AFF30080207899
:10069000000602D50220BDE8F0870120FBE7704785
:1006A0002DE9FF4F0C461E464FF0FF378BB0D2E9C5
:1006B0000001DDF860800A908A46C1F30A5505B949
:1006C0003D46002108464FF00000BAF1000F00F44B
:1006D000400005DA00EB80004FF4400101EA5000D1
:1006E0004FEA9059B9F1010F00DDB9460A9850EA76
:1006F0004A000ED044F61050A5F2FF3545432F14A2
:10070000B8F1000F1ED07542291E1EDDC9F100028E
:100710001CE0B8F1010F4FF0000001D0302103E0E0
:10072000F24305E02154401CB042FBDB304600227E
:10073000002121540B99C1F80880C1E900200FB0B5
:10074000BDE8F08FBD1B6D1CDEE74A4600DA69424A
:1007500006A800F06DFA06AB93E8070003AB83E848
:10076000070050460A9900F04BFB8DE80700A0F502
:1007700000501F3800900398002D0ADD42F21F013F
:100780004A460844002303A90390684600F0B4FDDC
:1007900009E0A0F500504A461F38002303A9039042
:1007A000684600F0BEFD8DE807000004000C03D091
:1007B0004FF0FF30410800E01046B8F1000F03D0C1
:1007C0000022009215461EE0751E05D400F0AAF91D
:1007D000303262556D1EF9D5B3460122084302D06E
:1007E00000227F1C04E02078302801D100227F1EE7
:1007F000002A099784D01DE0112D07DA00F092F944
:10080000303262556D1C50EA0102F5D1084302D026
:100810000098C8B10EE00021681E05E0235C625C10
:1008200063542254401E491C8142F7DBAB46A81B8F
:10083000401E0990002004F80B000B98099AC0F89C
:100840000880C0E9002B7AE711264FF0000857E72F
:100850002DE9F04F88460446D21D22F0070191B0E1
:10086000D1E90001CDE90A0104F0F4FD02460B983C
:10087000C00F01D02D2007E02068810701D52B2073
:1008800002E0202101EAC000032A099001D0072AD2
:1008900005DB03464146204600F08AF90BE120784B
:1008A000800601D5E06900E00620B8F1650F8146B9
:1008B00006D0B8F1660F18D0B8F1670F70D131E0EB
:1008C0000020B9F1110F009001DB112301E009F1C3
:1008D00001030AAA01A90CA8FFF7E2FEDDE90C70EA
:1008E000002609F10105834647E001204B460090B0
:1008F0004FF000470AAA01A90CA8FFF7D1FEDDE9D5
:100900000DB00C995D46002610B909F101000D18D3
:10091000B9EB050003D4C0F1FF3609F10105A5EBE1
:1009200009002BE0B9F1010F01DA4FF001090020B5
:10093000B9F1110F0090484601DD112300E0034694
:100940000AAA01A90CA8FFF7ABFEDDE90C704D4621
:1009500000268346207800070AD4AB4500DA5D46BE
:1009600001A8012D04DD411911F8011C302907D01F
:100970004F4502DA17F1040F04DA012082460FE036
:100980006D1EEEE7002F02DCED1B3E4403E0781CF9
:10099000A84200DD7D1CB81B00F1010A4FF00047A2
:1009A0002078000703D4AA4501DB4FF0FF3A00216D
:1009B000B7F1004F0DF143088DF8431024D0022009
:1009C0002B23002F01DA7F422D230A21021EA0F1E2
:1009D000010000DC5FB197FBF1FC97FBF1F201FB3A
:1009E0001C7C17460CF1300C08F801CDEEE7A8F19D
:1009F000010003702188090501D5452100E065212A
:100A0000A0F1010800F8011C09980FA9A1EB080743
:100A1000FF1D00B10120411901EBEA70A1693844C2
:100A2000081A401EA0612078C00602D42046AFF309
:100A30000080099828B1D4E901219047206A401C20
:100A400020622078C00622D52046AFF300801EE049
:100A5000002E04DBB34502DD01A8805D00E03020FC
:100A6000D4E901219047206A401C2062761CAAF13B
:100A700001005FEA000A0AD100F050F8C06801687E
:100A8000405CD4E901219047206A401C2062281E66
:100A9000A5F10105DCDC07E0D4E9012118F8010B20
:100AA0009047206A401C2062381EA7F10107F3DC42
:100AB0002046AFF30080032011B041E601694A1CD3
:100AC00002610878704700B58FB0CDE9013100218F
:100AD000059105497944CDE9031011466846FFF7B1
:100AE0009FFC0FB000BD0000E5FFFFFF0A6802F8A1
:100AF000010B0A6070470000074B70B50D467B4440
:100B0000FFF7E1FF0446284600F004F910B14FF06A
:100B1000FF3070BD204670BD374B00000048704765
:100B20001403002030B5B0F10A024FEA900E71F1C3
:100B300000034EEA817EB0EB0E0061EB91014FEABB
:100B4000101E4EEA017E10EB0E0041EB11114FEA30
:100B5000102E4EEA016E10EB0E0041EB11214FEA10
:100B6000104E4EEA014E10EB0E0041EB11414018C1
:100B700041F100014FEAD00040EA41704FEAD10153
:100B800010EB80054FEA810444EA907444EB0104C1
:100B90006D1944EB0404521BA3414FF0000348BFFE
:100BA0000A3200D530BD401C41F1000130BD0000CB
:100BB0002DE9F0411F46044603260168072A01F487
:100BC000006004DB08B116A505E016A503E008B136
:100BD00015A500E015A521F010002060A069C01E39
:100BE000A0610FB1401EA0612046AFF300804FB15D
:100BF000D4E9012138469047206A401C2062C01C7D
:100C0000206206E0206AFAE7D4E9012115F8010B19
:100C10009047761EF8D22046AFF30080BDE8F08101
:100C20004E414E006E616E00494E4600696E660090
:100C30002DE9F047814616468AB0354878440DC8FC
:100C40008DE80D0032487844801C03AC0DC884E860
:100C50000D0041F69B300844372190FBF1F290FBE8
:100C6000F1F5A5F1800501FB12041B3C02D564429D
:100C7000012000E00020DFF898A080460027FA4419
:100C8000AAF1BE0A0EE0E0070AD03246684607EB3A
:100C9000470101230AEB810100F043FB8DE80700C7
:100CA00064107F1C002CEED1194F7F44AE3F19E039
:100CB000E80715D007EB04100DF1180A90E80E00B4
:100CC0008AE80E00C068F04201D1981908903246B7
:100CD000012306A903A800F024FB03AB83E8070067
:100CE0006D10641C002DE3D14FF0010332466946BC
:100CF000B8F1000F03A802D000F0FEFA01E000F006
:100D000010FBC9E90001C9F808200AB0BDE8F08766
:100D100088880000007B00F0800070470048704722
:100D2000F40200207546FFF7F9FFAE46050069465C
:100D3000534620F00700854618B020B5FFF79AFA11
:100D4000BDE820404FF000064FF000074FF00008CC
:100D50004FF0000B21F00701AC46ACE8C009ACE84D
:100D6000C009ACE8C009ACE8C0098D46704710B5B1
:100D70000446AFF300802046BDE81040FFF765BA97
:100D80004FF0013C50F8042B51F8043B9A4221D11A
:100D9000A2EB0C03934313EACC1317D150F8042BA6
:100DA00051F8043B9A4215D1A2EB0C03934313EA8A
:100DB000CC130BD150F8042B51F8043B9A4209D1C3
:100DC000A2EB0C03934313EACC13DBD04FF00000EB
:100DD000704700BFD01A01BAB1FA81F101F01801D1
:100DE00022FA01F0CB40C1F12001DBB2C0B2C01A3F
:100DF0002CFA01F3D11A914311EAC311E6D17047DD
:100E00005FEA400C08BF91F0000F4FEA8C234FEAD5
:100E1000C12243EA51514FEA1C5018BF00F5F0407F
:100E20004FEA300018BF41F000415FEA6C5C00F00F
:100E30002980BCF1FF3F08BF40F080407047130C91
:100E400006BF12044FF0100C4FF0000C130E04BF3D
:100E500012020CF1080C130F04BF12010CF1040C68
:100E6000930F04BF92000CF1020CD30F04BF520089
:100E70000CF1010C11464FF00002A0F11F00A0EB95
:100E80000C00704711F0004F08BF704731F000416F
:100E90003FF4D5AF0B0C06BF09044FF0100C4FF018
:100EA000000C0B0E04BF09020CF1080C0B0F04BF61
:100EB00009010CF1040C8B0F04BF89000CF1020C2A
:100EC000CB0F04BF49000CF1010CCCF12003A0EBC7
:100ED0000C0022FA03F302FA0CF241EA030100F1DA
:100EE0000100704720F07F4C80EA030023F07F4729
:100EF000ACEB070303F57C5300F0004003F1FF0364
:100F00002DE980494FEA154B09B44FEA144325EA0D
:100F10000B4E24EA03480FF2042606EB1327490878
:100F20003E785FEA320203FB0667C7F5000707FB5E
:100F300006F64FEA54374FEAD64606F1020607FB9B
:100F4000066CCCF1005C4FEA1C472CEA074C07FB0F
:100F500006F40CFB06F504EB15464FEA961634BF73
:100F600000204FF000404FEAD13706FB07FC4FEA64
:100F70001C4C0CFB0BF7D21B03FB0CF761EB0701BE
:100F80000CFB0EF7B0EB074072EB17420CFB08F7B7
:100F900034BFA2EB0742B2EB074261EB17414FEAC5
:100FA0000C444FEA910706FB07FC4FEA1C4C0CFB74
:100FB0000BF7B0EBC74072EB573203FB0CF734BFB3
:100FC000A2EBC742B2EBC74261EB57310CFB0EF705
:100FD000B0EBC70072EB57720CFB08F734BFA2EB03
:100FE000C702B2EBC70261EB5771039F4FEA816101
:100FF00041EA921104EBCC044FEAD1374FEA826206
:1010000006FB07FC42EA90124FEA80604FEA1C4C54
:101010000CFB0BF7D21B03FB0CF761EB07010CFB7E
:101020000EF7B0EB074072EB17420CFB08F734BF2A
:10103000A2EB0742B2EB074261EB17414FEA8C5536
:101040004FEA910704EB9C2406FB07FC4FEA1C4C7B
:101050000CFB0BF7B0EBC74072EB573203FB0CF7FE
:1010600034BFA2EBC742B2EBC74261EB57310CFB76
:101070000EF7B0EBC70072EB57720CFB08F734BFEA
:10108000A2EBC702B2EBC70261EB577115EB4C251F
:101090004FEA816141EA92114FEA82624FEAD13709
:1010A00042EA901206FB07FC44F100044FEA80601C
:1010B0004FEA1C4C0CFB0BF7D21B03FB0CF761EB4C
:1010C00007010CFB0EF7B0EB074072EB17420CFB6D
:1010D00008F734BFA2EB0742B2EB074261EB1741BE
:1010E00015EB1C154FEA813141EA92414FEA8232F9
:1010F00042EA90424FEA80304FEA0C7644F1000415
:1011000048EA03434EEA0B484FF0000EB2EB080CDE
:1011100071EB030724BF624639464EEB0E0E4FF0CB
:10112000000B0018524149414BEB0B0BB2EB080C82
:1011300071EB03077BF1000B24BF624639464EEB8F
:101140000E0E4FF0000B0018524149414BEB0B0BB8
:10115000B2EB080C71EB03077BF1000B24BF624676
:1011600039464EEB0E0E51EA020718BF46F0010653
:1011700016EB0E7655F1000254F1000103D5BDE8DF
:101180008901BDE80088BDE88901BDE80048B619BD
:10119000524141EB0101A3F10103704780807F7E42
:1011A0007D7C7B7A797877767675747372717170DD
:1011B0006F6E6E6D6C6C6B6A6A696868676666658F
:1011C0006464636362616160605F5F5E5E5D5D5C1D
:1011D0005C5B5B5A5A59595858575756565555558E
:1011E0005454535352525251515050504F4F4F4EEE
:1011F0004E4D4D4D4C4C4C4B4B4B4A4A4A4949493C
:10120000484848474747474646464545454444447D
:10121000444343434342424242414141002B9C46A6
:1012200030D477002BD01CB54FEA370703B44FF00A
:1012300010004FF01001BAF1000F06D0BCF1000F02
:10124000DCBF40F0080040F008014FF000000FBC88
:10125000BDE810400BF1010BBBF1010F08BF5FEAC5
:10126000170722BF12F1010211F101014FF00041F5
:1012700043F1000300F0004043EA00007047F9D357
:101280005708D0E746EA064613F1400F4FEA1646E4
:101290001FDD13F1200FDFBF16430A460021203364
:1012A0005B42BED0C3F1200746EA064602FA07F7C2
:1012B0004FEA164646EA0706C3F1200722FA03F270
:1012C00001FA07F721FA03F14FF0000342EA07029F
:1012D000A7E746EA020646EA06464FEA164646EA07
:1012E0000106BCBF46EA0646360C4FF000034FF03D
:1012F00000024FF0000194E72DE9804C9A46934696
:1013000070B491E8380007C831EA400C48BF34EAAD
:10131000430C03D5FFF7E6FDFFF780FFF0BCBDE807
:10132000008C2DE9804C9A46934670B491E83800C1
:1013300007C810F0804F08BF13F0804F03D100F0B2
:1013400005F8FFF76BFFF0BCBDE8008C20F07F478D
:1013500080EA030023F07F4C07EB0C03A3F57C53DA
:1013600000F00040A3F1FE0392F0000F00F0B38004
:1013700095F0000F00F077802DE901494FEA114008
:101380004FEA144621EA004800FB06FC24EA06471F
:1013900008FB06F607FB08F800FB07F718EB064802
:1013A0004CEB164C4FEA124B18EB07484FEA154628
:1013B0004CEB174022EA0B4E0BFB06FC25EA0647D6
:1013C0000EFB06F607FB0EFE0BFB07F71EEB064EA9
:1013D0004CEB164C4FF000061EEB074E4CEB174B38
:1013E00018EB0B0840F1000018EB0E0B58EB00084F
:1013F00040F100008F1A4FF000013CBFC943661B4B
:1014000014BFB5EB040C00213CBFC943F61B4FEAE7
:1014100017444EEA8E0E27EA04454FEA1C4704FBA8
:1014200007622CEA074C05FB07F70CFB05F604FBEB
:101430000CFC16EB074642EB174216EB0C4642EB50
:101440001C421BEB060658EB0202414146EA9E068F
:1014500001D5BDE80189B619524141EB0101A3F163
:101460000103BDE801894FEA14454FEA114724EA18
:10147000054621EA074C05FB07F406FB07F70CFBC2
:1014800006F105FB0CFC11EB074144EB17444FEA56
:10149000124711EB0C4144EB1C4422EA074C05FBBC
:1014A00007F206FB07F70CFB06F605FB0CFC16EB38
:1014B000074642EB174216EB0C4642EB1C456A18F6
:1014C00054F1000148BF7047B619524141EB010188
:1014D000A3F10103704795F0000F37D04FEA114296
:1014E0004FEA144721EA024624EA074C02FB07F1BF
:1014F00006FB07F70CFB06F402FB0CFC14EB07449D
:1015000041EB17414FEA154714EB0C4441EB1C41EA
:1015100025EA074C02FB07F506FB07F70CFB06F66E
:1015200002FB0CFC16EB074645EB174516EB0C4689
:1015300045EB1C42121951F1000148BF7047B61922
:10154000524141EB0101A3F1010370474FEA1445F9
:101550004FEA114724EA054621EA074C05FB07F14B
:1015600006FB07F70CFB06F24FF0000605FB0CFC30
:1015700012EB074241EB174112EB0C4251EB1C41BD
:1015800048BF7047921841EB0101A3F10103704776
:1015900055494A6822F440324A604A6843681A430F
:1015A0004A600268526822F4807203685A600268D6
:1015B0005368026943EA022203685A60026852686B
:1015C00022F0407203685A600268526883681A43C6
:1015D00003685A600268926822F4006203689A60A5
:1015E00002689268C3681A4303689A603F4B826A34
:1015F0009A4218D00268926822F0706203689A607A
:1016000002689268836A1A4303689A600268926863
:1016100022F0405203689A6002689268C36A1A43D3
:1016200003689A600BE00268926822F070620368B7
:101630009A600268926822F0405203689A600268D9
:10164000926822F0020203689A6002689368027E40
:1016500043EA420203689A602022125CA2B1026847
:10166000526842F4006203685A600268526822F4C9
:10167000604203685A6002685368426A521E43EA35
:10168000423203685A6005E00268526822F4006240
:1016900003685A600268D26A22F470020368DA6250
:1016A0000268D36A828B521E43EA02520368DA62EE
:1016B0000268926822F4007203689A600268936874
:1016C00090F8302043EA422203689A6002689268E8
:1016D00022F4806203689A6002689368426943EA70
:1016E000822203689A607047002301400100000FC6
:1016F00010B51448007801280AD10020114908705B
:1017000002F076FD102310A20021084602F00EFF21
:101710000C488078032802D0042810D107E002206A
:1017200004F046FA074948700120087007E00120DC
:1017300004F03EFA034948700120087000BF00BF62
:1017400010BD00001E000020D1AAD1B90000000089
:1017500000BFFEE730B502464FF6FF7009E0C4B2A5
:10176000157884EA0503521C054C34F8134084EACA
:1017700010200C1EA1F10105E9B2F0D130BD00002E
:1017800012920008704772B600BFFEE710B500F075
:1017900025F80446B4F57A6F01DD032010BD40F250
:1017A0006C70844205DD40F69800844201DA042022
:1017B000F4E7B4F5617F04DDB4F5966F01DA01203A
:1017C000ECE740F2E240844205DD40F20E608442E4
:1017D00001DA0220E2E70020E0E7000010B5002473
:1017E000084800F0CDF90A21064800F061F918B95F
:1017F000044800F0E5F884B2024800F04BFA2046B5
:1018000010BD00000C0100200349087810B1002130
:10181000014A1170704700001800002038B50246D8
:101820000020009000BF92F83C00012801D1022066
:1018300038BD012082F83C0000BF0868092816D98D
:101840001068C0680C780A3C04EB44050724AC40DF
:10185000A0431468E0600C780A3C04EB44048868F8
:10186000A0401468E46820431468E06013E0106846
:1018700000690C7804EB44050724AC40A0431468CD
:1018800020610C7804EB44048868A0401468246943
:101890002043146820614868072817D21068406BFD
:1018A0000C79641E04EB84051F24AC40A04314682B
:1018B0006063088880B20C79641E04EB8404A04045
:1018C0001468646B20431468606331E048680D2835
:1018D00017D21068006B0C79E41F04EB84051F24F9
:1018E000AC40A04314682063088880B20C79E41FE0
:1018F00004EB8404A0401468246B20431468206324
:1019000016E01068C06A0C790D3C04EB84051F24B6
:10191000AC40A0431468E062088880B20C790D3CAA
:1019200004EB8404A0401468E46A20431468E06275
:101930001E4B1F4C1068A0420AD10868122807D11C
:10194000586820F400005860586840F480005860DF
:10195000174C1068A04222D1164C0868A04202D051
:10196000086811281BD1586820F480005860586816
:1019700040F4000058600F4C0868A0420FD10E4898
:1019800000680E4CB0FBF4F000EB800040000090CB
:1019900002E00098401E009000980028F9D100BF96
:1019A000002082F83C0000BF00BF41E70023014057
:1019B00000200140120000101000002040420F00E3
:1019C00001460868C06C704770B5044600250CB924
:1019D000012070BD1549A06A884200D000BF206C6C
:1019E00030B9204600F024F80020606484F83C0000
:1019F000206C00F0100088B9206C20F4885040F072
:101A0000020020642046FFF7C3FD00206064206CC4
:101A100020F0020040F00100206400E0012500BF3A
:101A2000002084F83C0000BF2846D2E70100000FE8
:101A300010B586B00446142101A8FEF7ACFD194983
:101A4000206888422BD100BF002000901648006813
:101A500040F48070144908600846006800F4807003
:101A6000009000BF00BF00BF002000900E48143857
:101A7000006840F001000C4914390860084600680D
:101A800000F00100009000BF00BF0820019003207B
:101A900002900020039001A9044800F09DF906B0CF
:101AA00010BD000000200140443802400000024008
:101AB00070B504460D4600262068806800F48060FA
:101AC000B0F5806F11D12068806800F48070B0F5A7
:101AD000807F0AD1206C40F02000206400BF0020ED
:101AE00084F83C0000BF012070BD00F067FA064694
:101AF00018E0681CB0B125B100F060FA801BA84264
:101B000010D92068006800F0020002280AD0206C7A
:101B100040F00400206400BF002084F83C0000BFB7
:101B20000320E1E72068006800F002000228E0D10D
:101B30006FF0120021680860206C40F4007020648F
:101B40002068806800F04050B8B9207EA8B92068AD
:101B5000C06A00F4700020B12068806800F48060E2
:101B600058B9206C20F480702064206C00F4805000
:101B700018B9206C40F0010020640020B4E7000098
:101B800008B501460020009000BF91F83C000128F4
:101B900001D1022008BD012081F83C0000BF086887
:101BA000806800F00100A0B90868806840F001007A
:101BB0000B68986033480068334BB0FBF3F000EBE0
:101BC0004000009002E00098401E0090009800281D
:101BD000F9D10868806800F00100002848D0086C3E
:101BE00040F20163984340F48070086408684068DC
:101BF00000F4806028B1086C20F4005040F480505C
:101C00000864086C00F48050B0F5805F04D1486C23
:101C100020F00600486401E00020486400BF002076
:101C200081F83C0000BF194A6FF022000B68186071
:101C3000506800F01F0058B90868806800F04050F4
:101C4000F0B90868806840F080400B68986017E041
:101C50000F4B0868984213D10868806800F0405024
:101C600070B90868806840F080400B68986007E0B1
:101C7000086C40F010000864486C40F001004864B3
:101C8000002087E71000002040420F0000230140A1
:101C900000200140014600BF91F83C00012801D11D
:101CA00002207047012081F83C0000BF086880686E
:101CB00020F001000A6890600868806800F0010068
:101CC00028B9086C20F4885040F00100086400BF77
:101CD000002081F83C0000BF00BFE2E770B5044679
:101CE000A56D00F06BF9064694F83500022808D07F
:101CF0008020606500BF002084F8340000BF012010
:101D000070BD2068006820F0160021680860206817
:101D1000406920F0800021684861206C08B9A06CFF
:101D200028B12068006820F0080021680860206859
:101D3000006820F001002168086010E000F03EF922
:101D4000801B05280BD920206065032084F835000E
:101D500000BF002084F8340000BF0320D0E72068D3
:101D6000006800F001000028E8D194F85C103F20E2
:101D70008840A860012084F8350000BF002084F866
:101D8000340000BF00BFBBE7014691F835000228D0
:101D900003D08020486501207047052081F8350078
:101DA0000868006820F001000A6810600020F3E76E
:101DB00070B5044600F002F906462546681C10B1CD
:101DC00004480078054400BF00F0F8F8801BA842E2
:101DD000FAD370BD0C000020F8B502460B46002572
:101DE000002400200021C7E0012606FA01F51E6844
:101DF00006EA0504AC4274D11E7906F00306012EF2
:101E000004D01E7906F00306022E13D190684F000D
:101E10000326BE40B0434F00DE68BE4030439060B2
:101E2000506801268E40B0431E79C6F300168E40DE
:101E3000304350601E7906F00306032E09D0D068A7
:101E40004F000326BE40B0434F009E68BE40304363
:101E5000D0601E7906F00306022E13D1CF0802F1DE
:101E6000200656F827004E07F70E0F26BE40B04357
:101E70004F07FF0E1E69BE403043CF0802F1200617
:101E800046F8270010684F000326BE40B0431E7975
:101E900006F003064F00BE40304310605E6806F453
:101EA0004036002E67D000BF00260096344E3668BC
:101EB00046F48046324F3E603E46366806F4804621
:101EC000009600BF00BF2F4E8F0856F827008E07E0
:101ED000370F0F26BE40B0432B4EB24202D1002630
:101EE00015E048E0294EB24201D101260FE0284E0C
:101EF000B24201D102260AE0264EB24201D10326A7
:101F000005E0254EB24201D1042600E007268F07E6
:101F10003F0FBE4030431B4E8F0846F827001F4E30
:101F20003068A0435E6806F4801606B120431B4E5D
:101F30003060361D3068A0435E6806F4001606B1B6
:101F40002043164E361D3060144E361F3068A043B5
:101F50005E6806F4003606B12043104E361F30602E
:101F6000361F3068A0435E6806F4803606B1204311
:101F70000A4E083E3060491C1029FFF435AFF8BD09
:101F8000443802400838014000000240000402408A
:101F900000080240000C024000100240083C0140D2
:101FA000024613690B400BB1012000E0002070478E
:101FB0000AB1816101E00B04836170470148006848
:101FC00070470000040000200348006803490978B6
:101FD0000844014908607047040000200C000020FC
:101FE00010B50D48006840F400700B4908600846C1
:101FF000006840F4806008600846006840F4807023
:102000000860032000F0AAF8032000F007F800F0B1
:102010002BF8002010BD0000003C024070B50446C3
:102020000E4800784FF47A71B1FBF0F00C49096862
:10203000B1FBF0F5284601F000F808B1012070BDB1
:10204000102C07D200222146501E00F049F8054806
:10205000046001E00120F2E70020F0E70C0000201E
:10206000100000200800002008B500BF00200090EC
:102070001048006840F480400E4908600846006837
:1020800000F48040009000BF00BF00BF002000901F
:10209000081F006840F08050091F0860084600686B
:1020A00000F08050009000BF00BF052000F056F8FF
:1020B00008BD0000443802400146084600280DDBF8
:1020C00000BF00BF00F01F0301229A4043099B009C
:1020D00003F1E023C3F8002100BF00BF00BF704739
:1020E0002DE9F05F80460D461646002703F0CAF939
:1020F000074639462A46334601F00700C0F1070A71
:10210000BAF1040F02D94FF0040A01E0C0F1070A46
:10211000D14600F1040ABAF1070F02D24FF0000ACB
:1021200001E0A0F1030AD4464FF0010A0AFA09FAC5
:10213000AAF1010A0AEA020A0AFA0CFA4FF0010BA4
:102140000BFA0CFBABF1010B0BEA030B4AEA0B0495
:102150002146404603F09EF9BDE8F09F00BF00F025
:102160000702064B19684FF6FF031940044B0B4357
:1021700043EA0221014B196000BF70470CED00E0FB
:102180000000FA05F8B5044600250026207800F086
:10219000010020B9207800F00400042831D100208B
:1021A00060498866FFF70AFF054606E0FFF706FF6D
:1021B000401B022801D90320F8BD5B480068C0F32A
:1021C000C0600028F2D1D4E9011041EA8011207BDF
:1021D00041EA007054498431086001205149886601
:1021E000FFF7ECFE054606E0FFF7E8FE401B02287D
:1021F00001D90320E0E74C480068C0F3C060002824
:10220000F2D0207800F0020002287DD100BF00202B
:10221000009045484030006840F0805042494031CD
:1022200008600846006800F08050009000BF00BFC2
:102230003E48006840F480703C490860FFF7BEFEED
:10224000054606E0FFF7BAFE401B022801D903202D
:10225000B2E73648006800F480700028F2D03248B7
:102260007030006800F440764EB3208A00F440706D
:10227000B04224D02C487030006820F44076012011
:102280002B4908600020086027487030066000680D
:1022900000F0010098B1FFF791FE054608E0FFF756
:1022A0008DFE401B41F28831884201D9032083E72B
:1022B0001D4870300068C0F340000028EFD000BF18
:1022C000208A00F44070B0F5407F0CD116480830E9
:1022D000006820F4F810174A216911400843124998
:1022E0000831086007E010480830006820F4F81052
:1022F0000D49083108600C4870300068218AC1F32C
:102300000B010843084900E002E07031086000BF9B
:10231000207800F00800082802D1207D06490860D6
:10232000002049E7000047420038024000700040AA
:10233000400E4742FFFCFF0FE011474270B50446D4
:102340000D460CB9012070BD5848006800F0070028
:10235000A84209D255490D700846006800F00700F0
:10236000A84201D00120EEE7207800F00200022808
:102370001DD1207800F00400042805D14C480068E5
:1023800040F4E0504A490860207800F0080008282E
:1023900005D14748006840F460404549086044481A
:1023A000006820F0F000A1680843414908602078E7
:1023B00000F00100A8B36068012807D13C48083844
:1023C0000068C0F34040B8B90120BCE7606802284B
:1023D00002D06068032807D1354808380068C0F388
:1023E000406048B90120AEE7314808380068C0F3C2
:1023F000400008B90120A6E72D48006820F003003E
:10240000616808432A490860FFF7D8FD064609E0DD
:10241000FFF7D4FD801B41F28831884202D90320A6
:1024200091E707E02248006800F00C006168B0EB1B
:10243000810FEDD11D48006800F00700A84209D9BE
:102440001A490D700846006800F00700A84201D044
:10245000012078E7207800F00400042807D1144810
:10246000006820F4E050E1680843114908602078D2
:1024700000F00800082808D10D48006820F46040EA
:10248000216940EAC1000A49086000F03FF80849A4
:102490000968C1F30311074A515CC8400649086046
:1024A00006480068FFF7BAFD00204CE7003C0240F8
:1024B00008380240F46100081000002008000020E5
:1024C00001480068704700001000002000B5FFF7C9
:1024D000F7FF04490968C1F38221034A515CC840EF
:1024E00000BD0000083802400462000800B5FFF794
:1024F000E7FF04490968C1F34231034A515CC8400F
:1025000000BD000008380240046200082DE9F047D1
:10251000002400250026A1462548006800F00C0094
:1025200020B1042805D008283AD105E0DFF88490CE
:1025300039E0DFF8849036E01D48001F006800F0A5
:102540003F041B48001F006800F4800078B11A485F
:102550001749091F0968C1F38811A0FB01700146E2
:10256000224600233846FDF798FE05460EE0114846
:102570000F49091F0968C1F38811A0FB01700146CA
:10258000224600233846FDF788FE05460848001F0E
:102590000068C0F30140401C4600B5FBF6F902E0BC
:1025A000DFF8109000BF00BF4846BDE8F08700008C
:1025B000083802400024F40040787D01F8B5044654
:1025C0000CB90120F8BD207800F00100002874D07B
:1025D000F948006800F00C0004280DD0F6480068A7
:1025E00000F00C00082813D1F348001F006800F425
:1025F0008000B0F5800F0BD1EF4808380068C0F3B9
:102600004040002859D06068002856D10120D9E701
:1026100000BF6068B0F5803F08D1E748083800681F
:1026200040F48030E449083908601EE06068B0F585
:10263000A02F0DD1E0480838006840F48020DE4922
:10264000083908600846006840F4803008600CE0F3
:10265000D9480838006820F48030D7490839086024
:102660000846006820F48020086000BF606890B1D0
:10267000FFF7A4FC054606E0FFF7A0FC401B64281A
:1026800001D903209EE7CC4808380068C0F34040D9
:102690000028F1D011E0FFF791FC054606E0FFF7B6
:1026A0008DFC401B642801D903208BE7C248083801
:1026B0000068C0F340400028F1D1207800F002000B
:1026C00002285FD1BC48006800F00C0058B1BA483D
:1026D000006800F00C0008281CD1B748001F0068F3
:1026E00000F48000B0B9B44808380068C0F3400076
:1026F00020B1E068012801D0012063E7AE48083826
:10270000006820F0F800216940EAC100AA490839B0
:10271000086037E0E06800B30120A8490860FFF7CF
:102720004DFC054606E0FFF749FC401B022801D995
:10273000032047E7A04808380068C0F3400000289D
:10274000F1D09D480838006820F0F800216940EA7F
:10275000C10099490839086014E0002097490860D1
:10276000FFF72CFC054606E0FFF728FC401B02287B
:1027700001D9032026E7904808380068C0F34000DC
:102780000028F1D1207800F0080008282CD16069D9
:10279000A8B101208A490860FFF710FC054606E051
:1027A000FFF70CFC401B022801D903200AE78248EE
:1027B0006C300068C0F340000028F1D014E0002025
:1027C0007F490860FFF7FAFB054606E0FFF7F6FBD6
:1027D000401B022801D90320F4E677486C300068DA
:1027E000C0F340000028F1D1207800F00400042854
:1027F00070D1002770483830006800F0805090B9E0
:1028000000BF002000906C483830006840F08050D5
:102810006949383108600846006800F0805000902F
:1028200000BF00BF01276748006800F48070B0B99E
:102830006448006840F4807062490860FFF7BEFB9E
:10284000054606E0FFF7BAFB401B022801D903202A
:10285000B8E65C48006800F480700028F2D000BF41
:10286000A068012808D154486830006840F0010091
:102870005149683108601DE0A06805280DD14E4817
:102880006830006840F004004B4968310860084631
:10289000006840F0010008600CE0474868300068BC
:1028A00020F001004449683108600846006820F0C3
:1028B0000400086000BFA068A8B1FFF77FFB0546D1
:1028C00009E0FFF77BFB401B41F28831884202D9C7
:1028D000032077E626E0384868300068C0F34000FF
:1028E0000028EED013E0FFF769FB054608E0FFF78C
:1028F00065FB401B41F28831884201D9032061E623
:102900002D4868300068C0F340000028EFD1012F47
:1029100007D129483830006820F0805026493831E6
:10292000086000BFA069002845D02348006800F077
:102930000C0008285DD0A069022845D100201F495D
:102940000866FFF73BFB054606E0FFF737FB401B39
:10295000022801D9032035E6174808380068C0F37B
:1029600040600028F1D1D4E907010843616A40EAD8
:1029700081110122A06AC2EB500041EA00412C20E3
:10298000005D41EA00600C49091F086001200B4905
:102990000866FFF713FB054606E0FFF70FFB401B39
:1029A000022801D903200DE6034808380068C0F367
:1029B00040600028F1D049E008380240000047425A
:1029C000800E474200700040002021490866FFF752
:1029D000F5FA054606E0FFF7F1FA401B022801D997
:1029E0000320EFE51B480068C0F340600028F2D1E7
:1029F0002CE0A069012800D1E4E51648001D066816
:102A0000A069012820D006F48001E06981421BD131
:102A100006F03F01206A814216D147F6C07030406F
:102A2000616AB0EB811F0FD106F440310122A06A28
:102A3000C2EB5000B1EB004F06D106F070612C20C4
:102A4000005DB1EB006F01D00120BBE50020B9E5CE
:102A5000000047420038024070B504460CB901201E
:102A600070BD607F20B900202077204600F04EF82E
:102A7000022060772068C068C0F3001000283CD1B5
:102A800000BFCA202168486253202168486200BF05
:102A9000204601F0B5FD0546EDB9206880681A4969
:102AA00008402168886021696068084361690843BB
:102AB000216889680843216888602168E0680861A6
:102AC00020680169208941EA0040216808612046A8
:102AD00001F0BBFD05465DB92068006C20F4802044
:102AE000216808642068006CA169084321680864B3
:102AF00000BFFF202168486200E000250DB90120D9
:102B000060772846ACE70000BFFF8FFF10B586B0A6
:102B1000044618216846FDF73EFD094920688842B1
:102B20000CD102200090C00104906846FFF72AFBF8
:102B300008B1FEF728FE01200249086006B010BD6A
:102B4000002800403C0E47422DE9F04105460C4666
:102B500017464FF0000800BF287F012802D102204D
:102B6000BDE8F0810120287700BF022068774FB9C7
:102B7000607800F01000102804D1607800F0EF00B9
:102B80000A30607087B9E07801F02DFD03046078A9
:102B900001F029FD43EA0023A07801F024FD03435E
:102BA000207843EA403809E0E0780004617840EAA0
:102BB0000120A1780843217840EA413800BFCA20AB
:102BC0002968486253202968486200BF284601F0FE
:102BD00017FD064646B90B4808EA00002968486018
:102BE000284601F032FD06460EB90120687700BF85
:102BF000FF202968486200BF00BF0020287700BF7F
:102C00003046ADE73FFFFF002DE9F04104460D4699
:102C100017464FF0000800BF207F012802D1022094
:102C2000BDE8F0810120207700BF02206077CFB996
:102C30002068806800F0400000B102E00020E870E9
:102C400000BF287801F0CFFC0304687801F0CBFCCA
:102C500043EA0023A87801F0C6FC0343E87843EA7E
:102C6000805812E02068806800F0400000B102E067
:102C70000020E87000BF28780004697840EA01204D
:102C8000A9780843E97840EA815800BFCA20216842
:102C9000486253202168486200BF204601F0B0FC22
:102CA0000646B6B9124808EA0000216808602068A4
:102CB000806820F4802021688860D5E903010843FA
:102CC00021688968084321688860204601F0BDFCBE
:102CD00006460EB90120607700BFFF2021684862D8
:102CE00000BF00BF0020207700BF304698E70000FB
:102CF0007F7F7F0070B5044600250B482168C860BF
:102D0000FFF75CF9054607E0FFF758F9401BB0F5FF
:102D10007A7F01D9032070BD2068C06800F02000D0
:102D20000028F1D00020F6E75F3F010010B504460F
:102D30000CB9012010BD606A38B96068B0F5827FB7
:102D400000D105E00021E16102E000212161616123
:102D50000021A16294F8510028B9002084F85000A5
:102D6000204600F047F8022084F8510020680068EF
:102D700020F0400021680860A08800F4827021895A
:102D800001F404410843A18901F400610843217C56
:102D900001F002010843217D01F001010843218B6C
:102DA00001F400710843217F01F03801084320211C
:102DB000095D01F080010843218D01F400510843B1
:102DC000216808600421A06901EA104094F82410E9
:102DD00001F010010843216848602068C06920F4B0
:102DE00000602168C86100206065012084F85100FE
:102DF00000209FE710B586B00446142101A8FDF716
:102E0000CAFB1B49206888422FD100BF00200090D8
:102E10001848006840F48050164908600846006869
:102E200000F48050009000BF00BF00BF0020009061
:102E300010481438006840F002000E491439086048
:102E40000846006800F00200009000BF00BF282084
:102E5000019002200290002003900320049005209E
:102E6000059001A90448FEF7B7FF06B010BD0000A9
:102E70000030014044380240000402402DE9F8438C
:102E800004460F4616461D46FFF798F88046B146A1
:102E900094F85100012802D00220BDE8F88307B160
:102EA0000EB90120F9E700BF94F85000012801D1C4
:102EB0000220F2E7012084F8500000BF032084F8CC
:102EC0005100002060652763A686E686A063A08780
:102ED000E08760642064A068B0F5004F0BD12068E3
:102EE000006820F04000216808602068006840F415
:102EF0008040216808602068006800F04000402899
:102F000005D02068006840F0400021680860E06853
:102F1000B0F5006F37D1606810B1B9F1010F09D178
:102F2000206B00882168C860206B801C2063E08EC5
:102F3000401EE08623E02068806800F0020002283E
:102F40000AD1206B00882168C860206B801C206338
:102F5000E08E401EE08612E0FFF730F8A0EB08009C
:102F6000A84201D3681C00B94DB9012084F8510072
:102F700000BF002084F8500000BF03208DE7E08EE2
:102F80000028D8D136E0606810B1B9F1010F09D13D
:102F9000206B007821680873206B401C2063E08E52
:102FA000401EE08623E02068806800F002000228CE
:102FB0000AD1206B007821680873206B401C2063C5
:102FC000E08E401EE08612E0FEF7F8FFA0EB08005E
:102FD000A84201D3681C00B94DB9012084F8510002
:102FE00000BF002084F8500000BF032055E7E08EAA
:102FF0000028D8D142462946204601F03FFC08B1BE
:1030000020206065A06850B900BF002000902068B3
:10301000C068009020688068009000BF00BF012059
:1030200084F8510000BF002084F8500000BF606D9C
:1030300008B1012031E700202FE770B5044625468E
:10304000681EB0F1807F01D301200FE0681E4FF0B1
:10305000E02148610F214FF0FF3002F01BFA002001
:103060004FF0E021886107200861002070BD7047A3
:10307000704710B504460CB9012010BD94F83D000E
:1030800028B9002084F83C00204600F025F80220F2
:1030900084F83D00211D206801F0A4FE012084F881
:1030A000460000BF84F83E0001213F20015540202A
:1030B00001554120015500BF00BF012084F84200A6
:1030C00043200155442001554520015500BF0120F2
:1030D00084F83D000020D0E738B504461849206840
:1030E000884218D100BF002000901648006840F4C4
:1030F0008030144908600846006800F48030009071
:1031000000BF00BF002202211820FEF7E9FF1820AF
:10311000FEF7D2FF13E00C49206888420FD100BFB0
:10312000002000900748006840F4802005490860AE
:103130000846006800F48020009000BF00BF38BD42
:10314000004001404438024000480140014691F8E7
:103150003D00012801D001207047022081F83D0088
:10316000164B0868984213D00868B0F1804F0FD012
:10317000134B086898420BD0124B0868984207D04E
:10318000114B0868984203D0104B086898420CD144
:103190000868806800F00702062A0CD008680068FA
:1031A00040F001000B68186005E00868006840F016
:1031B00001000B6818600020CEE70000000001400D
:1031C0000004004000080040000C004000400140A6
:1031D0002DE9F04104460D46002700BF94F83C005D
:1031E000012802D10220BDE8F081012084F83C00D2
:1031F00000BF022084F83D002068866826F077062C
:1032000026F47F46206886602868502833D00CDC7E
:10321000202850D004DC00284BD0102851D149E0A0
:10322000302849D040284CD139E060282DD0702872
:1032300007D0B0F5805F03D0B0F5005F41D10DE05D
:1032400041E0D5E902136A68206801F021FE206898
:10325000866846F077062068866034E0D5E9021378
:103260006A68206801F014FE2068806840F480409D
:103270002168886027E0EA686968206801F01CFE20
:103280005021206801F00FFE1DE0EA68696820689F
:1032900001F025FE6021206801F005FE13E0EA68D8
:1032A0006968206801F008FE4021206801F0FBFDFC
:1032B00009E000BF00BF00BF2968206801F0F3FDEE
:1032C00001E0012700BF00BF012084F83D0000BFDE
:1032D000002084F83C0000BF384684E7704770B592
:1032E00004462068C5682068066906F002000228C6
:1032F00019D105F00200022815D1401F216808618C
:10330000012020772068806900F0030018B1204672
:10331000FFF7E4FF05E0204600F097F8204600F0B4
:1033200095F80020207706F00400042819D105F054
:103330000400042815D1C0432168086102202077C9
:103340002068806900F4407018B12046FFF7C6FF7E
:1033500005E0204600F079F8204600F077F80020DC
:10336000207706F00800082819D105F00800082881
:1033700015D1C04321680861042020772068C06906
:1033800000F0030018B12046FFF7A8FF05E0204633
:1033900000F05BF8204600F059F80020207706F096
:1033A0001000102819D105F01000102815D1C043C5
:1033B00021680861082020772068C06900F4407007
:1033C00018B12046FFF78AFF05E0204600F03DF8DF
:1033D000204600F03BF80020207706F0010048B1BD
:1033E00005F0010030B16FF001002168086120464E
:1033F00000F02EF806F08000802809D105F080004A
:10340000802805D1C043216808612046FFF72FFEC0
:1034100006F04000402809D105F04000402805D1C1
:10342000C04321680861204600F072F806F02000D1
:10343000202809D105F02000202805D1C0432168AB
:1034400008612046FFF714FE70BD7047704700000A
:1034500038B504462849206888424BD16FF00100F6
:1034600026490968086126480068401C244908600C
:1034700008464068401C486008468068401C8860D8
:103480000846C068401CC86008460069401C0861C6
:10349000084640680A2803D30020486000F070FB0B
:1034A00017488068B0F57A7F02D3002014498860FD
:1034B0001348C06864281DD300201149C860114812
:1034C0000078012816D110481049097800EB4120F6
:1034D00040231A4600210090084600F0FFFF0B48E9
:1034E0000078401C0949087008460078062801DB6E
:1034F0000020087038BD000000400140CC010020D1
:10350000C0020020210000201D7F000800000020D4
:1035100070477047704700002DE9F84F0446206857
:1035200005682068C668206847694FF00009CA46E8
:1035300005F00F09B9F1000F0AD105F0200038B1EC
:1035400006F0200020B1204601F02CFDBDE8F88FE8
:10355000B9F1000F7CD007F0010018B906F49070A3
:10356000002875D005F0010030B106F4807018B164
:10357000606C40F00100606405F0040030B107F0B9
:10358000010018B1606C40F00200606405F00200B8
:1035900030B107F0010018B1606C40F004006064C5
:1035A00005F0080048B106F0200010B907F001004E
:1035B00018B1606C40F008006064606C002846D070
:1035C00005F0200028B106F0200010B1204601F0DF
:1035D000E9FC20684069C0F3801A606C00F00800C4
:1035E00010B9BAF1000F2DD0204601F095FC2068EB
:1035F000406900F04000402820D100BF00BF216892
:10360000143151E8001F21F040002168143141E8D5
:103610000002002AF3D100BFE06B50B17F48E16B9C
:103620000865E06BFEF7B0FB88B1E06B016D884781
:103630000DE02046FFF76EFF09E009E02046FFF7A6
:1036400069FF04E02046FFF765FF002060647DE726
:10365000206B012878D105F01000002874D006F006
:1036600010000028FAD000BF0020009020680068F9
:10367000009020684068009000BF00BF206840694B
:1036800000F04000402870D1E06B006840681FFAED
:1036900080F8B8F1000F58D0A08D404555DDA4F852
:1036A0002E80E06BC069B0F5807F43D000BF00BFC3
:1036B00021680C3151E8001F21F4807021680C3121
:1036C00041E80002002AF3D100BF00BF00BF21681B
:1036D000143151E8001F21F001002168143141E844
:1036E0000002002AF3D100BF00BF00BF21681431DF
:1036F00051E8001F21F040002168143141E8000228
:10370000002AF3D100BF202084F84200002020636B
:1037100000BF00BF21680C3151E8001F21F01000EC
:1037200021680C3141E80002002AF3D100BFE06BB0
:10373000FEF7D4FA02206063A08DE28D801A81B278
:103740002046FFF7E6FE0EE052E0A08D40450AD18C
:10375000E06BC069B0F5807F05D102206063A18D68
:103760002046FFF7D6FEF1E6FFE7A08DE18D401A77
:103770001FFA80F8E08DD0B3B8F1000F37D000BF4A
:1037800000BF21680C3151E8001F21F490702168BE
:103790000C3141E80002002AF3D100BF00BF00BF96
:1037A0002168143151E8001F21F001002168143113
:1037B00041E80002002AF3D100BF202084F8420033
:1037C0000020206300BF00BF21680C3151E8001FBA
:1037D00021F0100021680C3141E80002002AF3D1E9
:1037E00000BF0220606341462046FFF792FEADE62F
:1037F00005F0800030B106F0800018B1204601F0DD
:1038000075FDA3E605F0400030B106F0400018B1A8
:10381000204601F0B7FB99E600BF97E6074F000886
:1038200010B504460CB9012010BDA06900B100E03C
:1038300000BF94F8410028B9002084F840002046D9
:1038400000F02AF8242084F841002068C06820F4A1
:1038500000502168C860204601F032FC20680069F1
:1038600020F49040216808612068406920F02A0017
:10387000216848612068C06840F400502168C86031
:1038800000206064202084F8410084F84200002079
:10389000606300BFC8E7000010B586B0044614217D
:1038A00001A8FCF778FE1F492068884238D100BF84
:1038B000002000901C48006840F010001A49086081
:1038C0000846006800F01000009000BF00BF00BF75
:1038D0000020009014481438006840F0010012499C
:1038E000143908600846006800F00100009000BF2D
:1038F00000BF4FF4C06001900220029000200390AE
:10390000032004900720059001A90848FEF764FAF7
:10391000022211462520FEF7E3FB2520FEF7CCFB13
:1039200006B010BD001001404438024000000240C3
:1039300070472DE9F84F04460E46174699464FF05A
:10394000000A94F84100202850D106B117B901208F
:10395000BDE8F88F00206064212084F84100FEF764
:103960002DFB8246A784E784A068B0F5805F04D170
:10397000206910B90025B04602E035464FF0000836
:103980001EE05346002280212046CDF8009001F031
:10399000DDFC20B1202084F841000320D8E745B9A0
:1039A000B8F80000C0F308002168486008F1020878
:1039B00003E02878216848606D1CE08C401EE0849C
:1039C000E08C0028DDD15346002240212046CDF86E
:1039D000009001F0BBFC20B1202084F841000320BE
:1039E000B6E7202084F841000020B1E70220AFE7CD
:1039F0007047000010B5012204210948FEF7D8FAEB
:103A0000012202210648FEF7D3FA00224FF40051AA
:103A10000448FEF7CDFA3220FEF7CAF910BD0000C7
:103A2000000002400008024010B586B01821684628
:103A3000FCF7B1FD00200C49086100BF0A4800698D
:103A400041F28831884202D3002006B010BD694699
:103A5000064800F00DF80446002CEFD09DF8060053
:103A60000028EBD00120F0E7C00200207100002008
:103A70002DE9F04105460C464FF001081221281DA2
:103A8000FDF768FE0646EE82284600F061F8204603
:103A900000F040F81221201DFDF75CFE0646E78A83
:103AA000BE4201D04FF000084046BDE8F08100BFA3
:103AB000FEE7000010B51448007801280AD1002064
:103AC0001149087000F094FB102310A20021084651
:103AD00000F02CFD0C488078032802D0042810D177
:103AE00007E0022002F064F80749487001200870DE
:103AF00007E0012002F05CF80349487001200870DB
:103B000000BF00BF10BD00001E000020D0C4C2CA0C
:103B10000000000070B5054601F05CFECD2001F00C
:103B200025FE01F099FD00240DE001F0C1FD2855AE
:103B3000172C03D1012001F0EFFD02E0002001F07D
:103B4000EBFD601CC4B2182CEFDB01F067FE70BD0A
:103B500070B5054601F03EFECC2001F007FE01F0F5
:103B60007BFD002406E0285D01F000FE01F074FDFD
:103B7000601CC4B2182CF6DB01F050FE70BD0000D2
:103B800070B5FDF703FE05463E480078854220D01B
:103B90003C480078D8B9D5B1012D06D0022D08D007
:103BA000032D0AD0042D10D10BE0012036490870F6
:103BB0000CE002203449087008E003203249087004
:103BC00004E004203049087000E000BF00BF2D4829
:103BD000057001212D48FEF7E3F904462C480088C2
:103BE000401C2B4908802B480078052847D2DFE885
:103BF00000F0030C1A2D4100012C05D100202449AE
:103C0000088001202349087039E0012C07D12048A1
:103C10000088022806DB02201E49087002E000200E
:103C20001C4908702BE034B9002019490880032092
:103C30001849087009E016480088462805DB04206A
:103C40001449087007201049087018E010480088CF
:103C50001E2806DD05200C49087000200D4908705B
:103C600007E0012C05D10620074908700420094906
:103C7000087004E014B900200649087000BF00BFB6
:103C800070BD000019000020180000200000024054
:103C90001C0000201A00002070B504463B2000F0F4
:103CA00083F805463C2000F07FF8064646EA0520EA
:103CB00000B2E0803D2000F077F805463E2000F09D
:103CC00073F8064646EA052000B220813F2000F046
:103CD0006BF80546402000F067F8064646EA0520E6
:103CE00000B26081432000F05FF80546442000F0F8
:103CF0005BF8064646EA052000B22080452000F029
:103D000053F80546462000F04FF8064646EA0520DF
:103D100000B26080472000F047F80546482000F0D8
:103D200043F8064646EA052000B2A08070BD0000B8
:103D300010B513A0FCF728FB752000F035F80446F9
:103D4000214616A0FCF720FB00216B2000F05DF857
:103D5000322001F0EDFB00216C2000F056F8182114
:103D60001B2000F052F818211C2000F04EF807210B
:103D7000192000F04AF806211A2000F046F810BD7C
:103D80004D50553630353020496E697469616C6923
:103D90007A6174696F6E0D0A0000000049443A258B
:103DA00023780D0A0000000070B5054600F066FF9C
:103DB000D02000F029FF00F095FE04461CB100F071
:103DC00081FF012070BD284600F01EFF00F08AFE32
:103DD00004461CB100F076FF0220F3E700F04EFF2E
:103DE000D12000F011FF00F07DFE04461CB100F070
:103DF00069FF0120E6E700F09FFE0646012000F083
:103E0000D1FE00F05FFF3046DCE770B506460D4698
:103E100000F034FFD02000F0F7FE00F063FE04460F
:103E20001CB100F04FFF012070BD304600F0ECFEE9
:103E300000F058FE04461CB100F044FF0220F3E7F6
:103E4000284600F0E1FE00F04DFE04461CB100F0F3
:103E500039FF0320E8E700F035FF0020E4E7000029
:103E60001FB500200090019002900390154816495C
:103E700008604FF480304860002113488160016180
:103E8000017680F82010C162104981620021C16072
:103E90000121C161002180F8301001214161FDF74D
:103EA00093FD08B1FDF76FFC032000900120019005
:103EB0000020029069460448FDF7B0FC08B1FDF708
:103EC00062FC1FBD002001400C0100200100000F1A
:103ED00000B587B0142102A8FCF75DFB00BF0020ED
:103EE00001904B48006840F00400494908600846CA
:103EF000006800F00400019000BF00BF00BF002078
:103F000001900846006840F080000860084600689C
:103F100000F08000019000BF00BF00BF00200190B2
:103F20000846006840F0010008600846006800F09C
:103F30000100019000BF00BF00BF002001900846B3
:103F4000006840F0020008600846006800F00200C7
:103F5000019000BF00BF012251032E48FEF728F850
:103F6000012248F286012C48FEF722F800224FF485
:103F700080612A48FEF71CF801224FF40E512748B1
:103F8000FEF716F84FF40050029001200390002035
:103F90000490059002A91F48FDF71EFF0120029022
:103FA00000200390049002A91B48FDF715FF06208E
:103FB00002901120039000200490059002A9164859
:103FC000FDF70AFF48F280000290012003900020D4
:103FD0000490059002A91048FDF7FEFE4FF4125020
:103FE00002900120039000200490059002A90B4844
:103FF000FDF7F2FE4FF44070029011200390002074
:104000000490059002A90548FDF7E6FE07B000BD43
:104010003038024000080240000002400004024024
:1040200000B587B0142102A8FCF7B5FA0020019072
:104030001B481C490860002048607F2119488160A6
:10404000FF21C1600021016141618161FEF704FD32
:1040500008B1FDF798FB00208DF808008DF80900E5
:104060008DF80A0005900690012202A90D48FEF77E
:10407000CBFD08B1FDF787FB01208DF804008DF81A
:1040800005008DF8060000208DF80700012201A927
:104090000448FEF759FD08B1FDF775FB07B000BDF8
:1040A000002800405401002010B50E480E49086059
:1040B0004FF48270486000210B488160C16002218A
:1040C000016101214161490281610021C1610162F7
:1040D000416281620A21C162FEF728FE08B1FDF744
:1040E00052FB10BD003001407401002010B50A4899
:1040F0000A490860002048600021084881604FF6A6
:10410000FF71C160002101618161FEF7B2FF08B15A
:10411000FDF739FB10BD00000048014014020020EB
:104120001FB500200090019002900390124813499F
:1041300008606320486000211048816040F2E73148
:10414000C160002101618161FEF793FF08B1FDF7B5
:104150001AFB4FF48050009069460848FFF738F882
:1041600008B1FDF710FB05480068C06840F0010089
:1041700002490968C8601FBD00400140CC01002011
:1041800010B51748174908604FF4E1304860002126
:1041900014488160C16001610C214161002181618D
:1041A000C161FFF73DFB08B1FDF7EDFA0D4800686E
:1041B000C06840F020000B490968C86009480068E1
:1041C000C06840F0100007490968C86005480068E9
:1041D000C06840F4005003490968C86010BD000081
:1041E000001001405C02002000BFFEE700BFFEE7B8
:1041F00070B5054600241FE004F1B001C8B20021EB
:1042000000F0CEF90021084600F0CAF90021102084
:1042100000F0C6F900260BE025B90121002000F0CE
:10422000BFF903E00121FF2000F0BAF9701CC6B20B
:10423000842EF1DB601CC4B2082CDDDB70BD10B530
:1042400000F078F80021AE2000F0AAF90021022049
:1042500000F0A6F90021102000F0A2F90021402072
:1042600000F09EF90021812000F09AF90021FF2042
:1042700000F096F90021A12000F092F90021C82059
:1042800000F08EF90021A62000F08AF90021A82074
:1042900000F086F900213F2000F082F90021D320B0
:1042A00000F07EF90021084600F07AF90021D520BF
:1042B00000F076F90021802000F072F90021D92069
:1042C00000F06EF90021F12000F06AF90021DA20F7
:1042D00000F066F90021122000F062F90021DB20D5
:1042E00000F05EF90021402000F05AF90021202062
:1042F00000F056F90021022000F052F900218D2033
:1043000000F04EF90021142000F04AF90021A42009
:1043100000F046F90021A62000F042F90021AF206C
:1043200000F03EF90021AF2000F03AF90020FFF73D
:104330005FFF10BD10B500224FF400510748FDF794
:1043400037FE642001F0F4F8012251030348FDF721
:104350002FFE642001F0ECF810BD000000040240C4
:1043600070B505460C4605F1B001C8B2002100F059
:1043700017F9102141EA2410002100F011F904F08E
:104380000F00002100F00CF970BD00002DE9F0478E
:104390000746884691461D46A9F1200000F0FF0A15
:1043A00000242EE008F10202D1B23A19D0B2FFF790
:1043B000D7FF102D10D100260BE04FEA0A1101EBB8
:1043C000C4013144134A505C012100F0E9F8701C2B
:1043D000C6B2082EF1DB12E0182D10D100260CE039
:1043E0000AEB4A01090101EB041131440A4A505C0D
:1043F000012100F0D5F8701CC6B2102EF0DB601C55
:10440000C4B2E91705EB5171B4EBE10FCADBBDE8AB
:10441000F08700005D6500084D6B00082DE9F0474E
:1044200081468A4690461C46002510E098F8000018
:10443000274A12F81510884207D198F80110680031
:10444000401C105C814200D106E0681CC5B22049C6
:1044500011F815000028E9D100BF1D4911F8150019
:1044600008B9BDE8F08700262AE00AF10202D1B2BD
:1044700009EB0602D0B2FFF773FF00271CE0102CF7
:1044800009D1690101EB06113944124A505C01213E
:1044900000F086F80EE0182C0CD105EBC501C90020
:1044A00006EB460201EBC20139440B4A505C012184
:1044B00000F076F8781CC7B2A742E0DB701CC6B2E9
:1044C000E11704EB5171B6EBE10FCEDB00BFC8E79B
:1044D0000C6200081D6200081D6300082DE9F0470A
:1044E0000746894615469846DDF820A0002413E0CB
:1044F0003919C8B24946FFF733FF002608E005FB2B
:1045000004611AF80100012100F04AF8701CC6B2DB
:10451000AE42F4DB601CC4B208F10700C11700EB27
:104520005171B4EBE10FE3DBBDE8F0872DE9F04119
:1045300007460E4615461C462DE02878202815DB38
:1045400028787F2812DC2A78234631463846FFF740
:104550001DFF6D1C102C03D106F10800C6B20EE041
:10456000182C0CD106F11000C6B208E023462A46EA
:1045700031463846FFF752FFAD1C3019C6B2C4F1C0
:104580008300B04207DA2046E11704EB517107EBD4
:10459000E101CFB2002628780028CED1BDE8F08115
:1045A00070B505460C46002280210C48FDF700FD41
:1045B0002CB10122D1030A48FDF7FAFC05E00022E4
:1045C0004FF400410648FDF7F3FC284600F04CF993
:1045D000012280210148FDF7EBFC70BD0004024080
:1045E0000000024070470146002203E0521CA1F186
:1045F0000A00C1B20A29F9D2100741EA10607047D7
:1046000070B50446002600252068C06800F0400010
:10461000C8B92068C06840F080002168C860FDF714
:10462000CDFC064608E0FDF7C9FC801BB0F57A7F9B
:1046300002D90420607701252068C06800F040009E
:1046400008B9012DEFD1284670BD70B5044600258C
:104650002068C06820F080002168C86020688068F9
:1046600000F0200030B92046FEF744FB10B10420D2
:1046700060770125284670BD30B587B00446142107
:1046800002A8FBF788FF00200190012560798DF8D2
:104690000800A0798DF80900E0798DF80A00002063
:1046A00005900690002202A90D48FEF7ADFA0546D6
:1046B00015B1284607B030BD20798DF80400A078E8
:1046C0008DF80500E0788DF8060020788DF8070059
:1046D000002201A90248FEF737FA05462846E9E715
:1046E0005401002010B500F0EFF9002400F0C6FAE4
:1046F000802000F089FA00F0F5F90446012C03D17E
:1047000000F0E0FA012010BDFE2000F07DFA00F07C
:10471000E9F90446012C03D100F0D4FA0220F2E7B3
:1047200000F0D0FA142000F003FF0020EBE70000B7
:1047300038B504466946F52000F024F808B1012098
:1047400038BDBDF800004FF6FC7108400090BDF880
:10475000000000EE100AB8EE400ADFED080A60EE35
:10476000200A9FED071A80EE810AF9EE080A30EE62
:10477000200A84ED000A0020E2E700000000FA426F
:10478000000080472DE9F04180460D46002400F0EE
:1047900075FA802000F038FA00F0A4F90446012CE4
:1047A00004D100F08FFA0120BDE8F081404600F00E
:1047B0002BFA00F097F90446012C03D100F082FA9D
:1047C0000220F1E700F07EFA642000F0B1FE00F074
:1047D00055FA812000F018FA00F084F90446012C03
:1047E00003D100F06FFA0120DEE700F0A5F90646DC
:1047F000002000F0D7F900F09FF90746012000F0F3
:10480000D1F900F05FFA47EA062028800020CBE7C4
:1048100038B504466946F320FFF7B4FF08B101201C
:1048200038BDBDF800004FF6FC7108400090BDF89F
:10483000000000EE100AB8EE400ADFED080A60EE54
:10484000200A9FED071A80EE810ADFED060A30EE9E
:10485000200A84ED000A0020E2E7000052B82F434E
:104860000000804766663BC201B5642301226946A9
:104870000148FEF703FB08BD740100207CB5044627
:104880000E4615463346012202212046009500F0CF
:1048900039F828B1606D40F02000606503207CBDD0
:1048A000164800681821B0FBF1F01549B0FBF1F093
:1048B0004FF47A71484301906068B0F5827F0DD162
:1048C0003346002280212046009500F01BF898B165
:1048D000606D40F0200060650320E0E700BF0198B4
:1048E00000B908E00198401E019020688068C0F37C
:1048F000C0100028F3D100BF0020D0E71000002036
:1049000040420F002DE9F84F04460D4690461E46E2
:10491000DDF82890FDF752FBA0EB0900371AFDF7F0
:104920004DFB82462C480068C0F3CB3078430090A2
:1049300046E0701C002843D0FDF740FBA0EB0A00C6
:10494000B84200D2A7BB2068406820F0E000216890
:1049500048606068B0F5827F0DD1A068B0F5004F67
:1049600003D0A068B0F5806F05D12068006820F002
:10497000400021680860A06AB0F5005F0DD100BF5B
:104980002068006820F400502168086020680068F2
:1049900040F400502168086000BF012084F85100F5
:1049A00000BF002084F8500000BF0320BDE8F88F4E
:1049B000FFE7009808B9002702E00098401E009029
:1049C000206880682840A84201D1012000E0002032
:1049D0004045AED10020E9E71000002070470000FC
:1049E00000B52DED028B87B02E48007801280CD140
:1049F00000202C490870FFF7FBFB2B4840231A4688
:104A0000002100900846FFF769FD28480068B0F5CE
:104A1000FA7F2AD300202549086005A8FFF788FE01
:104A200006A8FFF7F5FE069801F06CFB41EC180BA9
:104A300053EC182B1EA102A8FBF7B2FC102302AA0C
:104A400041210120FFF772FD059801F05BFB41EC6D
:104A5000180B53EC182B19A102A8FBF7A1FC10238B
:104A600002AA41210420FFF761FD0E488078032847
:104A700002D0042810D107E0022001F099F809497A
:104A800048700120087007E0012001F091F8054905
:104A900048700120087000BF00BF07B0BDEC028B5A
:104AA00000BD00001E0000201D8D0008C002002077
:104AB000543A25302E31662000000000523A25304D
:104AC0002E3166252520000010B501221102044870
:104AD000FDF76EFA012251020148FDF769FA10BD97
:104AE0000004024010B500224FF480711148FDF718
:104AF0005FFA012251020F48FDF75AFA052000F033
:104B00005BFD012211020B48FDF752FA052000F06F
:104B100053FD4FF400710748FDF742FA04460022A6
:104B20004FF480710348FDF743FA052000F044FD7F
:104B3000204610BD0004024070B50024012251023D
:104B40001748FDF735FA00251CE06006040E002228
:104B50004FF480711248FDF72BFA052000F02CFD70
:104B6000012211020E48FDF723FA052000F024FD72
:104B70004FF400710A48FDF713FA08B144F001043C
:104B8000681CC5B2082DE0DB00224FF48071044898
:104B9000FDF70EFA052000F00FFD204670BD000065
:104BA0000004024010B5044600224FF480711548FD
:104BB000FDF7FEF9052000F0FFFC2CB101225102A7
:104BC0001048FDF7F5F905E000224FF400710D489B
:104BD000FDF7EEF9012211020A48FDF7E9F9052077
:104BE00000F0EAFC00224FF480710648FDF7E0F97E
:104BF000012251020348FDF7DBF9052000F0DCFC3F
:104C000010BD00000004024070B50446002526E0F7
:104C100000224FF480711848FDF7CAF9052000F012
:104C2000CBFC04F0800028B1012251021248FDF7AC
:104C3000BFF905E000224FF400710F48FDF7B8F905
:104C40006006040E052000F0B7FC012211020A489C
:104C5000FDF7AEF9052000F0AFFC681CC5B2082DC9
:104C6000D6DB00224FF480710348FDF7A1F905203F
:104C700000F0A2FC70BD00000004024010B501224B
:104C800051020F48FDF794F9012211020C48FDF77B
:104C90008FF9052000F090FC00224FF400710848C5
:104CA000FDF786F9052000F087FC00224FF48071A3
:104CB0000348FDF77DF9052000F07EFC10BD0000E3
:104CC0000004024010B500224FF400710B48FDF7BC
:104CD0006FF9052000F070FC012211020748FDF772
:104CE00067F9052000F068FC012251020348FDF736
:104CF0005FF9052000F060FC10BD000000040240D8
:104D000010B5FDF761F910BD00B593B0302107A8CB
:104D1000FBF741FC142102A8FBF73DFC00BF00207B
:104D200001902548006840F08050234908600846FB
:104D3000006800F08050019000BF00BF00BF00205D
:104D400001901E48006840F440401C490860084635
:104D5000006800F44040019000BF00BF05200790AC
:104D60004FF4803008900120099002200D904105F9
:104D70000E910C210F9160211091022111910421BB
:104D8000129107A8FDF71AFC08B1FCF7FCFC0F20F4
:104D9000029002200390002004904FF48050059070
:104DA00000200690032102A8FDF7C8FA08B1FCF71D
:104DB000EAFC13B000BD0000403802400070004023
:104DC0000348006840F47000014908607047000023
:104DD00088ED00E010B50248FEF781FA10BD000032
:104DE000CC01002010B50268224B98420BD0B0F1E4
:104DF000804F08D0204B984205D0204B984202D0DB
:104E00001F4B984203D122F070024B681A43194B92
:104E1000984214D0B0F1804F11D0174B98420ED069
:104E2000164B98420BD0164B984208D0154B98421F
:104E300005D0154B984202D0144B984203D122F46E
:104E40004072CB681A4322F080034C6943EA0402A3
:104E50008B68C3620B688362064B984201D10B6971
:104E60000363036843F004030360012343610260AA
:104E700010BD000000000140000400400008004098
:104E8000000C004000400140004401400048014047
:104E900030B50C46816821F47F4142EA0325254361
:104EA0002943816030BD0A46816821F0700142F0DB
:104EB000070319438160704730B50B461446026AF8
:104EC000056A25F001050562816921F0F00141EADA
:104ED000041122F00A021A438161026230BD30B52A
:104EE0000B461446026A056A25F0100505628169C1
:104EF00021F4704141EA043122F0A00242EA031297
:104F00008161026230BD70B50446A56B0020E88562
:104F10002846FEF7FFFA70BD00BF00BF02680C32E2
:104F200052E8002F22F4907102680C3242E800131C
:104F3000002BF3D100BF00BF00BF0268143252E85B
:104F4000002F22F001010268143242E80013002B06
:104F5000F3D100BF016B01290ED100BF00BF026871
:104F60000C3252E8002F22F0100102680C3242E8A5
:104F70000013002BF3D100BF202180F84210002144
:104F80000163704710B504462068C06820F04000F7
:104F90002168C860202084F841002046FEF728FDE3
:104FA000002010BDF8B504460025002694F8420004
:104FB000222873D1A068B0F5805F0BD1206948B971
:104FC000A66A20684068C0F308003080A06A801C90
:104FD000A06214E0A56AA068B0F5805F03D0A06865
:104FE00028B9206918B920684068287004E0206852
:104FF000406800F07F002870A06A401CA062E08D2D
:10500000401E80B2E085002846D12068C06820F0AC
:1050100020002168C8602068C06820F48070216882
:10502000C8602068406920F00100216848612020A4
:1050300084F8420000206063206B012826D1002004
:10504000206300BF00BF21680C3151E8001F21F030
:10505000100021680C3141E80002002AF3D100BFA2
:105060002068006800F0100010280AD100BF00205E
:10507000009020680068009020684068009000BFA1
:1050800000BFA18D2046FEF744FA02E02046FEF75D
:105090004FFC0020F8BD01E00020FBE70220F9E70B
:1050A00070B504462046FBF757FA85B24FF4FA7301
:1050B0002A4621460148FEF73CFC70BD5C020020F8
:1050C0002DE9F84F04462068006920F44050E1685B
:1050D0000843216808612169A068084361690843A1
:1050E000E169084300902068C06849F20C61884378
:1050F000009908432168C8602068406920F4407026
:10510000A16908432168486176492068884203D034
:1051100075492068884203D1FDF7E8F9814602E02D
:10512000FDF7D4F98146E069B0F5004F6CD102205B
:105130006168A0FB015003461920A9FB00700146DD
:105140002A463846FBF7A9F86421B0FBF1F04FEA94
:10515000001A02206168A0FB01510B461920A9FB2F
:1051600000712A463846FBF798F8834602206168AA
:10517000A0FB015003461920A9FB00712A463846BE
:10518000FBF78BF86421B0FBF1F000EBC00101EB01
:105190000010ABEB8000322101EBC0006421B0FBBA
:1051A000F1F000F0F8000AEB400A02206168A0FB71
:1051B000015003461920A9FB007001462A463846D3
:1051C000FBF76BF8834602206168A0FB01500346A1
:1051D0001920A9FB00712A463846FBF75EF86421C6
:1051E000B0FBF1F000EBC00101EB0010ABEB800075
:1051F000322101EBC0006421B0FBF1F000F00700A8
:105200005044216888606AE004206168A0FB015076
:1052100003461920A9FB007001462A463846FBF7D1
:105220003CF8824604206168A0FB01500346192027
:10523000A9FB007001462A463846FBF72EF8642188
:10524000B0FBF1F000EBC00101EB0010AAEB800015
:10525000322101EB00106421B0FBF1F000F0F00A04
:1052600004206168A0FB017003461920A9FB0051CE
:105270003A462846FBF711F86421B0FBF1F00AEB3F
:10528000001A04206168A0FB01510B461920A9FBFC
:1052900000712A463846FBF700F88346042061680F
:1052A000A0FB015003461920A9FB007001462A46C5
:1052B0003846FAF7F2FF6421B0FBF1F000EBC001D1
:1052C00001EB0010ABEB8000322101EB00106421F8
:1052D000B0FBF1F000F00F00504421688860BDE899
:1052E000F88F00000010014000140140014691F8C1
:1052F0004100212828D18868B0F5805F0BD108696A
:1053000048B90A6A1088C0F308000B685860086A38
:10531000801C086205E00B6A581C086218780B684C
:105320005860C88C401E80B2C88458B90868C068EC
:1053300020F080000B68D8600868C06840F040002A
:105340000B68D860002070470220FCE72DE9F84385
:1053500004460D4617469846089E31E0701C70B30F
:10536000FCF72CFEA0EB0800B04200D816B90320D1
:10537000BDE8F8832068C06800F00400F8B1802D13
:105380001ED0402D1CD020680068C0F3C000B0B112
:1053900000BF0020009020680068009020684068EE
:1053A000009000BF00BF2046FFF7B6FD08206064F4
:1053B00000BF002084F8400000BF0120D8E7FFE7CD
:1053C000206800682840A84201D1012000E00020A8
:1053D000B842C3D00020CBE710B51B480068006876
:1053E00000F0200020280BD1174800684068C4B2A4
:1053F000164841784078401C144A5070901C445420
:1054000011480068006800F01000102817D10E48FD
:10541000006800680C48006840680C484078002824
:105420000DDD012009490870002108484278801CE0
:105430008154002005494870881CFFF731FE02485E
:10544000FEF76AF810BD00005C020020D4020020C4
:1054500000BFFEE703B401984100009850EAC12064
:1054600018BF04204A0D18BF40F0010040F2FF723F
:10547000B2EB515F08BF40F00200012808BF0520D1
:1054800002B0704702480068C0F302207047000075
:105490000CED00E010B5002804DB0A07130E054AE6
:1054A000135406E00A07140E034A00F00F031B1FF3
:1054B000D45410BD00E400E018ED00E030380A28B4
:1054C00001D20120704700207047014600BF70479D
:1054D00010B51448007801280AD10020114908703D
:1054E000FEF786FE102310A200210846FFF71EF8E3
:1054F0000C488078032802D0042810D107E002204D
:1055000000F056FB074948700120087007E00120B1
:1055100000F04EFB034948700120087000BF00BF37
:1055200010BD00001E000020436C6F636B00000084
:105530001F49096841F480211D4A11601D4909680D
:1055400041F080011B4A11601146096821F00201F7
:10555000116042F20F71174A2832116000EB80018E
:105560004900491E121D116012491431096841F0A9
:105570000101104A14321160111F096821F0010164
:10558000121F11600B49096841F00101094A1160BD
:1055900000BF08491031096801F001010029F8D065
:1055A0000449096821F00101024A116070470000B6
:1055B00044380240004801401D49096841F48021F7
:1055C0001B4A11601B49096841F08001194A1160AA
:1055D0001146096821F0020111603121154A283273
:1055E00011604100491E121D1160124914310968F1
:1055F00041F001010F4A14321160111F096821F0B6
:105600000101121F11600B49096841F00101094AAB
:10561000116000BF07491031096801F0010100293C
:10562000F8D00449096821F00101024A116070476D
:10563000443802400048014000BF064A1268126820
:1056400002F04002002AF8D0C2B2024B1B685A6036
:10565000704700005C02002010B5002204211348AE
:10566000FCF7A6FC012202211048FCF7A1FC002255
:1056700004210E48FCF79CFC0A20FFF79DFF012245
:1056800004210A48FCF794FC0A20FFF795FF022149
:105690000648FCF785FC08B1012400E00024002244
:1056A00004210248FCF784FC204610BD00000240A3
:1056B00070B5002204211748FCF77AFC0122022170
:1056C0001448FCF775FC00251AE00022042111485B
:1056D000FCF76EFC0A20FFF76FFF012204210D4842
:1056E000FCF766FC0A20FFF767FF6006040E022144
:1056F0000848FCF755FC08B144F00104681CC5B229
:10570000082DE2DB002204210248FCF751FC204670
:1057100070BD00000000024010B5044600220421C4
:105720001148FCF745FC0A20FFF746FF2CB9002280
:1057300002210D48FCF73CFC04E0012202210A484A
:10574000FCF736FC0A20FFF737FF01220421064848
:10575000FCF72EFC0A20FFF72FFF0022042102484D
:10576000FCF726FC10BD00000000024070B50446A6
:10577000002524E0002204211548FCF719FC0A202A
:10578000FFF71AFF04F0800028B10122022110481F
:10579000FCF70EFC04E0002202210D48FCF708FC97
:1057A0000A20FFF709FF012204210948FCF700FC49
:1057B0000A20FFF701FF6006040E681CC5B2082D21
:1057C000D8DB002204210248FCF7F2FB70BD000088
:1057D0000000024010B5002204210F48FCF7E8FB4E
:1057E000012202210C48FCF7E3FB012204210A48B4
:1057F000FCF7DEFB0A20FFF7DFFE0022022106484D
:10580000FCF7D6FB0A20FFF7D7FE0022042102484E
:10581000FCF7CEFB10BD00000000024010B50022D6
:1058200004210C48FCF7C4FB002202210948FCF7C4
:10583000BFFB012204210748FCF7BAFB0A20FFF74F
:10584000BBFE012202210348FCF7B2FB0A20FFF74E
:10585000B3FE10BD00000240FCF7C2FBFFF754FA94
:10586000FEF736FBFEF78CFCFEF75AFCFEF7F8FA63
:10587000FEF71AFCFEF73AFCFEF7D2FBFEF732FF0A
:10588000FEF7DDFCFEF754FAFEF7B4F81748FDF713
:105890005DFC17A0FFF704FCFEF7C6F800BF00BFD1
:1058A0001548FEF7E9FE20E0FBF7AEFF13498870CC
:1058B00008464078072817D2DFE800F01604070AE8
:1058C0000D10130000F01CF80EE0FFF701FE0BE0D6
:1058D000FFF786F808E000F04DF805E0FEF7EAF87B
:1058E00002E0FBF705FF00BF00BFDDE7CC010020B1
:1058F000456E7465720D0A00020100201E00002032
:1059000010B51848007801280DD1002015490870FD
:10591000FEF76EFC012014490870102313A24121E8
:105920000320FEF703FE0F488078032802D00428E6
:1059300016D10AE0022000F03BF90A494870012024
:1059400008700020084908700AE0012000F030F9D2
:10595000044948700120087000200349087000BF06
:1059600000BF10BD1E0000202100002048656C6CA7
:105970006F00000000B52DED088B93B072480078E1
:10598000012804D1002070490870FEF731FC10A8EE
:10599000FEF782F9BDF9400000F09EFA41EC190BC8
:1059A0009FED6A0B53EC102B00F03EF941EC180B05
:1059B00053EC182B67A0FAF7E7FCBDF9400000EEA6
:1059C000100AB8EEC00A10EE101A084600F09AFB52
:1059D00041EC1A0B9FED5D0B53EC102B00F024F9FA
:1059E00041EC180BBDF9460000F076FA41EC1B0BB8
:1059F0009FED5C0B53EC102B00F016F941EC1A0BE9
:105A00009FED5A0B53EC102B00F07EFA41EC190B72
:105A10008DED008B53EC192B56A103A8FAF7C0FCAF
:105A2000102303AA00210846FEF780FDBDF94200BD
:105A300000EE100AB8EEC00A10EE101A084600F088
:105A400061FB41EC1A0B9FED410B53EC102B00F066
:105A5000EBF841EC180BBDF9480000F03DFA41ECC1
:105A60001B0B9FED400B53EC102B00F0DDF841ECCD
:105A70001A0B9FED3E0B53EC102B00F045FA41EC56
:105A8000190B8DED008B53EC192B3FA103A8FAF7EE
:105A900087FC102303AA00210220FEF747FDBDF971
:105AA000440000EE100AB8EEC00A10EE101A0846C4
:105AB00000F028FB41EC1A0B9FED240B53EC102B4C
:105AC00000F0B2F841EC190BBDF94A0000F004FAFD
:105AD00041EC1B0B9FED230B53EC102B00F0A4F8B3
